
main.elf:     file format elf32-avr

Sections:
Idx Name          Size      VMA       LMA       File off  Algn
  0 .text         0000152c  00000000  00000000  00000094  2**1
                  CONTENTS, ALLOC, LOAD, READONLY, CODE
  1 .data         00000008  00800060  0000152c  000015c0  2**0
                  CONTENTS, ALLOC, LOAD, DATA
  2 .bss          000000ea  00800068  00800068  000015c8  2**0
                  ALLOC
  3 .debug_aranges 00000060  00000000  00000000  000015c8  2**0
                  CONTENTS, READONLY, DEBUGGING
  4 .debug_pubnames 000002f1  00000000  00000000  00001628  2**0
                  CONTENTS, READONLY, DEBUGGING
  5 .debug_info   00001065  00000000  00000000  00001919  2**0
                  CONTENTS, READONLY, DEBUGGING
  6 .debug_abbrev 0000052e  00000000  00000000  0000297e  2**0
                  CONTENTS, READONLY, DEBUGGING
  7 .debug_line   00001108  00000000  00000000  00002eac  2**0
                  CONTENTS, READONLY, DEBUGGING
  8 .debug_frame  00000200  00000000  00000000  00003fb4  2**2
                  CONTENTS, READONLY, DEBUGGING
  9 .debug_str    00000471  00000000  00000000  000041b4  2**0
                  CONTENTS, READONLY, DEBUGGING
 10 .debug_loc    000010a2  00000000  00000000  00004625  2**0
                  CONTENTS, READONLY, DEBUGGING
 11 .debug_ranges 00000078  00000000  00000000  000056c7  2**0
                  CONTENTS, READONLY, DEBUGGING

Disassembly of section .text:

00000000 <__vectors>:
       0:	12 c0       	rjmp	.+36     	; 0x26 <__ctors_end>
       2:	2c c0       	rjmp	.+88     	; 0x5c <__bad_interrupt>
       4:	2b c0       	rjmp	.+86     	; 0x5c <__bad_interrupt>
       6:	2a c0       	rjmp	.+84     	; 0x5c <__bad_interrupt>
       8:	29 c0       	rjmp	.+82     	; 0x5c <__bad_interrupt>
       a:	45 c0       	rjmp	.+138    	; 0x96 <__vector_5>
       c:	27 c0       	rjmp	.+78     	; 0x5c <__bad_interrupt>
       e:	26 c0       	rjmp	.+76     	; 0x5c <__bad_interrupt>
      10:	25 c0       	rjmp	.+74     	; 0x5c <__bad_interrupt>
      12:	24 c0       	rjmp	.+72     	; 0x5c <__bad_interrupt>
      14:	23 c0       	rjmp	.+70     	; 0x5c <__bad_interrupt>
      16:	22 c0       	rjmp	.+68     	; 0x5c <__bad_interrupt>
      18:	21 c0       	rjmp	.+66     	; 0x5c <__bad_interrupt>
      1a:	20 c0       	rjmp	.+64     	; 0x5c <__bad_interrupt>
      1c:	1f c0       	rjmp	.+62     	; 0x5c <__bad_interrupt>
      1e:	1e c0       	rjmp	.+60     	; 0x5c <__bad_interrupt>
      20:	1d c0       	rjmp	.+58     	; 0x5c <__bad_interrupt>
      22:	1c c0       	rjmp	.+56     	; 0x5c <__bad_interrupt>
      24:	1b c0       	rjmp	.+54     	; 0x5c <__bad_interrupt>

00000026 <__ctors_end>:
      26:	11 24       	eor	r1, r1
      28:	1f be       	out	0x3f, r1	; 63
      2a:	cf e5       	ldi	r28, 0x5F	; 95
      2c:	d4 e0       	ldi	r29, 0x04	; 4
      2e:	de bf       	out	0x3e, r29	; 62
      30:	cd bf       	out	0x3d, r28	; 61

00000032 <__do_copy_data>:
      32:	10 e0       	ldi	r17, 0x00	; 0
      34:	a0 e6       	ldi	r26, 0x60	; 96
      36:	b0 e0       	ldi	r27, 0x00	; 0
      38:	ec e2       	ldi	r30, 0x2C	; 44
      3a:	f5 e1       	ldi	r31, 0x15	; 21
      3c:	02 c0       	rjmp	.+4      	; 0x42 <.do_copy_data_start>

0000003e <.do_copy_data_loop>:
      3e:	05 90       	lpm	r0, Z+
      40:	0d 92       	st	X+, r0

00000042 <.do_copy_data_start>:
      42:	a8 36       	cpi	r26, 0x68	; 104
      44:	b1 07       	cpc	r27, r17
      46:	d9 f7       	brne	.-10     	; 0x3e <.do_copy_data_loop>

00000048 <__do_clear_bss>:
      48:	11 e0       	ldi	r17, 0x01	; 1
      4a:	a8 e6       	ldi	r26, 0x68	; 104
      4c:	b0 e0       	ldi	r27, 0x00	; 0
      4e:	01 c0       	rjmp	.+2      	; 0x52 <.do_clear_bss_start>

00000050 <.do_clear_bss_loop>:
      50:	1d 92       	st	X+, r1

00000052 <.do_clear_bss_start>:
      52:	a2 35       	cpi	r26, 0x52	; 82
      54:	b1 07       	cpc	r27, r17
      56:	e1 f7       	brne	.-8      	; 0x50 <.do_clear_bss_loop>
      58:	69 d0       	rcall	.+210    	; 0x12c <main>
      5a:	66 ca       	rjmp	.-2868   	; 0xfffff528 <__eeprom_end+0xff7ef528>

0000005c <__bad_interrupt>:
      5c:	d1 cf       	rjmp	.-94     	; 0x0 <__vectors>

0000005e <adc_init>:
	 }   
}

void adc_init(void)
{
ADMUX|=(1<<REFS0);               //AVCC with external capacitor at AREF
      5e:	3e 9a       	sbi	0x07, 6	; 7
ADCSRA|=(1<<ADEN);               //ADC is enabled but no conversion is started
      60:	37 9a       	sbi	0x06, 7	; 6
//ADCSRA|=(1<<ADPS1)|(1<<ADPS0);   //8MHZ/8=1MHZ
ADCSRA|=(1<<ADPS2);              
      62:	32 9a       	sbi	0x06, 2	; 6
ADMUX|=(1<<ADLAR);               //result is left adjusted and only ADCH will be read s 8 bit presision is required 
      64:	3d 9a       	sbi	0x07, 5	; 7

ACSR|=(1<<ACBG)|(1<<ACIC);      //internal bandgap ref of 2.56v is selected to pos AIN0 pin
      66:	88 b1       	in	r24, 0x08	; 8
      68:	84 64       	ori	r24, 0x44	; 68
      6a:	88 b9       	out	0x08, r24	; 8
                                 //Timer/Counter1 to be triggered by the Analog Comparator
}
      6c:	08 95       	ret

0000006e <read_adc_value>:

uint8_t read_adc_value(uint8_t state) //8 bit conversion 
{
uint16_t value_adc;
state=state&0b00000111;
ADMUX&=0b11111000;           //clear bottom 3 bits
      6e:	97 b1       	in	r25, 0x07	; 7
      70:	98 7f       	andi	r25, 0xF8	; 248
      72:	97 b9       	out	0x07, r25	; 7
ADMUX|=state;                //set to new channel 
      74:	97 b1       	in	r25, 0x07	; 7
      76:	87 70       	andi	r24, 0x07	; 7
      78:	89 2b       	or	r24, r25
      7a:	87 b9       	out	0x07, r24	; 7
ADCSRA|=(1<<ADSC);           //ADC was enabled but conversion didnot start until now
      7c:	36 9a       	sbi	0x06, 6	; 6
while(!(ADCSRA&(1<<ADIF)))   //wait until conversion is completed ie until ADIF flag is set 
      7e:	34 9b       	sbis	0x06, 4	; 6
      80:	fe cf       	rjmp	.-4      	; 0x7e <read_adc_value+0x10>
     {;}
ADCSRA|=(1<<ADIF);           //ADIF is 0 now
      82:	34 9a       	sbi	0x06, 4	; 6

value_adc = ADCH;      //ADCH data register read first as result is left adjusted
      84:	85 b1       	in	r24, 0x05	; 5

return(value_adc);
}
      86:	08 95       	ret

00000088 <timer_init>:

void timer_init(void)
{
TCCR1B|=(1<<ICES1)|(1<<CS10); //a rising (positive) edge will trigger the capture , no prescalling so 8MHz
      88:	8e b5       	in	r24, 0x2e	; 46
      8a:	81 64       	ori	r24, 0x41	; 65
      8c:	8e bd       	out	0x2e, r24	; 46
//TCCR1B|=(1<<ICES1)|(1<<CS11); //a rising (positive) edge will trigger the capture , 8 prescalling so 1MHz
TIMSK|=(1<<TICIE1);            // Input Capture Interrupt Enable
      8e:	89 b7       	in	r24, 0x39	; 57
      90:	80 62       	ori	r24, 0x20	; 32
      92:	89 bf       	out	0x39, r24	; 57
}
      94:	08 95       	ret

00000096 <__vector_5>:


ISR(TIMER1_CAPT_vect)
{
      96:	1f 92       	push	r1
      98:	0f 92       	push	r0
      9a:	0f b6       	in	r0, 0x3f	; 63
      9c:	0f 92       	push	r0
      9e:	11 24       	eor	r1, r1
      a0:	2f 93       	push	r18
      a2:	3f 93       	push	r19
      a4:	8f 93       	push	r24
      a6:	9f 93       	push	r25
read_adc = 1;
      a8:	81 e0       	ldi	r24, 0x01	; 1
      aa:	80 93 68 00 	sts	0x0068, r24
PORTD|=(1<<5);
      ae:	95 9a       	sbi	0x12, 5	; 18
T1capture=ICR1 ;                          //read timer1 input capture register
      b0:	86 b5       	in	r24, 0x26	; 38
      b2:	97 b5       	in	r25, 0x27	; 39
      b4:	90 93 3f 01 	sts	0x013F, r25
      b8:	80 93 3e 01 	sts	0x013E, r24
period= T1capture-lastT1capture;          //compute time between captures
      bc:	80 91 3e 01 	lds	r24, 0x013E
      c0:	90 91 3f 01 	lds	r25, 0x013F
      c4:	20 91 bc 00 	lds	r18, 0x00BC
      c8:	30 91 bd 00 	lds	r19, 0x00BD
      cc:	82 1b       	sub	r24, r18
      ce:	93 0b       	sbc	r25, r19
      d0:	90 93 43 01 	sts	0x0143, r25
      d4:	80 93 42 01 	sts	0x0142, r24
lastT1capture=T1capture ;
      d8:	80 91 3e 01 	lds	r24, 0x013E
      dc:	90 91 3f 01 	lds	r25, 0x013F
      e0:	90 93 bd 00 	sts	0x00BD, r25
      e4:	80 93 bc 00 	sts	0x00BC, r24
}
      e8:	9f 91       	pop	r25
      ea:	8f 91       	pop	r24
      ec:	3f 91       	pop	r19
      ee:	2f 91       	pop	r18
      f0:	0f 90       	pop	r0
      f2:	0f be       	out	0x3f, r0	; 63
      f4:	0f 90       	pop	r0
      f6:	1f 90       	pop	r1
      f8:	18 95       	reti

000000fa <plot_total_screen>:

void plot_total_screen(void)
{
      fa:	0f 93       	push	r16
      fc:	1f 93       	push	r17
ks0108ClearScreen();                       //clear total screen 
      fe:	80 e0       	ldi	r24, 0x00	; 0
     100:	60 e0       	ldi	r22, 0x00	; 0
     102:	4f e7       	ldi	r20, 0x7F	; 127
     104:	2f e3       	ldi	r18, 0x3F	; 63
     106:	00 e0       	ldi	r16, 0x00	; 0
     108:	70 d4       	rcall	.+2272   	; 0x9ea <ks0108FillRect>
uint8_t t;
for(t=0; t<=127; t++)
   {
   //ks0108SetDot(t,(63-temp[t]),WHITE);
   ks0108SetDot(t,(63-v[t]),BLACK);
     10a:	1f e3       	ldi	r17, 0x3F	; 63
     10c:	e0 2f       	mov	r30, r16
     10e:	f0 e0       	ldi	r31, 0x00	; 0
     110:	e2 54       	subi	r30, 0x42	; 66
     112:	ff 4f       	sbci	r31, 0xFF	; 255
     114:	80 81       	ld	r24, Z
     116:	61 2f       	mov	r22, r17
     118:	68 1b       	sub	r22, r24
     11a:	80 2f       	mov	r24, r16
     11c:	4f ef       	ldi	r20, 0xFF	; 255
     11e:	a0 d3       	rcall	.+1856   	; 0x860 <ks0108SetDot>

void plot_total_screen(void)
{
ks0108ClearScreen();                       //clear total screen 
uint8_t t;
for(t=0; t<=127; t++)
     120:	0f 5f       	subi	r16, 0xFF	; 255
     122:	00 38       	cpi	r16, 0x80	; 128
     124:	99 f7       	brne	.-26     	; 0x10c <plot_total_screen+0x12>
   }
/*for(t=0; t<=126; t++)
   {
   ks0108DrawLine(t, v[t], (t+1), v[t+1], BLACK);
   }*/
     126:	1f 91       	pop	r17
     128:	0f 91       	pop	r16
     12a:	08 95       	ret

0000012c <main>:
//FILE uart_str = FDEV_SETUP_STREAM(uart_putchar, uart_getchar, _FDEV_SETUP_RW);
//float freq;
//char freq_string[10];                               //scaled input frequency string to print

void main(void)
{
     12c:	7f 92       	push	r7
     12e:	8f 92       	push	r8
     130:	9f 92       	push	r9
     132:	af 92       	push	r10
     134:	bf 92       	push	r11
     136:	cf 92       	push	r12
     138:	df 92       	push	r13
     13a:	ef 92       	push	r14
     13c:	ff 92       	push	r15
     13e:	0f 93       	push	r16
     140:	1f 93       	push	r17
     142:	cf 93       	push	r28
     144:	df 93       	push	r29
uint16_t n;        //number of adc readings 

uint8_t adc_8;

DDRD|=(1<<5);
     146:	8d 9a       	sbi	0x11, 5	; 17

adc_init();       //initialize adc 
     148:	8a df       	rcall	.-236    	; 0x5e <adc_init>
return(value_adc);
}

void timer_init(void)
{
TCCR1B|=(1<<ICES1)|(1<<CS10); //a rising (positive) edge will trigger the capture , no prescalling so 8MHz
     14a:	8e b5       	in	r24, 0x2e	; 46
     14c:	81 64       	ori	r24, 0x41	; 65
     14e:	8e bd       	out	0x2e, r24	; 46
//TCCR1B|=(1<<ICES1)|(1<<CS11); //a rising (positive) edge will trigger the capture , 8 prescalling so 1MHz
TIMSK|=(1<<TICIE1);            // Input Capture Interrupt Enable
     150:	89 b7       	in	r24, 0x39	; 57
     152:	80 62       	ori	r24, 0x20	; 32
     154:	89 bf       	out	0x39, r24	; 57
timer_init();     //initialize timer
//uart_init();
//stdout = stdin = &uart_str;
//fprintf(stdout,"Frequency meter ....\n\r");

ks0108Init(0);    // Initialize the LCD
     156:	80 e0       	ldi	r24, 0x00	; 0
     158:	d4 d4       	rcall	.+2472   	; 0xb02 <ks0108Init>

ks0108ClearScreen();  //clear total screen  
     15a:	80 e0       	ldi	r24, 0x00	; 0
     15c:	60 e0       	ldi	r22, 0x00	; 0
     15e:	4f e7       	ldi	r20, 0x7F	; 127
     160:	2f e3       	ldi	r18, 0x3F	; 63
     162:	00 e0       	ldi	r16, 0x00	; 0
     164:	42 d4       	rcall	.+2180   	; 0x9ea <ks0108FillRect>

sei();             //global interrupt enabled
     166:	78 94       	sei
	     {
	     delay=(int)((period*0.125)/128);
		 //delay=(int)((period*1)/128);
	     _delay_us(n*delay);
		 adc_8=read_adc_value(0);
	     v[n]=(int)((adc_8*63)/255);
     168:	9f e3       	ldi	r25, 0x3F	; 63
     16a:	79 2e       	mov	r7, r25
    milliseconds can be achieved.
 */
void
_delay_loop_2(uint16_t __count)
{
	__asm__ volatile (
     16c:	88 ec       	ldi	r24, 0xC8	; 200
     16e:	88 2e       	mov	r8, r24
     170:	91 2c       	mov	r9, r1

ks0108Init(0);    // Initialize the LCD

ks0108ClearScreen();  //clear total screen  

sei();             //global interrupt enabled
     172:	c0 e0       	ldi	r28, 0x00	; 0
     174:	d0 e0       	ldi	r29, 0x00	; 0
   
while(1)
     {
	 PORTD&=~(1<<5);
     176:	95 98       	cbi	0x12, 5	; 18
	 //freq=(8000000.0/(float)period);
	 if(period!=T1capture)
     178:	20 91 42 01 	lds	r18, 0x0142
     17c:	30 91 43 01 	lds	r19, 0x0143
     180:	80 91 3e 01 	lds	r24, 0x013E
     184:	90 91 3f 01 	lds	r25, 0x013F
     188:	28 17       	cp	r18, r24
     18a:	39 07       	cpc	r19, r25
     18c:	a1 f3       	breq	.-24     	; 0x176 <main+0x4a>
	   {
	   if(read_adc==1)
     18e:	80 91 68 00 	lds	r24, 0x0068
     192:	81 30       	cpi	r24, 0x01	; 1
     194:	81 f7       	brne	.-32     	; 0x176 <main+0x4a>
	     {
	     delay=(int)((period*0.125)/128);
     196:	60 91 42 01 	lds	r22, 0x0142
     19a:	70 91 43 01 	lds	r23, 0x0143
     19e:	80 e0       	ldi	r24, 0x00	; 0
     1a0:	90 e0       	ldi	r25, 0x00	; 0
     1a2:	3f d8       	rcall	.-3970   	; 0xfffff222 <__eeprom_end+0xff7ef222>
     1a4:	20 e0       	ldi	r18, 0x00	; 0
     1a6:	30 e0       	ldi	r19, 0x00	; 0
     1a8:	40 e0       	ldi	r20, 0x00	; 0
     1aa:	5e e3       	ldi	r21, 0x3E	; 62
     1ac:	f0 d8       	rcall	.-3616   	; 0xfffff38e <__eeprom_end+0xff7ef38e>
     1ae:	20 e0       	ldi	r18, 0x00	; 0
     1b0:	30 e0       	ldi	r19, 0x00	; 0
     1b2:	40 e0       	ldi	r20, 0x00	; 0
     1b4:	5c e3       	ldi	r21, 0x3C	; 60
     1b6:	eb d8       	rcall	.-3626   	; 0xfffff38e <__eeprom_end+0xff7ef38e>
     1b8:	03 d8       	rcall	.-4090   	; 0xfffff1c0 <__eeprom_end+0xff7ef1c0>
     1ba:	70 93 41 01 	sts	0x0141, r23
     1be:	60 93 40 01 	sts	0x0140, r22
		 //delay=(int)((period*1)/128);
	     _delay_us(n*delay);
     1c2:	80 91 40 01 	lds	r24, 0x0140
     1c6:	90 91 41 01 	lds	r25, 0x0141
     1ca:	c8 9f       	mul	r28, r24
     1cc:	b0 01       	movw	r22, r0
     1ce:	c9 9f       	mul	r28, r25
     1d0:	70 0d       	add	r23, r0
     1d2:	d8 9f       	mul	r29, r24
     1d4:	70 0d       	add	r23, r0
     1d6:	11 24       	eor	r1, r1
     1d8:	80 e0       	ldi	r24, 0x00	; 0
     1da:	90 e0       	ldi	r25, 0x00	; 0
     1dc:	22 d8       	rcall	.-4028   	; 0xfffff222 <__eeprom_end+0xff7ef222>
     1de:	5b 01       	movw	r10, r22
     1e0:	6c 01       	movw	r12, r24
 */
void
_delay_us(double __us)
{
	uint8_t __ticks;
	double __tmp = ((F_CPU) / 3e6) * __us;
     1e2:	2b ea       	ldi	r18, 0xAB	; 171
     1e4:	3a ea       	ldi	r19, 0xAA	; 170
     1e6:	4a e2       	ldi	r20, 0x2A	; 42
     1e8:	50 e4       	ldi	r21, 0x40	; 64
     1ea:	d1 d8       	rcall	.-3678   	; 0xfffff38e <__eeprom_end+0xff7ef38e>
     1ec:	7b 01       	movw	r14, r22
     1ee:	8c 01       	movw	r16, r24
	if (__tmp < 1.0)
     1f0:	20 e0       	ldi	r18, 0x00	; 0
     1f2:	30 e0       	ldi	r19, 0x00	; 0
     1f4:	40 e8       	ldi	r20, 0x80	; 128
     1f6:	5f e3       	ldi	r21, 0x3F	; 63
     1f8:	77 d7       	rcall	.+3822   	; 0x10e8 <__cmpsf2>
     1fa:	88 23       	and	r24, r24
     1fc:	14 f4       	brge	.+4      	; 0x202 <main+0xd6>
     1fe:	61 e0       	ldi	r22, 0x01	; 1
     200:	49 c0       	rjmp	.+146    	; 0x294 <main+0x168>
		__ticks = 1;
	else if (__tmp > 255)
     202:	c8 01       	movw	r24, r16
     204:	b7 01       	movw	r22, r14
     206:	20 e0       	ldi	r18, 0x00	; 0
     208:	30 e0       	ldi	r19, 0x00	; 0
     20a:	4f e7       	ldi	r20, 0x7F	; 127
     20c:	53 e4       	ldi	r21, 0x43	; 67
     20e:	bb d8       	rcall	.-3722   	; 0xfffff386 <__eeprom_end+0xff7ef386>
     210:	18 16       	cp	r1, r24
     212:	0c f0       	brlt	.+2      	; 0x216 <main+0xea>
     214:	3c c0       	rjmp	.+120    	; 0x28e <main+0x162>
	{
		_delay_ms(__us / 1000.0);
     216:	c6 01       	movw	r24, r12
     218:	b5 01       	movw	r22, r10
     21a:	20 e0       	ldi	r18, 0x00	; 0
     21c:	30 e0       	ldi	r19, 0x00	; 0
     21e:	4a e7       	ldi	r20, 0x7A	; 122
     220:	54 e4       	ldi	r21, 0x44	; 68
     222:	66 d7       	rcall	.+3788   	; 0x10f0 <__divsf3>
     224:	5b 01       	movw	r10, r22
     226:	6c 01       	movw	r12, r24
 */
void
_delay_ms(double __ms)
{
	uint16_t __ticks;
	double __tmp = ((F_CPU) / 4e3) * __ms;
     228:	20 e0       	ldi	r18, 0x00	; 0
     22a:	30 e0       	ldi	r19, 0x00	; 0
     22c:	4a ef       	ldi	r20, 0xFA	; 250
     22e:	54 e4       	ldi	r21, 0x44	; 68
     230:	ae d8       	rcall	.-3748   	; 0xfffff38e <__eeprom_end+0xff7ef38e>
     232:	7b 01       	movw	r14, r22
     234:	8c 01       	movw	r16, r24
	if (__tmp < 1.0)
     236:	20 e0       	ldi	r18, 0x00	; 0
     238:	30 e0       	ldi	r19, 0x00	; 0
     23a:	40 e8       	ldi	r20, 0x80	; 128
     23c:	5f e3       	ldi	r21, 0x3F	; 63
     23e:	54 d7       	rcall	.+3752   	; 0x10e8 <__cmpsf2>
     240:	88 23       	and	r24, r24
     242:	1c f4       	brge	.+6      	; 0x24a <main+0x11e>
     244:	61 e0       	ldi	r22, 0x01	; 1
     246:	70 e0       	ldi	r23, 0x00	; 0
     248:	1e c0       	rjmp	.+60     	; 0x286 <main+0x15a>
		__ticks = 1;
	else if (__tmp > 65535)
     24a:	c8 01       	movw	r24, r16
     24c:	b7 01       	movw	r22, r14
     24e:	20 e0       	ldi	r18, 0x00	; 0
     250:	3f ef       	ldi	r19, 0xFF	; 255
     252:	4f e7       	ldi	r20, 0x7F	; 127
     254:	57 e4       	ldi	r21, 0x47	; 71
     256:	97 d8       	rcall	.-3794   	; 0xfffff386 <__eeprom_end+0xff7ef386>
     258:	18 16       	cp	r1, r24
     25a:	94 f4       	brge	.+36     	; 0x280 <main+0x154>
	{
		//	__ticks = requested delay in 1/10 ms
		__ticks = (uint16_t) (__ms * 10.0);
     25c:	c6 01       	movw	r24, r12
     25e:	b5 01       	movw	r22, r10
     260:	20 e0       	ldi	r18, 0x00	; 0
     262:	30 e0       	ldi	r19, 0x00	; 0
     264:	40 e2       	ldi	r20, 0x20	; 32
     266:	51 e4       	ldi	r21, 0x41	; 65
     268:	92 d8       	rcall	.-3804   	; 0xfffff38e <__eeprom_end+0xff7ef38e>
     26a:	af d7       	rcall	.+3934   	; 0x11ca <__fixunssfsi>
     26c:	05 c0       	rjmp	.+10     	; 0x278 <main+0x14c>
     26e:	c4 01       	movw	r24, r8
     270:	01 97       	sbiw	r24, 0x01	; 1
     272:	f1 f7       	brne	.-4      	; 0x270 <main+0x144>
		while(__ticks)
		{
			// wait 1/10 ms
			_delay_loop_2(((F_CPU) / 4e3) / 10);
			__ticks --;
     274:	61 50       	subi	r22, 0x01	; 1
     276:	70 40       	sbci	r23, 0x00	; 0
		__ticks = 1;
	else if (__tmp > 65535)
	{
		//	__ticks = requested delay in 1/10 ms
		__ticks = (uint16_t) (__ms * 10.0);
		while(__ticks)
     278:	61 15       	cp	r22, r1
     27a:	71 05       	cpc	r23, r1
     27c:	c1 f7       	brne	.-16     	; 0x26e <main+0x142>
     27e:	0c c0       	rjmp	.+24     	; 0x298 <main+0x16c>
			__ticks --;
		}
		return;
	}
	else
		__ticks = (uint16_t)__tmp;
     280:	c8 01       	movw	r24, r16
     282:	b7 01       	movw	r22, r14
     284:	a2 d7       	rcall	.+3908   	; 0x11ca <__fixunssfsi>
     286:	cb 01       	movw	r24, r22
     288:	01 97       	sbiw	r24, 0x01	; 1
     28a:	f1 f7       	brne	.-4      	; 0x288 <main+0x15c>
     28c:	05 c0       	rjmp	.+10     	; 0x298 <main+0x16c>
	{
		_delay_ms(__us / 1000.0);
		return;
	}
	else
		__ticks = (uint8_t)__tmp;
     28e:	c8 01       	movw	r24, r16
     290:	b7 01       	movw	r22, r14
     292:	9b d7       	rcall	.+3894   	; 0x11ca <__fixunssfsi>
    can be achieved.
*/
void
_delay_loop_1(uint8_t __count)
{
	__asm__ volatile (
     294:	6a 95       	dec	r22
     296:	f1 f7       	brne	.-4      	; 0x294 <main+0x168>
		 adc_8=read_adc_value(0);
     298:	80 e0       	ldi	r24, 0x00	; 0
     29a:	e9 de       	rcall	.-558    	; 0x6e <read_adc_value>
	     v[n]=(int)((adc_8*63)/255);
     29c:	87 9d       	mul	r24, r7
     29e:	c0 01       	movw	r24, r0
     2a0:	11 24       	eor	r1, r1
     2a2:	6f ef       	ldi	r22, 0xFF	; 255
     2a4:	70 e0       	ldi	r23, 0x00	; 0
     2a6:	d6 d8       	rcall	.-3668   	; 0xfffff454 <__eeprom_end+0xff7ef454>
     2a8:	fe 01       	movw	r30, r28
     2aa:	e2 54       	subi	r30, 0x42	; 66
     2ac:	ff 4f       	sbci	r31, 0xFF	; 255
     2ae:	60 83       	st	Z, r22
		 read_adc=0;
     2b0:	10 92 68 00 	sts	0x0068, r1
	     n++;
     2b4:	21 96       	adiw	r28, 0x01	; 1
	     if(n==128)
     2b6:	c0 38       	cpi	r28, 0x80	; 128
     2b8:	d1 05       	cpc	r29, r1
     2ba:	09 f0       	breq	.+2      	; 0x2be <main+0x192>
     2bc:	5c cf       	rjmp	.-328    	; 0x176 <main+0x4a>
	       {
		   cli();
     2be:	f8 94       	cli
		   plot_total_screen();
     2c0:	1c df       	rcall	.-456    	; 0xfa <plot_total_screen>
		   n=0;
		   sei();
     2c2:	78 94       	sei
     2c4:	56 cf       	rjmp	.-340    	; 0x172 <main+0x46>

000002c6 <ks0108ReadFontData>:
     2c6:	fc 01       	movw	r30, r24
     2c8:	84 91       	lpm	r24, Z+
     2ca:	08 95       	ret

000002cc <ks0108SelectFont>:
     2cc:	90 93 4b 01 	sts	0x014B, r25
     2d0:	80 93 4a 01 	sts	0x014A, r24
     2d4:	70 93 49 01 	sts	0x0149, r23
     2d8:	60 93 48 01 	sts	0x0148, r22
     2dc:	40 93 44 01 	sts	0x0144, r20
     2e0:	08 95       	ret

000002e2 <ks0108CharWidth>:
     2e2:	0f 93       	push	r16
     2e4:	1f 93       	push	r17
     2e6:	08 2f       	mov	r16, r24
     2e8:	80 91 4a 01 	lds	r24, 0x014A
     2ec:	90 91 4b 01 	lds	r25, 0x014B
     2f0:	e0 91 48 01 	lds	r30, 0x0148
     2f4:	f0 91 49 01 	lds	r31, 0x0149
     2f8:	04 96       	adiw	r24, 0x04	; 4
     2fa:	09 95       	icall
     2fc:	18 2f       	mov	r17, r24
     2fe:	80 91 4a 01 	lds	r24, 0x014A
     302:	90 91 4b 01 	lds	r25, 0x014B
     306:	e0 91 48 01 	lds	r30, 0x0148
     30a:	f0 91 49 01 	lds	r31, 0x0149
     30e:	05 96       	adiw	r24, 0x05	; 5
     310:	09 95       	icall
     312:	48 2f       	mov	r20, r24
     314:	01 17       	cp	r16, r17
     316:	d8 f0       	brcs	.+54     	; 0x34e <ks0108CharWidth+0x6c>
     318:	20 2f       	mov	r18, r16
     31a:	30 e0       	ldi	r19, 0x00	; 0
     31c:	81 2f       	mov	r24, r17
     31e:	90 e0       	ldi	r25, 0x00	; 0
     320:	84 0f       	add	r24, r20
     322:	91 1d       	adc	r25, r1
     324:	28 17       	cp	r18, r24
     326:	39 07       	cpc	r19, r25
     328:	94 f4       	brge	.+36     	; 0x34e <ks0108CharWidth+0x6c>
     32a:	01 1b       	sub	r16, r17
     32c:	20 2f       	mov	r18, r16
     32e:	30 e0       	ldi	r19, 0x00	; 0
     330:	2a 5f       	subi	r18, 0xFA	; 250
     332:	3f 4f       	sbci	r19, 0xFF	; 255
     334:	80 91 4a 01 	lds	r24, 0x014A
     338:	90 91 4b 01 	lds	r25, 0x014B
     33c:	e0 91 48 01 	lds	r30, 0x0148
     340:	f0 91 49 01 	lds	r31, 0x0149
     344:	82 0f       	add	r24, r18
     346:	93 1f       	adc	r25, r19
     348:	09 95       	icall
     34a:	8f 5f       	subi	r24, 0xFF	; 255
     34c:	01 c0       	rjmp	.+2      	; 0x350 <ks0108CharWidth+0x6e>
     34e:	80 e0       	ldi	r24, 0x00	; 0
     350:	1f 91       	pop	r17
     352:	0f 91       	pop	r16
     354:	08 95       	ret

00000356 <ks0108StringWidth>:
     356:	0f 93       	push	r16
     358:	1f 93       	push	r17
     35a:	cf 93       	push	r28
     35c:	df 93       	push	r29
     35e:	8c 01       	movw	r16, r24
     360:	c0 e0       	ldi	r28, 0x00	; 0
     362:	d0 e0       	ldi	r29, 0x00	; 0
     364:	05 c0       	rjmp	.+10     	; 0x370 <ks0108StringWidth+0x1a>
     366:	0f 5f       	subi	r16, 0xFF	; 255
     368:	1f 4f       	sbci	r17, 0xFF	; 255
     36a:	bb df       	rcall	.-138    	; 0x2e2 <ks0108CharWidth>
     36c:	c8 0f       	add	r28, r24
     36e:	d1 1d       	adc	r29, r1
     370:	f8 01       	movw	r30, r16
     372:	80 81       	ld	r24, Z
     374:	88 23       	and	r24, r24
     376:	b9 f7       	brne	.-18     	; 0x366 <ks0108StringWidth+0x10>
     378:	ce 01       	movw	r24, r28
     37a:	df 91       	pop	r29
     37c:	cf 91       	pop	r28
     37e:	1f 91       	pop	r17
     380:	0f 91       	pop	r16
     382:	08 95       	ret

00000384 <ks0108StringWidth_P>:
     384:	0f 93       	push	r16
     386:	1f 93       	push	r17
     388:	cf 93       	push	r28
     38a:	df 93       	push	r29
     38c:	ec 01       	movw	r28, r24
     38e:	00 e0       	ldi	r16, 0x00	; 0
     390:	10 e0       	ldi	r17, 0x00	; 0
     392:	06 c0       	rjmp	.+12     	; 0x3a0 <ks0108StringWidth_P+0x1c>
     394:	21 96       	adiw	r28, 0x01	; 1
     396:	f9 01       	movw	r30, r18
     398:	84 91       	lpm	r24, Z+
     39a:	a3 df       	rcall	.-186    	; 0x2e2 <ks0108CharWidth>
     39c:	08 0f       	add	r16, r24
     39e:	11 1d       	adc	r17, r1
     3a0:	9e 01       	movw	r18, r28
     3a2:	fe 01       	movw	r30, r28
     3a4:	84 91       	lpm	r24, Z+
     3a6:	88 23       	and	r24, r24
     3a8:	a9 f7       	brne	.-22     	; 0x394 <ks0108StringWidth_P+0x10>
     3aa:	c8 01       	movw	r24, r16
     3ac:	df 91       	pop	r29
     3ae:	cf 91       	pop	r28
     3b0:	1f 91       	pop	r17
     3b2:	0f 91       	pop	r16
     3b4:	08 95       	ret

000003b6 <ks0108WriteCommand>:
     3b6:	df 93       	push	r29
     3b8:	cf 93       	push	r28
     3ba:	0f 92       	push	r0
     3bc:	cd b7       	in	r28, 0x3d	; 61
     3be:	de b7       	in	r29, 0x3e	; 62
     3c0:	98 2f       	mov	r25, r24
     3c2:	66 23       	and	r22, r22
     3c4:	19 f4       	brne	.+6      	; 0x3cc <ks0108WriteCommand+0x16>
     3c6:	94 98       	cbi	0x12, 4	; 18
     3c8:	93 9a       	sbi	0x12, 3	; 18
     3ca:	04 c0       	rjmp	.+8      	; 0x3d4 <ks0108WriteCommand+0x1e>
     3cc:	61 30       	cpi	r22, 0x01	; 1
     3ce:	11 f4       	brne	.+4      	; 0x3d4 <ks0108WriteCommand+0x1e>
     3d0:	93 98       	cbi	0x12, 3	; 18
     3d2:	94 9a       	sbi	0x12, 4	; 18
     3d4:	90 98       	cbi	0x12, 0	; 18
     3d6:	91 98       	cbi	0x12, 1	; 18
     3d8:	8f ef       	ldi	r24, 0xFF	; 255
     3da:	87 bb       	out	0x17, r24	; 23
     3dc:	98 bb       	out	0x18, r25	; 24
     3de:	92 9a       	sbi	0x12, 2	; 18
     3e0:	00 00       	nop
     3e2:	00 00       	nop
     3e4:	00 00       	nop
     3e6:	92 98       	cbi	0x12, 2	; 18
     3e8:	19 82       	std	Y+1, r1	; 0x01
     3ea:	03 c0       	rjmp	.+6      	; 0x3f2 <ks0108WriteCommand+0x3c>
     3ec:	89 81       	ldd	r24, Y+1	; 0x01
     3ee:	8f 5f       	subi	r24, 0xFF	; 255
     3f0:	89 83       	std	Y+1, r24	; 0x01
     3f2:	89 81       	ldd	r24, Y+1	; 0x01
     3f4:	88 30       	cpi	r24, 0x08	; 8
     3f6:	d0 f3       	brcs	.-12     	; 0x3ec <ks0108WriteCommand+0x36>
     3f8:	18 ba       	out	0x18, r1	; 24
     3fa:	0f 90       	pop	r0
     3fc:	cf 91       	pop	r28
     3fe:	df 91       	pop	r29
     400:	08 95       	ret

00000402 <ks0108GotoXY>:
     402:	1f 93       	push	r17
     404:	87 fd       	sbrc	r24, 7
     406:	80 e0       	ldi	r24, 0x00	; 0
     408:	60 34       	cpi	r22, 0x40	; 64
     40a:	08 f0       	brcs	.+2      	; 0x40e <ks0108GotoXY+0xc>
     40c:	60 e0       	ldi	r22, 0x00	; 0
     40e:	80 93 45 01 	sts	0x0145, r24
     412:	60 93 46 01 	sts	0x0146, r22
     416:	66 95       	lsr	r22
     418:	66 95       	lsr	r22
     41a:	66 95       	lsr	r22
     41c:	60 93 47 01 	sts	0x0147, r22
     420:	80 34       	cpi	r24, 0x40	; 64
     422:	10 f4       	brcc	.+4      	; 0x428 <ks0108GotoXY+0x26>
     424:	60 e0       	ldi	r22, 0x00	; 0
     426:	02 c0       	rjmp	.+4      	; 0x42c <ks0108GotoXY+0x2a>
     428:	80 54       	subi	r24, 0x40	; 64
     42a:	61 e0       	ldi	r22, 0x01	; 1
     42c:	80 64       	ori	r24, 0x40	; 64
     42e:	c3 df       	rcall	.-122    	; 0x3b6 <ks0108WriteCommand>
     430:	10 91 47 01 	lds	r17, 0x0147
     434:	18 6b       	ori	r17, 0xB8	; 184
     436:	81 2f       	mov	r24, r17
     438:	60 e0       	ldi	r22, 0x00	; 0
     43a:	bd df       	rcall	.-134    	; 0x3b6 <ks0108WriteCommand>
     43c:	81 2f       	mov	r24, r17
     43e:	61 e0       	ldi	r22, 0x01	; 1
     440:	ba df       	rcall	.-140    	; 0x3b6 <ks0108WriteCommand>
     442:	1f 91       	pop	r17
     444:	08 95       	ret

00000446 <ks0108DoReadData>:
     446:	1f 93       	push	r17
     448:	df 93       	push	r29
     44a:	cf 93       	push	r28
     44c:	0f 92       	push	r0
     44e:	cd b7       	in	r28, 0x3d	; 61
     450:	de b7       	in	r29, 0x3e	; 62
     452:	18 ba       	out	0x18, r1	; 24
     454:	17 ba       	out	0x17, r1	; 23
     456:	90 91 45 01 	lds	r25, 0x0145
     45a:	90 34       	cpi	r25, 0x40	; 64
     45c:	18 f4       	brcc	.+6      	; 0x464 <__stack+0x5>
     45e:	94 98       	cbi	0x12, 4	; 18
     460:	93 9a       	sbi	0x12, 3	; 18
     462:	02 c0       	rjmp	.+4      	; 0x468 <__stack+0x9>
     464:	93 98       	cbi	0x12, 3	; 18
     466:	94 9a       	sbi	0x12, 4	; 18
     468:	90 34       	cpi	r25, 0x40	; 64
     46a:	29 f4       	brne	.+10     	; 0x476 <__stack+0x17>
     46c:	88 23       	and	r24, r24
     46e:	19 f0       	breq	.+6      	; 0x476 <__stack+0x17>
     470:	80 e4       	ldi	r24, 0x40	; 64
     472:	61 e0       	ldi	r22, 0x01	; 1
     474:	a0 df       	rcall	.-192    	; 0x3b6 <ks0108WriteCommand>
     476:	90 9a       	sbi	0x12, 0	; 18
     478:	91 9a       	sbi	0x12, 1	; 18
     47a:	92 9a       	sbi	0x12, 2	; 18
     47c:	00 00       	nop
     47e:	00 00       	nop
     480:	00 00       	nop
     482:	16 b3       	in	r17, 0x16	; 22
     484:	92 98       	cbi	0x12, 2	; 18
     486:	19 82       	std	Y+1, r1	; 0x01
     488:	03 c0       	rjmp	.+6      	; 0x490 <__stack+0x31>
     48a:	89 81       	ldd	r24, Y+1	; 0x01
     48c:	8f 5f       	subi	r24, 0xFF	; 255
     48e:	89 83       	std	Y+1, r24	; 0x01
     490:	89 81       	ldd	r24, Y+1	; 0x01
     492:	88 30       	cpi	r24, 0x08	; 8
     494:	d0 f3       	brcs	.-12     	; 0x48a <__stack+0x2b>
     496:	8f ef       	ldi	r24, 0xFF	; 255
     498:	87 bb       	out	0x17, r24	; 23
     49a:	80 91 45 01 	lds	r24, 0x0145
     49e:	60 91 46 01 	lds	r22, 0x0146
     4a2:	af df       	rcall	.-162    	; 0x402 <ks0108GotoXY>
     4a4:	80 91 69 00 	lds	r24, 0x0069
     4a8:	81 11       	cpse	r24, r1
     4aa:	10 95       	com	r17
     4ac:	81 2f       	mov	r24, r17
     4ae:	0f 90       	pop	r0
     4b0:	cf 91       	pop	r28
     4b2:	df 91       	pop	r29
     4b4:	1f 91       	pop	r17
     4b6:	08 95       	ret

000004b8 <ks0108WriteData>:
     4b8:	df 92       	push	r13
     4ba:	ef 92       	push	r14
     4bc:	ff 92       	push	r15
     4be:	0f 93       	push	r16
     4c0:	1f 93       	push	r17
     4c2:	df 93       	push	r29
     4c4:	cf 93       	push	r28
     4c6:	0f 92       	push	r0
     4c8:	cd b7       	in	r28, 0x3d	; 61
     4ca:	de b7       	in	r29, 0x3e	; 62
     4cc:	f8 2e       	mov	r15, r24
     4ce:	80 91 45 01 	lds	r24, 0x0145
     4d2:	87 fd       	sbrc	r24, 7
     4d4:	84 c0       	rjmp	.+264    	; 0x5de <ks0108WriteData+0x126>
     4d6:	80 34       	cpi	r24, 0x40	; 64
     4d8:	18 f4       	brcc	.+6      	; 0x4e0 <ks0108WriteData+0x28>
     4da:	94 98       	cbi	0x12, 4	; 18
     4dc:	93 9a       	sbi	0x12, 3	; 18
     4de:	02 c0       	rjmp	.+4      	; 0x4e4 <ks0108WriteData+0x2c>
     4e0:	93 98       	cbi	0x12, 3	; 18
     4e2:	94 9a       	sbi	0x12, 4	; 18
     4e4:	80 34       	cpi	r24, 0x40	; 64
     4e6:	11 f4       	brne	.+4      	; 0x4ec <ks0108WriteData+0x34>
     4e8:	61 e0       	ldi	r22, 0x01	; 1
     4ea:	65 df       	rcall	.-310    	; 0x3b6 <ks0108WriteCommand>
     4ec:	90 9a       	sbi	0x12, 0	; 18
     4ee:	91 98       	cbi	0x12, 1	; 18
     4f0:	0f ef       	ldi	r16, 0xFF	; 255
     4f2:	07 bb       	out	0x17, r16	; 23
     4f4:	10 91 46 01 	lds	r17, 0x0146
     4f8:	17 70       	andi	r17, 0x07	; 7
     4fa:	09 f4       	brne	.+2      	; 0x4fe <ks0108WriteData+0x46>
     4fc:	58 c0       	rjmp	.+176    	; 0x5ae <ks0108WriteData+0xf6>
     4fe:	d2 b2       	in	r13, 0x12	; 18
     500:	81 e0       	ldi	r24, 0x01	; 1
     502:	a1 df       	rcall	.-190    	; 0x446 <ks0108DoReadData>
     504:	80 e0       	ldi	r24, 0x00	; 0
     506:	9f df       	rcall	.-194    	; 0x446 <ks0108DoReadData>
     508:	d2 ba       	out	0x12, r13	; 18
     50a:	07 bb       	out	0x17, r16	; 23
     50c:	ef 2c       	mov	r14, r15
     50e:	ff 24       	eor	r15, r15
     510:	01 2f       	mov	r16, r17
     512:	10 e0       	ldi	r17, 0x00	; 0
     514:	97 01       	movw	r18, r14
     516:	00 2e       	mov	r0, r16
     518:	02 c0       	rjmp	.+4      	; 0x51e <ks0108WriteData+0x66>
     51a:	22 0f       	add	r18, r18
     51c:	33 1f       	adc	r19, r19
     51e:	0a 94       	dec	r0
     520:	e2 f7       	brpl	.-8      	; 0x51a <ks0108WriteData+0x62>
     522:	98 2f       	mov	r25, r24
     524:	92 2b       	or	r25, r18
     526:	80 91 69 00 	lds	r24, 0x0069
     52a:	81 11       	cpse	r24, r1
     52c:	90 95       	com	r25
     52e:	98 bb       	out	0x18, r25	; 24
     530:	92 9a       	sbi	0x12, 2	; 18
     532:	00 00       	nop
     534:	00 00       	nop
     536:	00 00       	nop
     538:	92 98       	cbi	0x12, 2	; 18
     53a:	19 82       	std	Y+1, r1	; 0x01
     53c:	03 c0       	rjmp	.+6      	; 0x544 <ks0108WriteData+0x8c>
     53e:	89 81       	ldd	r24, Y+1	; 0x01
     540:	8f 5f       	subi	r24, 0xFF	; 255
     542:	89 83       	std	Y+1, r24	; 0x01
     544:	89 81       	ldd	r24, Y+1	; 0x01
     546:	88 30       	cpi	r24, 0x08	; 8
     548:	d0 f3       	brcs	.-12     	; 0x53e <ks0108WriteData+0x86>
     54a:	60 91 46 01 	lds	r22, 0x0146
     54e:	68 5f       	subi	r22, 0xF8	; 248
     550:	80 91 45 01 	lds	r24, 0x0145
     554:	56 df       	rcall	.-340    	; 0x402 <ks0108GotoXY>
     556:	81 e0       	ldi	r24, 0x01	; 1
     558:	76 df       	rcall	.-276    	; 0x446 <ks0108DoReadData>
     55a:	80 e0       	ldi	r24, 0x00	; 0
     55c:	74 df       	rcall	.-280    	; 0x446 <ks0108DoReadData>
     55e:	d2 ba       	out	0x12, r13	; 18
     560:	9f ef       	ldi	r25, 0xFF	; 255
     562:	97 bb       	out	0x17, r25	; 23
     564:	28 e0       	ldi	r18, 0x08	; 8
     566:	30 e0       	ldi	r19, 0x00	; 0
     568:	20 1b       	sub	r18, r16
     56a:	31 0b       	sbc	r19, r17
     56c:	02 c0       	rjmp	.+4      	; 0x572 <ks0108WriteData+0xba>
     56e:	f5 94       	asr	r15
     570:	e7 94       	ror	r14
     572:	2a 95       	dec	r18
     574:	e2 f7       	brpl	.-8      	; 0x56e <ks0108WriteData+0xb6>
     576:	28 2f       	mov	r18, r24
     578:	2e 29       	or	r18, r14
     57a:	80 91 69 00 	lds	r24, 0x0069
     57e:	81 11       	cpse	r24, r1
     580:	20 95       	com	r18
     582:	28 bb       	out	0x18, r18	; 24
     584:	92 9a       	sbi	0x12, 2	; 18
     586:	00 00       	nop
     588:	00 00       	nop
     58a:	00 00       	nop
     58c:	92 98       	cbi	0x12, 2	; 18
     58e:	19 82       	std	Y+1, r1	; 0x01
     590:	03 c0       	rjmp	.+6      	; 0x598 <ks0108WriteData+0xe0>
     592:	89 81       	ldd	r24, Y+1	; 0x01
     594:	8f 5f       	subi	r24, 0xFF	; 255
     596:	89 83       	std	Y+1, r24	; 0x01
     598:	89 81       	ldd	r24, Y+1	; 0x01
     59a:	88 30       	cpi	r24, 0x08	; 8
     59c:	d0 f3       	brcs	.-12     	; 0x592 <ks0108WriteData+0xda>
     59e:	80 91 45 01 	lds	r24, 0x0145
     5a2:	60 91 46 01 	lds	r22, 0x0146
     5a6:	68 50       	subi	r22, 0x08	; 8
     5a8:	8f 5f       	subi	r24, 0xFF	; 255
     5aa:	2b df       	rcall	.-426    	; 0x402 <ks0108GotoXY>
     5ac:	17 c0       	rjmp	.+46     	; 0x5dc <ks0108WriteData+0x124>
     5ae:	80 91 69 00 	lds	r24, 0x0069
     5b2:	81 11       	cpse	r24, r1
     5b4:	f0 94       	com	r15
     5b6:	f8 ba       	out	0x18, r15	; 24
     5b8:	92 9a       	sbi	0x12, 2	; 18
     5ba:	00 00       	nop
     5bc:	00 00       	nop
     5be:	00 00       	nop
     5c0:	92 98       	cbi	0x12, 2	; 18
     5c2:	19 82       	std	Y+1, r1	; 0x01
     5c4:	03 c0       	rjmp	.+6      	; 0x5cc <ks0108WriteData+0x114>
     5c6:	89 81       	ldd	r24, Y+1	; 0x01
     5c8:	8f 5f       	subi	r24, 0xFF	; 255
     5ca:	89 83       	std	Y+1, r24	; 0x01
     5cc:	89 81       	ldd	r24, Y+1	; 0x01
     5ce:	88 30       	cpi	r24, 0x08	; 8
     5d0:	d0 f3       	brcs	.-12     	; 0x5c6 <ks0108WriteData+0x10e>
     5d2:	80 91 45 01 	lds	r24, 0x0145
     5d6:	8f 5f       	subi	r24, 0xFF	; 255
     5d8:	80 93 45 01 	sts	0x0145, r24
     5dc:	18 ba       	out	0x18, r1	; 24
     5de:	0f 90       	pop	r0
     5e0:	cf 91       	pop	r28
     5e2:	df 91       	pop	r29
     5e4:	1f 91       	pop	r17
     5e6:	0f 91       	pop	r16
     5e8:	ff 90       	pop	r15
     5ea:	ef 90       	pop	r14
     5ec:	df 90       	pop	r13
     5ee:	08 95       	ret

000005f0 <ks0108PutChar>:
     5f0:	2f 92       	push	r2
     5f2:	3f 92       	push	r3
     5f4:	4f 92       	push	r4
     5f6:	5f 92       	push	r5
     5f8:	6f 92       	push	r6
     5fa:	7f 92       	push	r7
     5fc:	8f 92       	push	r8
     5fe:	9f 92       	push	r9
     600:	af 92       	push	r10
     602:	bf 92       	push	r11
     604:	cf 92       	push	r12
     606:	df 92       	push	r13
     608:	ef 92       	push	r14
     60a:	ff 92       	push	r15
     60c:	0f 93       	push	r16
     60e:	1f 93       	push	r17
     610:	cf 93       	push	r28
     612:	df 93       	push	r29
     614:	08 2f       	mov	r16, r24
     616:	80 91 4a 01 	lds	r24, 0x014A
     61a:	90 91 4b 01 	lds	r25, 0x014B
     61e:	e0 91 48 01 	lds	r30, 0x0148
     622:	f0 91 49 01 	lds	r31, 0x0149
     626:	03 96       	adiw	r24, 0x03	; 3
     628:	09 95       	icall
     62a:	c8 2e       	mov	r12, r24
     62c:	80 91 4a 01 	lds	r24, 0x014A
     630:	90 91 4b 01 	lds	r25, 0x014B
     634:	e0 91 48 01 	lds	r30, 0x0148
     638:	f0 91 49 01 	lds	r31, 0x0149
     63c:	04 96       	adiw	r24, 0x04	; 4
     63e:	09 95       	icall
     640:	18 2f       	mov	r17, r24
     642:	80 91 4a 01 	lds	r24, 0x014A
     646:	90 91 4b 01 	lds	r25, 0x014B
     64a:	e0 91 48 01 	lds	r30, 0x0148
     64e:	f0 91 49 01 	lds	r31, 0x0149
     652:	05 96       	adiw	r24, 0x05	; 5
     654:	09 95       	icall
     656:	d8 2e       	mov	r13, r24
     658:	50 90 45 01 	lds	r5, 0x0145
     65c:	20 90 46 01 	lds	r2, 0x0146
     660:	01 17       	cp	r16, r17
     662:	08 f4       	brcc	.+2      	; 0x666 <ks0108PutChar+0x76>
     664:	9c c0       	rjmp	.+312    	; 0x79e <ks0108PutChar+0x1ae>
     666:	20 2f       	mov	r18, r16
     668:	30 e0       	ldi	r19, 0x00	; 0
     66a:	81 2f       	mov	r24, r17
     66c:	90 e0       	ldi	r25, 0x00	; 0
     66e:	8d 0d       	add	r24, r13
     670:	91 1d       	adc	r25, r1
     672:	28 17       	cp	r18, r24
     674:	39 07       	cpc	r19, r25
     676:	0c f0       	brlt	.+2      	; 0x67a <ks0108PutChar+0x8a>
     678:	92 c0       	rjmp	.+292    	; 0x79e <ks0108PutChar+0x1ae>
     67a:	e0 2e       	mov	r14, r16
     67c:	e1 1a       	sub	r14, r17
     67e:	00 e0       	ldi	r16, 0x00	; 0
     680:	10 e0       	ldi	r17, 0x00	; 0
     682:	ff 24       	eor	r15, r15
     684:	c6 e0       	ldi	r28, 0x06	; 6
     686:	d0 e0       	ldi	r29, 0x00	; 0
     688:	08 c0       	rjmp	.+16     	; 0x69a <ks0108PutChar+0xaa>
     68a:	c9 01       	movw	r24, r18
     68c:	8c 0f       	add	r24, r28
     68e:	9d 1f       	adc	r25, r29
     690:	09 95       	icall
     692:	08 0f       	add	r16, r24
     694:	11 1d       	adc	r17, r1
     696:	f3 94       	inc	r15
     698:	21 96       	adiw	r28, 0x01	; 1
     69a:	20 91 4a 01 	lds	r18, 0x014A
     69e:	30 91 4b 01 	lds	r19, 0x014B
     6a2:	e0 91 48 01 	lds	r30, 0x0148
     6a6:	f0 91 49 01 	lds	r31, 0x0149
     6aa:	fe 14       	cp	r15, r14
     6ac:	70 f3       	brcs	.-36     	; 0x68a <ks0108PutChar+0x9a>
     6ae:	cc 2d       	mov	r28, r12
     6b0:	d0 e0       	ldi	r29, 0x00	; 0
     6b2:	27 96       	adiw	r28, 0x07	; 7
     6b4:	ce 01       	movw	r24, r28
     6b6:	43 e0       	ldi	r20, 0x03	; 3
     6b8:	95 95       	asr	r25
     6ba:	87 95       	ror	r24
     6bc:	4a 95       	dec	r20
     6be:	e1 f7       	brne	.-8      	; 0x6b8 <ks0108PutChar+0xc8>
     6c0:	27 97       	sbiw	r28, 0x07	; 7
     6c2:	38 2e       	mov	r3, r24
     6c4:	ac 01       	movw	r20, r24
     6c6:	40 9f       	mul	r20, r16
     6c8:	c0 01       	movw	r24, r0
     6ca:	41 9f       	mul	r20, r17
     6cc:	90 0d       	add	r25, r0
     6ce:	50 9f       	mul	r21, r16
     6d0:	90 0d       	add	r25, r0
     6d2:	11 24       	eor	r1, r1
     6d4:	cd 2c       	mov	r12, r13
     6d6:	dd 24       	eor	r13, r13
     6d8:	46 e0       	ldi	r20, 0x06	; 6
     6da:	50 e0       	ldi	r21, 0x00	; 0
     6dc:	c4 0e       	add	r12, r20
     6de:	d5 1e       	adc	r13, r21
     6e0:	c8 0e       	add	r12, r24
     6e2:	d9 1e       	adc	r13, r25
     6e4:	8e 2d       	mov	r24, r14
     6e6:	90 e0       	ldi	r25, 0x00	; 0
     6e8:	06 96       	adiw	r24, 0x06	; 6
     6ea:	82 0f       	add	r24, r18
     6ec:	93 1f       	adc	r25, r19
     6ee:	09 95       	icall
     6f0:	68 2e       	mov	r6, r24
     6f2:	98 e0       	ldi	r25, 0x08	; 8
     6f4:	e9 2e       	mov	r14, r25
     6f6:	f1 2c       	mov	r15, r1
     6f8:	ec 1a       	sub	r14, r28
     6fa:	fd 0a       	sbc	r15, r29
     6fc:	77 24       	eor	r7, r7
     6fe:	88 24       	eor	r8, r8
     700:	88 e0       	ldi	r24, 0x08	; 8
     702:	a8 2e       	mov	r10, r24
     704:	b1 2c       	mov	r11, r1
     706:	40 c0       	rjmp	.+128    	; 0x788 <ks0108PutChar+0x198>
     708:	4e 2c       	mov	r4, r14
     70a:	86 01       	movw	r16, r12
     70c:	08 0d       	add	r16, r8
     70e:	11 1d       	adc	r17, r1
     710:	99 24       	eor	r9, r9
     712:	23 c0       	rjmp	.+70     	; 0x75a <ks0108PutChar+0x16a>
     714:	80 91 4a 01 	lds	r24, 0x014A
     718:	90 91 4b 01 	lds	r25, 0x014B
     71c:	e0 91 48 01 	lds	r30, 0x0148
     720:	f0 91 49 01 	lds	r31, 0x0149
     724:	80 0f       	add	r24, r16
     726:	91 1f       	adc	r25, r17
     728:	09 95       	icall
     72a:	98 2f       	mov	r25, r24
     72c:	ca 15       	cp	r28, r10
     72e:	db 05       	cpc	r29, r11
     730:	44 f4       	brge	.+16     	; 0x742 <ks0108PutChar+0x152>
     732:	90 e0       	ldi	r25, 0x00	; 0
     734:	04 2c       	mov	r0, r4
     736:	02 c0       	rjmp	.+4      	; 0x73c <ks0108PutChar+0x14c>
     738:	95 95       	asr	r25
     73a:	87 95       	ror	r24
     73c:	0a 94       	dec	r0
     73e:	e2 f7       	brpl	.-8      	; 0x738 <ks0108PutChar+0x148>
     740:	98 2f       	mov	r25, r24
     742:	80 91 44 01 	lds	r24, 0x0144
     746:	8f 3f       	cpi	r24, 0xFF	; 255
     748:	11 f4       	brne	.+4      	; 0x74e <ks0108PutChar+0x15e>
     74a:	89 2f       	mov	r24, r25
     74c:	02 c0       	rjmp	.+4      	; 0x752 <ks0108PutChar+0x162>
     74e:	89 2f       	mov	r24, r25
     750:	80 95       	com	r24
     752:	b2 de       	rcall	.-668    	; 0x4b8 <ks0108WriteData>
     754:	93 94       	inc	r9
     756:	0f 5f       	subi	r16, 0xFF	; 255
     758:	1f 4f       	sbci	r17, 0xFF	; 255
     75a:	96 14       	cp	r9, r6
     75c:	d8 f2       	brcs	.-74     	; 0x714 <ks0108PutChar+0x124>
     75e:	80 91 44 01 	lds	r24, 0x0144
     762:	8f 3f       	cpi	r24, 0xFF	; 255
     764:	11 f4       	brne	.+4      	; 0x76a <ks0108PutChar+0x17a>
     766:	80 e0       	ldi	r24, 0x00	; 0
     768:	01 c0       	rjmp	.+2      	; 0x76c <ks0108PutChar+0x17c>
     76a:	8f ef       	ldi	r24, 0xFF	; 255
     76c:	a5 de       	rcall	.-694    	; 0x4b8 <ks0108WriteData>
     76e:	60 91 46 01 	lds	r22, 0x0146
     772:	68 5f       	subi	r22, 0xF8	; 248
     774:	85 2d       	mov	r24, r5
     776:	45 de       	rcall	.-886    	; 0x402 <ks0108GotoXY>
     778:	73 94       	inc	r7
     77a:	86 0c       	add	r8, r6
     77c:	88 e0       	ldi	r24, 0x08	; 8
     77e:	90 e0       	ldi	r25, 0x00	; 0
     780:	a8 0e       	add	r10, r24
     782:	b9 1e       	adc	r11, r25
     784:	e8 0e       	add	r14, r24
     786:	f9 1e       	adc	r15, r25
     788:	73 14       	cp	r7, r3
     78a:	08 f4       	brcc	.+2      	; 0x78e <ks0108PutChar+0x19e>
     78c:	bd cf       	rjmp	.-134    	; 0x708 <ks0108PutChar+0x118>
     78e:	53 94       	inc	r5
     790:	85 2d       	mov	r24, r5
     792:	86 0d       	add	r24, r6
     794:	62 2d       	mov	r22, r2
     796:	35 de       	rcall	.-918    	; 0x402 <ks0108GotoXY>
     798:	20 e0       	ldi	r18, 0x00	; 0
     79a:	30 e0       	ldi	r19, 0x00	; 0
     79c:	02 c0       	rjmp	.+4      	; 0x7a2 <ks0108PutChar+0x1b2>
     79e:	21 e0       	ldi	r18, 0x01	; 1
     7a0:	30 e0       	ldi	r19, 0x00	; 0
     7a2:	c9 01       	movw	r24, r18
     7a4:	df 91       	pop	r29
     7a6:	cf 91       	pop	r28
     7a8:	1f 91       	pop	r17
     7aa:	0f 91       	pop	r16
     7ac:	ff 90       	pop	r15
     7ae:	ef 90       	pop	r14
     7b0:	df 90       	pop	r13
     7b2:	cf 90       	pop	r12
     7b4:	bf 90       	pop	r11
     7b6:	af 90       	pop	r10
     7b8:	9f 90       	pop	r9
     7ba:	8f 90       	pop	r8
     7bc:	7f 90       	pop	r7
     7be:	6f 90       	pop	r6
     7c0:	5f 90       	pop	r5
     7c2:	4f 90       	pop	r4
     7c4:	3f 90       	pop	r3
     7c6:	2f 90       	pop	r2
     7c8:	08 95       	ret

000007ca <ks0108Puts_P>:
     7ca:	0f 93       	push	r16
     7cc:	1f 93       	push	r17
     7ce:	cf 93       	push	r28
     7d0:	df 93       	push	r29
     7d2:	ec 01       	movw	r28, r24
     7d4:	00 91 45 01 	lds	r16, 0x0145
     7d8:	15 c0       	rjmp	.+42     	; 0x804 <ks0108Puts_P+0x3a>
     7da:	8a 30       	cpi	r24, 0x0A	; 10
     7dc:	89 f4       	brne	.+34     	; 0x800 <ks0108Puts_P+0x36>
     7de:	10 91 46 01 	lds	r17, 0x0146
     7e2:	80 91 4a 01 	lds	r24, 0x014A
     7e6:	90 91 4b 01 	lds	r25, 0x014B
     7ea:	e0 91 48 01 	lds	r30, 0x0148
     7ee:	f0 91 49 01 	lds	r31, 0x0149
     7f2:	03 96       	adiw	r24, 0x03	; 3
     7f4:	09 95       	icall
     7f6:	18 0f       	add	r17, r24
     7f8:	80 2f       	mov	r24, r16
     7fa:	61 2f       	mov	r22, r17
     7fc:	02 de       	rcall	.-1020   	; 0x402 <ks0108GotoXY>
     7fe:	01 c0       	rjmp	.+2      	; 0x802 <ks0108Puts_P+0x38>
     800:	f7 de       	rcall	.-530    	; 0x5f0 <ks0108PutChar>
     802:	21 96       	adiw	r28, 0x01	; 1
     804:	fe 01       	movw	r30, r28
     806:	84 91       	lpm	r24, Z+
     808:	88 23       	and	r24, r24
     80a:	39 f7       	brne	.-50     	; 0x7da <ks0108Puts_P+0x10>
     80c:	df 91       	pop	r29
     80e:	cf 91       	pop	r28
     810:	1f 91       	pop	r17
     812:	0f 91       	pop	r16
     814:	08 95       	ret

00000816 <ks0108Puts>:
     816:	0f 93       	push	r16
     818:	1f 93       	push	r17
     81a:	cf 93       	push	r28
     81c:	df 93       	push	r29
     81e:	ec 01       	movw	r28, r24
     820:	00 91 45 01 	lds	r16, 0x0145
     824:	15 c0       	rjmp	.+42     	; 0x850 <ks0108Puts+0x3a>
     826:	8a 30       	cpi	r24, 0x0A	; 10
     828:	89 f4       	brne	.+34     	; 0x84c <ks0108Puts+0x36>
     82a:	10 91 46 01 	lds	r17, 0x0146
     82e:	80 91 4a 01 	lds	r24, 0x014A
     832:	90 91 4b 01 	lds	r25, 0x014B
     836:	e0 91 48 01 	lds	r30, 0x0148
     83a:	f0 91 49 01 	lds	r31, 0x0149
     83e:	03 96       	adiw	r24, 0x03	; 3
     840:	09 95       	icall
     842:	18 0f       	add	r17, r24
     844:	80 2f       	mov	r24, r16
     846:	61 2f       	mov	r22, r17
     848:	dc dd       	rcall	.-1096   	; 0x402 <ks0108GotoXY>
     84a:	01 c0       	rjmp	.+2      	; 0x84e <ks0108Puts+0x38>
     84c:	d1 de       	rcall	.-606    	; 0x5f0 <ks0108PutChar>
     84e:	21 96       	adiw	r28, 0x01	; 1
     850:	88 81       	ld	r24, Y
     852:	88 23       	and	r24, r24
     854:	41 f7       	brne	.-48     	; 0x826 <ks0108Puts+0x10>
     856:	df 91       	pop	r29
     858:	cf 91       	pop	r28
     85a:	1f 91       	pop	r17
     85c:	0f 91       	pop	r16
     85e:	08 95       	ret

00000860 <ks0108SetDot>:
     860:	0f 93       	push	r16
     862:	1f 93       	push	r17
     864:	16 2f       	mov	r17, r22
     866:	04 2f       	mov	r16, r20
     868:	68 7f       	andi	r22, 0xF8	; 248
     86a:	cb dd       	rcall	.-1130   	; 0x402 <ks0108GotoXY>
     86c:	81 e0       	ldi	r24, 0x01	; 1
     86e:	eb dd       	rcall	.-1066   	; 0x446 <ks0108DoReadData>
     870:	80 e0       	ldi	r24, 0x00	; 0
     872:	e9 dd       	rcall	.-1070   	; 0x446 <ks0108DoReadData>
     874:	48 2f       	mov	r20, r24
     876:	21 2f       	mov	r18, r17
     878:	30 e0       	ldi	r19, 0x00	; 0
     87a:	0f 3f       	cpi	r16, 0xFF	; 255
     87c:	59 f4       	brne	.+22     	; 0x894 <ks0108SetDot+0x34>
     87e:	27 70       	andi	r18, 0x07	; 7
     880:	30 70       	andi	r19, 0x00	; 0
     882:	81 e0       	ldi	r24, 0x01	; 1
     884:	90 e0       	ldi	r25, 0x00	; 0
     886:	02 c0       	rjmp	.+4      	; 0x88c <ks0108SetDot+0x2c>
     888:	88 0f       	add	r24, r24
     88a:	99 1f       	adc	r25, r25
     88c:	2a 95       	dec	r18
     88e:	e2 f7       	brpl	.-8      	; 0x888 <ks0108SetDot+0x28>
     890:	84 2b       	or	r24, r20
     892:	0b c0       	rjmp	.+22     	; 0x8aa <ks0108SetDot+0x4a>
     894:	27 70       	andi	r18, 0x07	; 7
     896:	30 70       	andi	r19, 0x00	; 0
     898:	81 e0       	ldi	r24, 0x01	; 1
     89a:	90 e0       	ldi	r25, 0x00	; 0
     89c:	02 c0       	rjmp	.+4      	; 0x8a2 <ks0108SetDot+0x42>
     89e:	88 0f       	add	r24, r24
     8a0:	99 1f       	adc	r25, r25
     8a2:	2a 95       	dec	r18
     8a4:	e2 f7       	brpl	.-8      	; 0x89e <ks0108SetDot+0x3e>
     8a6:	80 95       	com	r24
     8a8:	84 23       	and	r24, r20
     8aa:	06 de       	rcall	.-1012   	; 0x4b8 <ks0108WriteData>
     8ac:	1f 91       	pop	r17
     8ae:	0f 91       	pop	r16
     8b0:	08 95       	ret

000008b2 <ks0108InvertRect>:
     8b2:	af 92       	push	r10
     8b4:	bf 92       	push	r11
     8b6:	cf 92       	push	r12
     8b8:	df 92       	push	r13
     8ba:	ef 92       	push	r14
     8bc:	ff 92       	push	r15
     8be:	0f 93       	push	r16
     8c0:	1f 93       	push	r17
     8c2:	cf 93       	push	r28
     8c4:	df 93       	push	r29
     8c6:	b8 2e       	mov	r11, r24
     8c8:	a4 2e       	mov	r10, r20
     8ca:	e2 2e       	mov	r14, r18
     8cc:	e3 94       	inc	r14
     8ce:	46 2f       	mov	r20, r22
     8d0:	47 70       	andi	r20, 0x07	; 7
     8d2:	f6 2e       	mov	r15, r22
     8d4:	f4 1a       	sub	r15, r20
     8d6:	ce 2d       	mov	r28, r14
     8d8:	d0 e0       	ldi	r29, 0x00	; 0
     8da:	64 2f       	mov	r22, r20
     8dc:	70 e0       	ldi	r23, 0x00	; 0
     8de:	28 e0       	ldi	r18, 0x08	; 8
     8e0:	30 e0       	ldi	r19, 0x00	; 0
     8e2:	c9 01       	movw	r24, r18
     8e4:	86 1b       	sub	r24, r22
     8e6:	97 0b       	sbc	r25, r23
     8e8:	c8 17       	cp	r28, r24
     8ea:	d9 07       	cpc	r29, r25
     8ec:	5c f4       	brge	.+22     	; 0x904 <ks0108InvertRect+0x52>
     8ee:	2c 1b       	sub	r18, r28
     8f0:	3d 0b       	sbc	r19, r29
     8f2:	8f ef       	ldi	r24, 0xFF	; 255
     8f4:	90 e0       	ldi	r25, 0x00	; 0
     8f6:	02 c0       	rjmp	.+4      	; 0x8fc <ks0108InvertRect+0x4a>
     8f8:	95 95       	asr	r25
     8fa:	87 95       	ror	r24
     8fc:	2a 95       	dec	r18
     8fe:	e2 f7       	brpl	.-8      	; 0x8f8 <ks0108InvertRect+0x46>
     900:	0e 2d       	mov	r16, r14
     902:	03 c0       	rjmp	.+6      	; 0x90a <ks0108InvertRect+0x58>
     904:	08 e0       	ldi	r16, 0x08	; 8
     906:	04 1b       	sub	r16, r20
     908:	8f ef       	ldi	r24, 0xFF	; 255
     90a:	90 e0       	ldi	r25, 0x00	; 0
     90c:	02 c0       	rjmp	.+4      	; 0x912 <ks0108InvertRect+0x60>
     90e:	88 0f       	add	r24, r24
     910:	99 1f       	adc	r25, r25
     912:	6a 95       	dec	r22
     914:	e2 f7       	brpl	.-8      	; 0x90e <ks0108InvertRect+0x5c>
     916:	d8 2e       	mov	r13, r24
     918:	8b 2d       	mov	r24, r11
     91a:	6f 2d       	mov	r22, r15
     91c:	72 dd       	rcall	.-1308   	; 0x402 <ks0108GotoXY>
     91e:	10 e0       	ldi	r17, 0x00	; 0
     920:	cd 2c       	mov	r12, r13
     922:	c0 94       	com	r12
     924:	81 e0       	ldi	r24, 0x01	; 1
     926:	8f dd       	rcall	.-1250   	; 0x446 <ks0108DoReadData>
     928:	80 e0       	ldi	r24, 0x00	; 0
     92a:	8d dd       	rcall	.-1254   	; 0x446 <ks0108DoReadData>
     92c:	98 2f       	mov	r25, r24
     92e:	8c 2d       	mov	r24, r12
     930:	89 23       	and	r24, r25
     932:	90 95       	com	r25
     934:	9d 21       	and	r25, r13
     936:	89 2b       	or	r24, r25
     938:	bf dd       	rcall	.-1154   	; 0x4b8 <ks0108WriteData>
     93a:	1f 5f       	subi	r17, 0xFF	; 255
     93c:	a1 16       	cp	r10, r17
     93e:	90 f7       	brcc	.-28     	; 0x924 <ks0108InvertRect+0x72>
     940:	10 c0       	rjmp	.+32     	; 0x962 <ks0108InvertRect+0xb0>
     942:	88 e0       	ldi	r24, 0x08	; 8
     944:	f8 0e       	add	r15, r24
     946:	8b 2d       	mov	r24, r11
     948:	6f 2d       	mov	r22, r15
     94a:	5b dd       	rcall	.-1354   	; 0x402 <ks0108GotoXY>
     94c:	10 e0       	ldi	r17, 0x00	; 0
     94e:	81 e0       	ldi	r24, 0x01	; 1
     950:	7a dd       	rcall	.-1292   	; 0x446 <ks0108DoReadData>
     952:	80 e0       	ldi	r24, 0x00	; 0
     954:	78 dd       	rcall	.-1296   	; 0x446 <ks0108DoReadData>
     956:	80 95       	com	r24
     958:	af dd       	rcall	.-1186   	; 0x4b8 <ks0108WriteData>
     95a:	1f 5f       	subi	r17, 0xFF	; 255
     95c:	a1 16       	cp	r10, r17
     95e:	b8 f7       	brcc	.-18     	; 0x94e <ks0108InvertRect+0x9c>
     960:	08 5f       	subi	r16, 0xF8	; 248
     962:	20 2f       	mov	r18, r16
     964:	30 e0       	ldi	r19, 0x00	; 0
     966:	c9 01       	movw	r24, r18
     968:	07 96       	adiw	r24, 0x07	; 7
     96a:	8c 17       	cp	r24, r28
     96c:	9d 07       	cpc	r25, r29
     96e:	4c f3       	brlt	.-46     	; 0x942 <ks0108InvertRect+0x90>
     970:	0e 15       	cp	r16, r14
     972:	08 f5       	brcc	.+66     	; 0x9b6 <ks0108InvertRect+0x104>
     974:	c2 1b       	sub	r28, r18
     976:	d3 0b       	sbc	r29, r19
     978:	8f ef       	ldi	r24, 0xFF	; 255
     97a:	90 e0       	ldi	r25, 0x00	; 0
     97c:	02 c0       	rjmp	.+4      	; 0x982 <ks0108InvertRect+0xd0>
     97e:	88 0f       	add	r24, r24
     980:	99 1f       	adc	r25, r25
     982:	ca 95       	dec	r28
     984:	e2 f7       	brpl	.-8      	; 0x97e <ks0108InvertRect+0xcc>
     986:	08 2f       	mov	r16, r24
     988:	00 95       	com	r16
     98a:	88 e0       	ldi	r24, 0x08	; 8
     98c:	f8 0e       	add	r15, r24
     98e:	8b 2d       	mov	r24, r11
     990:	6f 2d       	mov	r22, r15
     992:	37 dd       	rcall	.-1426   	; 0x402 <ks0108GotoXY>
     994:	10 e0       	ldi	r17, 0x00	; 0
     996:	f0 2e       	mov	r15, r16
     998:	f0 94       	com	r15
     99a:	81 e0       	ldi	r24, 0x01	; 1
     99c:	54 dd       	rcall	.-1368   	; 0x446 <ks0108DoReadData>
     99e:	80 e0       	ldi	r24, 0x00	; 0
     9a0:	52 dd       	rcall	.-1372   	; 0x446 <ks0108DoReadData>
     9a2:	98 2f       	mov	r25, r24
     9a4:	8f 2d       	mov	r24, r15
     9a6:	89 23       	and	r24, r25
     9a8:	90 95       	com	r25
     9aa:	90 23       	and	r25, r16
     9ac:	89 2b       	or	r24, r25
     9ae:	84 dd       	rcall	.-1272   	; 0x4b8 <ks0108WriteData>
     9b0:	1f 5f       	subi	r17, 0xFF	; 255
     9b2:	a1 16       	cp	r10, r17
     9b4:	90 f7       	brcc	.-28     	; 0x99a <ks0108InvertRect+0xe8>
     9b6:	df 91       	pop	r29
     9b8:	cf 91       	pop	r28
     9ba:	1f 91       	pop	r17
     9bc:	0f 91       	pop	r16
     9be:	ff 90       	pop	r15
     9c0:	ef 90       	pop	r14
     9c2:	df 90       	pop	r13
     9c4:	cf 90       	pop	r12
     9c6:	bf 90       	pop	r11
     9c8:	af 90       	pop	r10
     9ca:	08 95       	ret

000009cc <ks0108SetInverted>:
     9cc:	1f 93       	push	r17
     9ce:	18 2f       	mov	r17, r24
     9d0:	80 91 69 00 	lds	r24, 0x0069
     9d4:	81 17       	cp	r24, r17
     9d6:	39 f0       	breq	.+14     	; 0x9e6 <ks0108SetInverted+0x1a>
     9d8:	80 e0       	ldi	r24, 0x00	; 0
     9da:	60 e0       	ldi	r22, 0x00	; 0
     9dc:	4f e7       	ldi	r20, 0x7F	; 127
     9de:	2f e3       	ldi	r18, 0x3F	; 63
     9e0:	68 df       	rcall	.-304    	; 0x8b2 <ks0108InvertRect>
     9e2:	10 93 69 00 	sts	0x0069, r17
     9e6:	1f 91       	pop	r17
     9e8:	08 95       	ret

000009ea <ks0108FillRect>:
     9ea:	9f 92       	push	r9
     9ec:	af 92       	push	r10
     9ee:	bf 92       	push	r11
     9f0:	cf 92       	push	r12
     9f2:	df 92       	push	r13
     9f4:	ef 92       	push	r14
     9f6:	ff 92       	push	r15
     9f8:	0f 93       	push	r16
     9fa:	1f 93       	push	r17
     9fc:	cf 93       	push	r28
     9fe:	df 93       	push	r29
     a00:	b8 2e       	mov	r11, r24
     a02:	94 2e       	mov	r9, r20
     a04:	e2 2e       	mov	r14, r18
     a06:	a0 2e       	mov	r10, r16
     a08:	e3 94       	inc	r14
     a0a:	46 2f       	mov	r20, r22
     a0c:	47 70       	andi	r20, 0x07	; 7
     a0e:	f6 2e       	mov	r15, r22
     a10:	f4 1a       	sub	r15, r20
     a12:	ce 2d       	mov	r28, r14
     a14:	d0 e0       	ldi	r29, 0x00	; 0
     a16:	64 2f       	mov	r22, r20
     a18:	70 e0       	ldi	r23, 0x00	; 0
     a1a:	28 e0       	ldi	r18, 0x08	; 8
     a1c:	30 e0       	ldi	r19, 0x00	; 0
     a1e:	c9 01       	movw	r24, r18
     a20:	86 1b       	sub	r24, r22
     a22:	97 0b       	sbc	r25, r23
     a24:	c8 17       	cp	r28, r24
     a26:	d9 07       	cpc	r29, r25
     a28:	5c f4       	brge	.+22     	; 0xa40 <ks0108FillRect+0x56>
     a2a:	2c 1b       	sub	r18, r28
     a2c:	3d 0b       	sbc	r19, r29
     a2e:	8f ef       	ldi	r24, 0xFF	; 255
     a30:	90 e0       	ldi	r25, 0x00	; 0
     a32:	02 c0       	rjmp	.+4      	; 0xa38 <ks0108FillRect+0x4e>
     a34:	95 95       	asr	r25
     a36:	87 95       	ror	r24
     a38:	2a 95       	dec	r18
     a3a:	e2 f7       	brpl	.-8      	; 0xa34 <ks0108FillRect+0x4a>
     a3c:	0e 2d       	mov	r16, r14
     a3e:	03 c0       	rjmp	.+6      	; 0xa46 <ks0108FillRect+0x5c>
     a40:	08 e0       	ldi	r16, 0x08	; 8
     a42:	04 1b       	sub	r16, r20
     a44:	8f ef       	ldi	r24, 0xFF	; 255
     a46:	90 e0       	ldi	r25, 0x00	; 0
     a48:	02 c0       	rjmp	.+4      	; 0xa4e <ks0108FillRect+0x64>
     a4a:	88 0f       	add	r24, r24
     a4c:	99 1f       	adc	r25, r25
     a4e:	6a 95       	dec	r22
     a50:	e2 f7       	brpl	.-8      	; 0xa4a <ks0108FillRect+0x60>
     a52:	d8 2e       	mov	r13, r24
     a54:	8b 2d       	mov	r24, r11
     a56:	6f 2d       	mov	r22, r15
     a58:	d4 dc       	rcall	.-1624   	; 0x402 <ks0108GotoXY>
     a5a:	10 e0       	ldi	r17, 0x00	; 0
     a5c:	cd 2c       	mov	r12, r13
     a5e:	c0 94       	com	r12
     a60:	81 e0       	ldi	r24, 0x01	; 1
     a62:	f1 dc       	rcall	.-1566   	; 0x446 <ks0108DoReadData>
     a64:	80 e0       	ldi	r24, 0x00	; 0
     a66:	ef dc       	rcall	.-1570   	; 0x446 <ks0108DoReadData>
     a68:	9f ef       	ldi	r25, 0xFF	; 255
     a6a:	a9 16       	cp	r10, r25
     a6c:	11 f4       	brne	.+4      	; 0xa72 <ks0108FillRect+0x88>
     a6e:	8d 29       	or	r24, r13
     a70:	01 c0       	rjmp	.+2      	; 0xa74 <ks0108FillRect+0x8a>
     a72:	8c 21       	and	r24, r12
     a74:	21 dd       	rcall	.-1470   	; 0x4b8 <ks0108WriteData>
     a76:	1f 5f       	subi	r17, 0xFF	; 255
     a78:	91 16       	cp	r9, r17
     a7a:	90 f7       	brcc	.-28     	; 0xa60 <ks0108FillRect+0x76>
     a7c:	0c c0       	rjmp	.+24     	; 0xa96 <ks0108FillRect+0xac>
     a7e:	88 e0       	ldi	r24, 0x08	; 8
     a80:	f8 0e       	add	r15, r24
     a82:	8b 2d       	mov	r24, r11
     a84:	6f 2d       	mov	r22, r15
     a86:	bd dc       	rcall	.-1670   	; 0x402 <ks0108GotoXY>
     a88:	10 e0       	ldi	r17, 0x00	; 0
     a8a:	8a 2d       	mov	r24, r10
     a8c:	15 dd       	rcall	.-1494   	; 0x4b8 <ks0108WriteData>
     a8e:	1f 5f       	subi	r17, 0xFF	; 255
     a90:	91 16       	cp	r9, r17
     a92:	d8 f7       	brcc	.-10     	; 0xa8a <ks0108FillRect+0xa0>
     a94:	08 5f       	subi	r16, 0xF8	; 248
     a96:	20 2f       	mov	r18, r16
     a98:	30 e0       	ldi	r19, 0x00	; 0
     a9a:	c9 01       	movw	r24, r18
     a9c:	07 96       	adiw	r24, 0x07	; 7
     a9e:	8c 17       	cp	r24, r28
     aa0:	9d 07       	cpc	r25, r29
     aa2:	6c f3       	brlt	.-38     	; 0xa7e <ks0108FillRect+0x94>
     aa4:	0e 15       	cp	r16, r14
     aa6:	08 f5       	brcc	.+66     	; 0xaea <ks0108FillRect+0x100>
     aa8:	c2 1b       	sub	r28, r18
     aaa:	d3 0b       	sbc	r29, r19
     aac:	8f ef       	ldi	r24, 0xFF	; 255
     aae:	90 e0       	ldi	r25, 0x00	; 0
     ab0:	02 c0       	rjmp	.+4      	; 0xab6 <ks0108FillRect+0xcc>
     ab2:	88 0f       	add	r24, r24
     ab4:	99 1f       	adc	r25, r25
     ab6:	ca 95       	dec	r28
     ab8:	e2 f7       	brpl	.-8      	; 0xab2 <ks0108FillRect+0xc8>
     aba:	e8 2e       	mov	r14, r24
     abc:	e0 94       	com	r14
     abe:	98 e0       	ldi	r25, 0x08	; 8
     ac0:	f9 0e       	add	r15, r25
     ac2:	8b 2d       	mov	r24, r11
     ac4:	6f 2d       	mov	r22, r15
     ac6:	9d dc       	rcall	.-1734   	; 0x402 <ks0108GotoXY>
     ac8:	10 e0       	ldi	r17, 0x00	; 0
     aca:	fe 2c       	mov	r15, r14
     acc:	f0 94       	com	r15
     ace:	81 e0       	ldi	r24, 0x01	; 1
     ad0:	ba dc       	rcall	.-1676   	; 0x446 <ks0108DoReadData>
     ad2:	80 e0       	ldi	r24, 0x00	; 0
     ad4:	b8 dc       	rcall	.-1680   	; 0x446 <ks0108DoReadData>
     ad6:	9f ef       	ldi	r25, 0xFF	; 255
     ad8:	a9 16       	cp	r10, r25
     ada:	11 f4       	brne	.+4      	; 0xae0 <ks0108FillRect+0xf6>
     adc:	8e 29       	or	r24, r14
     ade:	01 c0       	rjmp	.+2      	; 0xae2 <ks0108FillRect+0xf8>
     ae0:	8f 21       	and	r24, r15
     ae2:	ea dc       	rcall	.-1580   	; 0x4b8 <ks0108WriteData>
     ae4:	1f 5f       	subi	r17, 0xFF	; 255
     ae6:	91 16       	cp	r9, r17
     ae8:	90 f7       	brcc	.-28     	; 0xace <ks0108FillRect+0xe4>
     aea:	df 91       	pop	r29
     aec:	cf 91       	pop	r28
     aee:	1f 91       	pop	r17
     af0:	0f 91       	pop	r16
     af2:	ff 90       	pop	r15
     af4:	ef 90       	pop	r14
     af6:	df 90       	pop	r13
     af8:	cf 90       	pop	r12
     afa:	bf 90       	pop	r11
     afc:	af 90       	pop	r10
     afe:	9f 90       	pop	r9
     b00:	08 95       	ret

00000b02 <ks0108Init>:
     b02:	0f 93       	push	r16
     b04:	10 92 45 01 	sts	0x0145, r1
     b08:	10 92 46 01 	sts	0x0146, r1
     b0c:	10 92 47 01 	sts	0x0147, r1
     b10:	80 93 69 00 	sts	0x0069, r24
     b14:	8f ef       	ldi	r24, 0xFF	; 255
     b16:	81 bb       	out	0x11, r24	; 17
     b18:	8f e3       	ldi	r24, 0x3F	; 63
     b1a:	60 e0       	ldi	r22, 0x00	; 0
     b1c:	4c dc       	rcall	.-1896   	; 0x3b6 <ks0108WriteCommand>
     b1e:	8f e3       	ldi	r24, 0x3F	; 63
     b20:	61 e0       	ldi	r22, 0x01	; 1
     b22:	49 dc       	rcall	.-1902   	; 0x3b6 <ks0108WriteCommand>
     b24:	80 ec       	ldi	r24, 0xC0	; 192
     b26:	60 e0       	ldi	r22, 0x00	; 0
     b28:	46 dc       	rcall	.-1908   	; 0x3b6 <ks0108WriteCommand>
     b2a:	80 ec       	ldi	r24, 0xC0	; 192
     b2c:	61 e0       	ldi	r22, 0x01	; 1
     b2e:	43 dc       	rcall	.-1914   	; 0x3b6 <ks0108WriteCommand>
     b30:	80 e0       	ldi	r24, 0x00	; 0
     b32:	60 e0       	ldi	r22, 0x00	; 0
     b34:	4f e7       	ldi	r20, 0x7F	; 127
     b36:	2f e3       	ldi	r18, 0x3F	; 63
     b38:	00 e0       	ldi	r16, 0x00	; 0
     b3a:	57 df       	rcall	.-338    	; 0x9ea <ks0108FillRect>
     b3c:	80 e0       	ldi	r24, 0x00	; 0
     b3e:	60 e0       	ldi	r22, 0x00	; 0
     b40:	60 dc       	rcall	.-1856   	; 0x402 <ks0108GotoXY>
     b42:	0f 91       	pop	r16
     b44:	08 95       	ret

00000b46 <ks0108DrawRoundRect>:
     b46:	2f 92       	push	r2
     b48:	3f 92       	push	r3
     b4a:	4f 92       	push	r4
     b4c:	5f 92       	push	r5
     b4e:	6f 92       	push	r6
     b50:	7f 92       	push	r7
     b52:	8f 92       	push	r8
     b54:	9f 92       	push	r9
     b56:	af 92       	push	r10
     b58:	bf 92       	push	r11
     b5a:	cf 92       	push	r12
     b5c:	df 92       	push	r13
     b5e:	ef 92       	push	r14
     b60:	ff 92       	push	r15
     b62:	0f 93       	push	r16
     b64:	1f 93       	push	r17
     b66:	df 93       	push	r29
     b68:	cf 93       	push	r28
     b6a:	cd b7       	in	r28, 0x3d	; 61
     b6c:	de b7       	in	r29, 0x3e	; 62
     b6e:	2c 97       	sbiw	r28, 0x0c	; 12
     b70:	0f b6       	in	r0, 0x3f	; 63
     b72:	f8 94       	cli
     b74:	de bf       	out	0x3e, r29	; 62
     b76:	0f be       	out	0x3f, r0	; 63
     b78:	cd bf       	out	0x3d, r28	; 61
     b7a:	8f 83       	std	Y+7, r24	; 0x07
     b7c:	68 87       	std	Y+8, r22	; 0x08
     b7e:	49 87       	std	Y+9, r20	; 0x09
     b80:	2a 87       	std	Y+10, r18	; 0x0a
     b82:	c0 2e       	mov	r12, r16
     b84:	dd 24       	eor	r13, r13
     b86:	c6 01       	movw	r24, r12
     b88:	88 0f       	add	r24, r24
     b8a:	99 1f       	adc	r25, r25
     b8c:	22 27       	eor	r18, r18
     b8e:	33 27       	eor	r19, r19
     b90:	28 1b       	sub	r18, r24
     b92:	39 0b       	sbc	r19, r25
     b94:	3e 83       	std	Y+6, r19	; 0x06
     b96:	2d 83       	std	Y+5, r18	; 0x05
     b98:	2d 5f       	subi	r18, 0xFD	; 253
     b9a:	3f 4f       	sbci	r19, 0xFF	; 255
     b9c:	3c 87       	std	Y+12, r19	; 0x0c
     b9e:	2b 87       	std	Y+11, r18	; 0x0b
     ba0:	3f 80       	ldd	r3, Y+7	; 0x07
     ba2:	30 0e       	add	r3, r16
     ba4:	26 2e       	mov	r2, r22
     ba6:	20 0e       	add	r2, r16
     ba8:	34 2f       	mov	r19, r20
     baa:	8f 81       	ldd	r24, Y+7	; 0x07
     bac:	38 0f       	add	r19, r24
     bae:	3b 83       	std	Y+3, r19	; 0x03
     bb0:	30 1b       	sub	r19, r16
     bb2:	3c 83       	std	Y+4, r19	; 0x04
     bb4:	9a 85       	ldd	r25, Y+10	; 0x0a
     bb6:	96 0f       	add	r25, r22
     bb8:	99 83       	std	Y+1, r25	; 0x01
     bba:	90 1b       	sub	r25, r16
     bbc:	9a 83       	std	Y+2, r25	; 0x02
     bbe:	43 2c       	mov	r4, r3
     bc0:	52 2c       	mov	r5, r2
     bc2:	63 2e       	mov	r6, r19
     bc4:	79 2e       	mov	r7, r25
     bc6:	aa 24       	eor	r10, r10
     bc8:	bb 24       	eor	r11, r11
     bca:	88 24       	eor	r8, r8
     bcc:	99 24       	eor	r9, r9
     bce:	1c 2d       	mov	r17, r12
     bd0:	02 2d       	mov	r16, r2
     bd2:	0c 19       	sub	r16, r12
     bd4:	84 2d       	mov	r24, r4
     bd6:	60 2f       	mov	r22, r16
     bd8:	4e 2d       	mov	r20, r14
     bda:	42 de       	rcall	.-892    	; 0x860 <ks0108SetDot>
     bdc:	f3 2c       	mov	r15, r3
     bde:	fc 18       	sub	r15, r12
     be0:	8f 2d       	mov	r24, r15
     be2:	65 2d       	mov	r22, r5
     be4:	4e 2d       	mov	r20, r14
     be6:	3c de       	rcall	.-904    	; 0x860 <ks0108SetDot>
     be8:	86 2d       	mov	r24, r6
     bea:	60 2f       	mov	r22, r16
     bec:	4e 2d       	mov	r20, r14
     bee:	38 de       	rcall	.-912    	; 0x860 <ks0108SetDot>
     bf0:	0c 81       	ldd	r16, Y+4	; 0x04
     bf2:	0c 0d       	add	r16, r12
     bf4:	80 2f       	mov	r24, r16
     bf6:	65 2d       	mov	r22, r5
     bf8:	4e 2d       	mov	r20, r14
     bfa:	32 de       	rcall	.-924    	; 0x860 <ks0108SetDot>
     bfc:	fa 81       	ldd	r31, Y+2	; 0x02
     bfe:	1f 0f       	add	r17, r31
     c00:	86 2d       	mov	r24, r6
     c02:	61 2f       	mov	r22, r17
     c04:	4e 2d       	mov	r20, r14
     c06:	2c de       	rcall	.-936    	; 0x860 <ks0108SetDot>
     c08:	80 2f       	mov	r24, r16
     c0a:	67 2d       	mov	r22, r7
     c0c:	4e 2d       	mov	r20, r14
     c0e:	28 de       	rcall	.-944    	; 0x860 <ks0108SetDot>
     c10:	84 2d       	mov	r24, r4
     c12:	61 2f       	mov	r22, r17
     c14:	4e 2d       	mov	r20, r14
     c16:	24 de       	rcall	.-952    	; 0x860 <ks0108SetDot>
     c18:	8f 2d       	mov	r24, r15
     c1a:	67 2d       	mov	r22, r7
     c1c:	4e 2d       	mov	r20, r14
     c1e:	20 de       	rcall	.-960    	; 0x860 <ks0108SetDot>
     c20:	2b 85       	ldd	r18, Y+11	; 0x0b
     c22:	3c 85       	ldd	r19, Y+12	; 0x0c
     c24:	37 ff       	sbrs	r19, 7
     c26:	07 c0       	rjmp	.+14     	; 0xc36 <ks0108DrawRoundRect+0xf0>
     c28:	2a 5f       	subi	r18, 0xFA	; 250
     c2a:	3f 4f       	sbci	r19, 0xFF	; 255
     c2c:	28 0d       	add	r18, r8
     c2e:	39 1d       	adc	r19, r9
     c30:	3c 87       	std	Y+12, r19	; 0x0c
     c32:	2b 87       	std	Y+11, r18	; 0x0b
     c34:	15 c0       	rjmp	.+42     	; 0xc60 <ks0108DrawRoundRect+0x11a>
     c36:	8b 85       	ldd	r24, Y+11	; 0x0b
     c38:	9c 85       	ldd	r25, Y+12	; 0x0c
     c3a:	0a 96       	adiw	r24, 0x0a	; 10
     c3c:	9c 87       	std	Y+12, r25	; 0x0c
     c3e:	8b 87       	std	Y+11, r24	; 0x0b
     c40:	c5 01       	movw	r24, r10
     c42:	8c 19       	sub	r24, r12
     c44:	9d 09       	sbc	r25, r13
     c46:	88 0f       	add	r24, r24
     c48:	99 1f       	adc	r25, r25
     c4a:	88 0f       	add	r24, r24
     c4c:	99 1f       	adc	r25, r25
     c4e:	eb 85       	ldd	r30, Y+11	; 0x0b
     c50:	fc 85       	ldd	r31, Y+12	; 0x0c
     c52:	e8 0f       	add	r30, r24
     c54:	f9 1f       	adc	r31, r25
     c56:	fc 87       	std	Y+12, r31	; 0x0c
     c58:	eb 87       	std	Y+11, r30	; 0x0b
     c5a:	08 94       	sec
     c5c:	c1 08       	sbc	r12, r1
     c5e:	d1 08       	sbc	r13, r1
     c60:	08 94       	sec
     c62:	a1 1c       	adc	r10, r1
     c64:	b1 1c       	adc	r11, r1
     c66:	4a 94       	dec	r4
     c68:	5a 94       	dec	r5
     c6a:	63 94       	inc	r6
     c6c:	73 94       	inc	r7
     c6e:	24 e0       	ldi	r18, 0x04	; 4
     c70:	30 e0       	ldi	r19, 0x00	; 0
     c72:	82 0e       	add	r8, r18
     c74:	93 1e       	adc	r9, r19
     c76:	ca 14       	cp	r12, r10
     c78:	db 04       	cpc	r13, r11
     c7a:	0c f0       	brlt	.+2      	; 0xc7e <ks0108DrawRoundRect+0x138>
     c7c:	a8 cf       	rjmp	.-176    	; 0xbce <ks0108DrawRoundRect+0x88>
     c7e:	1d 81       	ldd	r17, Y+5	; 0x05
     c80:	f9 84       	ldd	r15, Y+9	; 0x09
     c82:	f1 0e       	add	r15, r17
     c84:	83 2d       	mov	r24, r3
     c86:	68 85       	ldd	r22, Y+8	; 0x08
     c88:	4f 2d       	mov	r20, r15
     c8a:	20 e0       	ldi	r18, 0x00	; 0
     c8c:	0e 2d       	mov	r16, r14
     c8e:	ad de       	rcall	.-678    	; 0x9ea <ks0108FillRect>
     c90:	83 2d       	mov	r24, r3
     c92:	69 81       	ldd	r22, Y+1	; 0x01
     c94:	4f 2d       	mov	r20, r15
     c96:	20 e0       	ldi	r18, 0x00	; 0
     c98:	a8 de       	rcall	.-688    	; 0x9ea <ks0108FillRect>
     c9a:	3a 85       	ldd	r19, Y+10	; 0x0a
     c9c:	13 0f       	add	r17, r19
     c9e:	8f 81       	ldd	r24, Y+7	; 0x07
     ca0:	62 2d       	mov	r22, r2
     ca2:	40 e0       	ldi	r20, 0x00	; 0
     ca4:	21 2f       	mov	r18, r17
     ca6:	a1 de       	rcall	.-702    	; 0x9ea <ks0108FillRect>
     ca8:	8b 81       	ldd	r24, Y+3	; 0x03
     caa:	62 2d       	mov	r22, r2
     cac:	40 e0       	ldi	r20, 0x00	; 0
     cae:	21 2f       	mov	r18, r17
     cb0:	9c de       	rcall	.-712    	; 0x9ea <ks0108FillRect>
     cb2:	2c 96       	adiw	r28, 0x0c	; 12
     cb4:	0f b6       	in	r0, 0x3f	; 63
     cb6:	f8 94       	cli
     cb8:	de bf       	out	0x3e, r29	; 62
     cba:	0f be       	out	0x3f, r0	; 63
     cbc:	cd bf       	out	0x3d, r28	; 61
     cbe:	cf 91       	pop	r28
     cc0:	df 91       	pop	r29
     cc2:	1f 91       	pop	r17
     cc4:	0f 91       	pop	r16
     cc6:	ff 90       	pop	r15
     cc8:	ef 90       	pop	r14
     cca:	df 90       	pop	r13
     ccc:	cf 90       	pop	r12
     cce:	bf 90       	pop	r11
     cd0:	af 90       	pop	r10
     cd2:	9f 90       	pop	r9
     cd4:	8f 90       	pop	r8
     cd6:	7f 90       	pop	r7
     cd8:	6f 90       	pop	r6
     cda:	5f 90       	pop	r5
     cdc:	4f 90       	pop	r4
     cde:	3f 90       	pop	r3
     ce0:	2f 90       	pop	r2
     ce2:	08 95       	ret

00000ce4 <ks0108DrawRect>:
     ce4:	cf 92       	push	r12
     ce6:	df 92       	push	r13
     ce8:	ef 92       	push	r14
     cea:	ff 92       	push	r15
     cec:	0f 93       	push	r16
     cee:	1f 93       	push	r17
     cf0:	18 2f       	mov	r17, r24
     cf2:	f6 2e       	mov	r15, r22
     cf4:	d4 2e       	mov	r13, r20
     cf6:	c2 2e       	mov	r12, r18
     cf8:	20 e0       	ldi	r18, 0x00	; 0
     cfa:	77 de       	rcall	.-786    	; 0x9ea <ks0108FillRect>
     cfc:	6c 2d       	mov	r22, r12
     cfe:	6f 0d       	add	r22, r15
     d00:	81 2f       	mov	r24, r17
     d02:	4d 2d       	mov	r20, r13
     d04:	20 e0       	ldi	r18, 0x00	; 0
     d06:	71 de       	rcall	.-798    	; 0x9ea <ks0108FillRect>
     d08:	81 2f       	mov	r24, r17
     d0a:	6f 2d       	mov	r22, r15
     d0c:	40 e0       	ldi	r20, 0x00	; 0
     d0e:	2c 2d       	mov	r18, r12
     d10:	6c de       	rcall	.-808    	; 0x9ea <ks0108FillRect>
     d12:	8d 2d       	mov	r24, r13
     d14:	81 0f       	add	r24, r17
     d16:	6f 2d       	mov	r22, r15
     d18:	40 e0       	ldi	r20, 0x00	; 0
     d1a:	2c 2d       	mov	r18, r12
     d1c:	66 de       	rcall	.-820    	; 0x9ea <ks0108FillRect>
     d1e:	1f 91       	pop	r17
     d20:	0f 91       	pop	r16
     d22:	ff 90       	pop	r15
     d24:	ef 90       	pop	r14
     d26:	df 90       	pop	r13
     d28:	cf 90       	pop	r12
     d2a:	08 95       	ret

00000d2c <ks0108DrawLine>:
     d2c:	4f 92       	push	r4
     d2e:	5f 92       	push	r5
     d30:	6f 92       	push	r6
     d32:	7f 92       	push	r7
     d34:	8f 92       	push	r8
     d36:	9f 92       	push	r9
     d38:	af 92       	push	r10
     d3a:	bf 92       	push	r11
     d3c:	cf 92       	push	r12
     d3e:	df 92       	push	r13
     d40:	ef 92       	push	r14
     d42:	ff 92       	push	r15
     d44:	0f 93       	push	r16
     d46:	1f 93       	push	r17
     d48:	cf 93       	push	r28
     d4a:	df 93       	push	r29
     d4c:	d8 2e       	mov	r13, r24
     d4e:	c6 2e       	mov	r12, r22
     d50:	f4 2e       	mov	r15, r20
     d52:	e2 2e       	mov	r14, r18
     d54:	50 2e       	mov	r5, r16
     d56:	84 17       	cp	r24, r20
     d58:	51 f4       	brne	.+20     	; 0xd6e <ks0108DrawLine+0x42>
     d5a:	26 17       	cp	r18, r22
     d5c:	10 f4       	brcc	.+4      	; 0xd62 <ks0108DrawLine+0x36>
     d5e:	e6 2e       	mov	r14, r22
     d60:	c2 2e       	mov	r12, r18
     d62:	ec 18       	sub	r14, r12
     d64:	8d 2d       	mov	r24, r13
     d66:	6c 2d       	mov	r22, r12
     d68:	40 e0       	ldi	r20, 0x00	; 0
     d6a:	2e 2d       	mov	r18, r14
     d6c:	0b c0       	rjmp	.+22     	; 0xd84 <ks0108DrawLine+0x58>
     d6e:	62 17       	cp	r22, r18
     d70:	61 f4       	brne	.+24     	; 0xd8a <ks0108DrawLine+0x5e>
     d72:	48 17       	cp	r20, r24
     d74:	10 f4       	brcc	.+4      	; 0xd7a <ks0108DrawLine+0x4e>
     d76:	fd 2c       	mov	r15, r13
     d78:	d4 2e       	mov	r13, r20
     d7a:	fd 18       	sub	r15, r13
     d7c:	8d 2d       	mov	r24, r13
     d7e:	6c 2d       	mov	r22, r12
     d80:	4f 2d       	mov	r20, r15
     d82:	20 e0       	ldi	r18, 0x00	; 0
     d84:	05 2d       	mov	r16, r5
     d86:	31 de       	rcall	.-926    	; 0x9ea <ks0108FillRect>
     d88:	ce c0       	rjmp	.+412    	; 0xf26 <ks0108DrawLine+0x1fa>
     d8a:	62 2f       	mov	r22, r18
     d8c:	70 e0       	ldi	r23, 0x00	; 0
     d8e:	4c 2d       	mov	r20, r12
     d90:	50 e0       	ldi	r21, 0x00	; 0
     d92:	2f 2d       	mov	r18, r15
     d94:	30 e0       	ldi	r19, 0x00	; 0
     d96:	28 1b       	sub	r18, r24
     d98:	31 09       	sbc	r19, r1
     d9a:	cb 01       	movw	r24, r22
     d9c:	84 1b       	sub	r24, r20
     d9e:	95 0b       	sbc	r25, r21
     da0:	82 17       	cp	r24, r18
     da2:	93 07       	cpc	r25, r19
     da4:	34 f4       	brge	.+12     	; 0xdb2 <ks0108DrawLine+0x86>
     da6:	46 1b       	sub	r20, r22
     da8:	57 0b       	sbc	r21, r23
     daa:	42 17       	cp	r20, r18
     dac:	53 07       	cpc	r21, r19
     dae:	0c f4       	brge	.+2      	; 0xdb2 <ks0108DrawLine+0x86>
     db0:	5e c0       	rjmp	.+188    	; 0xe6e <ks0108DrawLine+0x142>
     db2:	fd 14       	cp	r15, r13
     db4:	30 f4       	brcc	.+12     	; 0xdc2 <ks0108DrawLine+0x96>
     db6:	8f 2d       	mov	r24, r15
     db8:	fd 2c       	mov	r15, r13
     dba:	d8 2e       	mov	r13, r24
     dbc:	8e 2d       	mov	r24, r14
     dbe:	ec 2c       	mov	r14, r12
     dc0:	c8 2e       	mov	r12, r24
     dc2:	4f 2c       	mov	r4, r15
     dc4:	4d 18       	sub	r4, r13
     dc6:	ee 2d       	mov	r30, r14
     dc8:	f0 e0       	ldi	r31, 0x00	; 0
     dca:	2c 2d       	mov	r18, r12
     dcc:	30 e0       	ldi	r19, 0x00	; 0
     dce:	4f 01       	movw	r8, r30
     dd0:	82 1a       	sub	r8, r18
     dd2:	93 0a       	sbc	r9, r19
     dd4:	a4 2c       	mov	r10, r4
     dd6:	bb 24       	eor	r11, r11
     dd8:	88 ec       	ldi	r24, 0xC8	; 200
     dda:	90 e0       	ldi	r25, 0x00	; 0
     ddc:	ac 01       	movw	r20, r24
     dde:	84 9e       	mul	r8, r20
     de0:	c0 01       	movw	r24, r0
     de2:	85 9e       	mul	r8, r21
     de4:	90 0d       	add	r25, r0
     de6:	94 9e       	mul	r9, r20
     de8:	90 0d       	add	r25, r0
     dea:	11 24       	eor	r1, r1
     dec:	b5 01       	movw	r22, r10
     dee:	32 d3       	rcall	.+1636   	; 0x1454 <__divmodhi4>
     df0:	eb 01       	movw	r28, r22
     df2:	0c 2d       	mov	r16, r12
     df4:	ff 24       	eor	r15, r15
     df6:	39 01       	movw	r6, r18
     df8:	6e 1a       	sub	r6, r30
     dfa:	7f 0a       	sbc	r7, r31
     dfc:	8f 2d       	mov	r24, r15
     dfe:	90 e0       	ldi	r25, 0x00	; 0
     e00:	8c 9f       	mul	r24, r28
     e02:	90 01       	movw	r18, r0
     e04:	8d 9f       	mul	r24, r29
     e06:	30 0d       	add	r19, r0
     e08:	9c 9f       	mul	r25, r28
     e0a:	30 0d       	add	r19, r0
     e0c:	11 24       	eor	r1, r1
     e0e:	c9 01       	movw	r24, r18
     e10:	68 ec       	ldi	r22, 0xC8	; 200
     e12:	70 e0       	ldi	r23, 0x00	; 0
     e14:	1f d3       	rcall	.+1598   	; 0x1454 <__divmodhi4>
     e16:	16 2f       	mov	r17, r22
     e18:	1c 0d       	add	r17, r12
     e1a:	c9 01       	movw	r24, r18
     e1c:	68 ec       	ldi	r22, 0xC8	; 200
     e1e:	70 e0       	ldi	r23, 0x00	; 0
     e20:	19 d3       	rcall	.+1586   	; 0x1454 <__divmodhi4>
     e22:	84 36       	cpi	r24, 0x64	; 100
     e24:	91 05       	cpc	r25, r1
     e26:	14 f0       	brlt	.+4      	; 0xe2c <ks0108DrawLine+0x100>
     e28:	1f 5f       	subi	r17, 0xFF	; 255
     e2a:	05 c0       	rjmp	.+10     	; 0xe36 <ks0108DrawLine+0x10a>
     e2c:	5f ef       	ldi	r21, 0xFF	; 255
     e2e:	8d 39       	cpi	r24, 0x9D	; 157
     e30:	95 07       	cpc	r25, r21
     e32:	0c f4       	brge	.+2      	; 0xe36 <ks0108DrawLine+0x10a>
     e34:	11 50       	subi	r17, 0x01	; 1
     e36:	4f 2d       	mov	r20, r15
     e38:	4d 0d       	add	r20, r13
     e3a:	84 2f       	mov	r24, r20
     e3c:	60 2f       	mov	r22, r16
     e3e:	21 2f       	mov	r18, r17
     e40:	05 2d       	mov	r16, r5
     e42:	74 df       	rcall	.-280    	; 0xd2c <ks0108DrawLine>
     e44:	8a 14       	cp	r8, r10
     e46:	9b 04       	cpc	r9, r11
     e48:	2c f0       	brlt	.+10     	; 0xe54 <ks0108DrawLine+0x128>
     e4a:	ce 14       	cp	r12, r14
     e4c:	18 f4       	brcc	.+6      	; 0xe54 <ks0108DrawLine+0x128>
     e4e:	01 2f       	mov	r16, r17
     e50:	0f 5f       	subi	r16, 0xFF	; 255
     e52:	09 c0       	rjmp	.+18     	; 0xe66 <ks0108DrawLine+0x13a>
     e54:	6a 14       	cp	r6, r10
     e56:	7b 04       	cpc	r7, r11
     e58:	2c f0       	brlt	.+10     	; 0xe64 <ks0108DrawLine+0x138>
     e5a:	ec 14       	cp	r14, r12
     e5c:	18 f4       	brcc	.+6      	; 0xe64 <ks0108DrawLine+0x138>
     e5e:	01 2f       	mov	r16, r17
     e60:	01 50       	subi	r16, 0x01	; 1
     e62:	01 c0       	rjmp	.+2      	; 0xe66 <ks0108DrawLine+0x13a>
     e64:	01 2f       	mov	r16, r17
     e66:	f3 94       	inc	r15
     e68:	4f 14       	cp	r4, r15
     e6a:	40 f6       	brcc	.-112    	; 0xdfc <ks0108DrawLine+0xd0>
     e6c:	5c c0       	rjmp	.+184    	; 0xf26 <ks0108DrawLine+0x1fa>
     e6e:	ec 14       	cp	r14, r12
     e70:	28 f4       	brcc	.+10     	; 0xe7c <ks0108DrawLine+0x150>
     e72:	8f 2d       	mov	r24, r15
     e74:	fd 2c       	mov	r15, r13
     e76:	d8 2e       	mov	r13, r24
     e78:	ec 2c       	mov	r14, r12
     e7a:	c6 2e       	mov	r12, r22
     e7c:	4e 2c       	mov	r4, r14
     e7e:	4c 18       	sub	r4, r12
     e80:	ef 2d       	mov	r30, r15
     e82:	f0 e0       	ldi	r31, 0x00	; 0
     e84:	2d 2d       	mov	r18, r13
     e86:	30 e0       	ldi	r19, 0x00	; 0
     e88:	4f 01       	movw	r8, r30
     e8a:	82 1a       	sub	r8, r18
     e8c:	93 0a       	sbc	r9, r19
     e8e:	a4 2c       	mov	r10, r4
     e90:	bb 24       	eor	r11, r11
     e92:	88 ec       	ldi	r24, 0xC8	; 200
     e94:	90 e0       	ldi	r25, 0x00	; 0
     e96:	ac 01       	movw	r20, r24
     e98:	84 9e       	mul	r8, r20
     e9a:	c0 01       	movw	r24, r0
     e9c:	85 9e       	mul	r8, r21
     e9e:	90 0d       	add	r25, r0
     ea0:	94 9e       	mul	r9, r20
     ea2:	90 0d       	add	r25, r0
     ea4:	11 24       	eor	r1, r1
     ea6:	b5 01       	movw	r22, r10
     ea8:	d5 d2       	rcall	.+1450   	; 0x1454 <__divmodhi4>
     eaa:	eb 01       	movw	r28, r22
     eac:	4d 2d       	mov	r20, r13
     eae:	ee 24       	eor	r14, r14
     eb0:	39 01       	movw	r6, r18
     eb2:	6e 1a       	sub	r6, r30
     eb4:	7f 0a       	sbc	r7, r31
     eb6:	8e 2d       	mov	r24, r14
     eb8:	90 e0       	ldi	r25, 0x00	; 0
     eba:	8c 9f       	mul	r24, r28
     ebc:	90 01       	movw	r18, r0
     ebe:	8d 9f       	mul	r24, r29
     ec0:	30 0d       	add	r19, r0
     ec2:	9c 9f       	mul	r25, r28
     ec4:	30 0d       	add	r19, r0
     ec6:	11 24       	eor	r1, r1
     ec8:	c9 01       	movw	r24, r18
     eca:	68 ec       	ldi	r22, 0xC8	; 200
     ecc:	70 e0       	ldi	r23, 0x00	; 0
     ece:	c2 d2       	rcall	.+1412   	; 0x1454 <__divmodhi4>
     ed0:	16 2f       	mov	r17, r22
     ed2:	1d 0d       	add	r17, r13
     ed4:	c9 01       	movw	r24, r18
     ed6:	68 ec       	ldi	r22, 0xC8	; 200
     ed8:	70 e0       	ldi	r23, 0x00	; 0
     eda:	bc d2       	rcall	.+1400   	; 0x1454 <__divmodhi4>
     edc:	84 36       	cpi	r24, 0x64	; 100
     ede:	91 05       	cpc	r25, r1
     ee0:	14 f0       	brlt	.+4      	; 0xee6 <ks0108DrawLine+0x1ba>
     ee2:	1f 5f       	subi	r17, 0xFF	; 255
     ee4:	05 c0       	rjmp	.+10     	; 0xef0 <ks0108DrawLine+0x1c4>
     ee6:	5f ef       	ldi	r21, 0xFF	; 255
     ee8:	8d 39       	cpi	r24, 0x9D	; 157
     eea:	95 07       	cpc	r25, r21
     eec:	0c f4       	brge	.+2      	; 0xef0 <ks0108DrawLine+0x1c4>
     eee:	11 50       	subi	r17, 0x01	; 1
     ef0:	2e 2d       	mov	r18, r14
     ef2:	2c 0d       	add	r18, r12
     ef4:	84 2f       	mov	r24, r20
     ef6:	62 2f       	mov	r22, r18
     ef8:	41 2f       	mov	r20, r17
     efa:	05 2d       	mov	r16, r5
     efc:	17 df       	rcall	.-466    	; 0xd2c <ks0108DrawLine>
     efe:	8a 14       	cp	r8, r10
     f00:	9b 04       	cpc	r9, r11
     f02:	2c f0       	brlt	.+10     	; 0xf0e <ks0108DrawLine+0x1e2>
     f04:	df 14       	cp	r13, r15
     f06:	18 f4       	brcc	.+6      	; 0xf0e <ks0108DrawLine+0x1e2>
     f08:	41 2f       	mov	r20, r17
     f0a:	4f 5f       	subi	r20, 0xFF	; 255
     f0c:	09 c0       	rjmp	.+18     	; 0xf20 <ks0108DrawLine+0x1f4>
     f0e:	6a 14       	cp	r6, r10
     f10:	7b 04       	cpc	r7, r11
     f12:	2c f0       	brlt	.+10     	; 0xf1e <ks0108DrawLine+0x1f2>
     f14:	fd 14       	cp	r15, r13
     f16:	18 f4       	brcc	.+6      	; 0xf1e <ks0108DrawLine+0x1f2>
     f18:	41 2f       	mov	r20, r17
     f1a:	41 50       	subi	r20, 0x01	; 1
     f1c:	01 c0       	rjmp	.+2      	; 0xf20 <ks0108DrawLine+0x1f4>
     f1e:	41 2f       	mov	r20, r17
     f20:	e3 94       	inc	r14
     f22:	4e 14       	cp	r4, r14
     f24:	40 f6       	brcc	.-112    	; 0xeb6 <ks0108DrawLine+0x18a>
     f26:	df 91       	pop	r29
     f28:	cf 91       	pop	r28
     f2a:	1f 91       	pop	r17
     f2c:	0f 91       	pop	r16
     f2e:	ff 90       	pop	r15
     f30:	ef 90       	pop	r14
     f32:	df 90       	pop	r13
     f34:	cf 90       	pop	r12
     f36:	bf 90       	pop	r11
     f38:	af 90       	pop	r10
     f3a:	9f 90       	pop	r9
     f3c:	8f 90       	pop	r8
     f3e:	7f 90       	pop	r7
     f40:	6f 90       	pop	r6
     f42:	5f 90       	pop	r5
     f44:	4f 90       	pop	r4
     f46:	08 95       	ret

00000f48 <uart_init>:
{
#if F_CPU < 2000000UL && defined(U2X)
  UCSRA = _BV(U2X);             /* improve baud rate error by using 2x clk */
  UBRRL = (F_CPU / (8UL * UART_BAUD)) - 1;
#else
  UBRRL = (F_CPU / (16UL * UART_BAUD)) - 1;
     f48:	83 e3       	ldi	r24, 0x33	; 51
     f4a:	89 b9       	out	0x09, r24	; 9
#endif
  UCSRB = _BV(TXEN) | _BV(RXEN); /* tx/rx enable */
     f4c:	88 e1       	ldi	r24, 0x18	; 24
     f4e:	8a b9       	out	0x0a, r24	; 10
}
     f50:	08 95       	ret

00000f52 <uart_putchar>:
 * Send character c down the UART Tx, wait until tx holding register
 * is empty.
 */
int
uart_putchar(char c, FILE *stream)
{
     f52:	1f 93       	push	r17
     f54:	18 2f       	mov	r17, r24

  if (c == '\a')
     f56:	87 30       	cpi	r24, 0x07	; 7
     f58:	41 f4       	brne	.+16     	; 0xf6a <uart_putchar+0x18>
    {
      fputs("*ring*\n", stderr);
     f5a:	60 91 50 01 	lds	r22, 0x0150
     f5e:	70 91 51 01 	lds	r23, 0x0151
     f62:	80 e6       	ldi	r24, 0x60	; 96
     f64:	90 e0       	ldi	r25, 0x00	; 0
     f66:	9d d2       	rcall	.+1338   	; 0x14a2 <fputs>
     f68:	07 c0       	rjmp	.+14     	; 0xf78 <uart_putchar+0x26>
      return 0;
    }

  if (c == '\n')
     f6a:	8a 30       	cpi	r24, 0x0A	; 10
     f6c:	11 f4       	brne	.+4      	; 0xf72 <uart_putchar+0x20>
    uart_putchar('\r', stream);
     f6e:	8d e0       	ldi	r24, 0x0D	; 13
     f70:	f0 df       	rcall	.-32     	; 0xf52 <uart_putchar>
  loop_until_bit_is_set(UCSRA, UDRE);
     f72:	5d 9b       	sbis	0x0b, 5	; 11
     f74:	fe cf       	rjmp	.-4      	; 0xf72 <uart_putchar+0x20>
  UDR = c;
     f76:	1c b9       	out	0x0c, r17	; 12

  return 0;
}
     f78:	80 e0       	ldi	r24, 0x00	; 0
     f7a:	90 e0       	ldi	r25, 0x00	; 0
     f7c:	1f 91       	pop	r17
     f7e:	08 95       	ret

00000f80 <uart_getchar>:
 * Successive calls to uart_getchar() will be satisfied from the
 * internal buffer until that buffer is emptied again.
 */
int
uart_getchar(FILE *stream)
{
     f80:	ef 92       	push	r14
     f82:	ff 92       	push	r15
     f84:	0f 93       	push	r16
     f86:	1f 93       	push	r17
     f88:	cf 93       	push	r28
     f8a:	df 93       	push	r29
     f8c:	7c 01       	movw	r14, r24
  uint8_t c;
  char *cp, *cp2;
  static char b[RX_BUFSIZE];
  static char *rxp;

  if (rxp == 0)
     f8e:	80 91 6a 00 	lds	r24, 0x006A
     f92:	90 91 6b 00 	lds	r25, 0x006B
     f96:	89 2b       	or	r24, r25
     f98:	09 f0       	breq	.+2      	; 0xf9c <uart_getchar+0x1c>
     f9a:	8a c0       	rjmp	.+276    	; 0x10b0 <uart_getchar+0x130>
     f9c:	0c e6       	ldi	r16, 0x6C	; 108
     f9e:	10 e0       	ldi	r17, 0x00	; 0
    for (cp = b;;)
      {
	loop_until_bit_is_set(UCSRA, RXC);
     fa0:	5f 9b       	sbis	0x0b, 7	; 11
     fa2:	fe cf       	rjmp	.-4      	; 0xfa0 <uart_getchar+0x20>
	if (UCSRA & _BV(FE))
     fa4:	5c 9b       	sbis	0x0b, 4	; 11
     fa6:	03 c0       	rjmp	.+6      	; 0xfae <uart_getchar+0x2e>
     fa8:	2e ef       	ldi	r18, 0xFE	; 254
     faa:	3f ef       	ldi	r19, 0xFF	; 255
     fac:	95 c0       	rjmp	.+298    	; 0x10d8 <uart_getchar+0x158>
	  return _FDEV_EOF;
	if (UCSRA & _BV(DOR))
     fae:	5b 99       	sbic	0x0b, 3	; 11
     fb0:	91 c0       	rjmp	.+290    	; 0x10d4 <uart_getchar+0x154>
	  return _FDEV_ERR;
	c = UDR;
     fb2:	9c b1       	in	r25, 0x0c	; 12
	/* behaviour similar to Unix stty ICRNL */
	if (c == '\r')
     fb4:	9d 30       	cpi	r25, 0x0D	; 13
     fb6:	11 f0       	breq	.+4      	; 0xfbc <uart_getchar+0x3c>
	  c = '\n';
	if (c == '\n')
     fb8:	9a 30       	cpi	r25, 0x0A	; 10
     fba:	61 f4       	brne	.+24     	; 0xfd4 <uart_getchar+0x54>
	  {
	    *cp = c;
     fbc:	8a e0       	ldi	r24, 0x0A	; 10
     fbe:	f8 01       	movw	r30, r16
     fc0:	80 83       	st	Z, r24
	    uart_putchar(c, stream);
     fc2:	b7 01       	movw	r22, r14
     fc4:	c6 df       	rcall	.-116    	; 0xf52 <uart_putchar>
	    rxp = b;
     fc6:	8c e6       	ldi	r24, 0x6C	; 108
     fc8:	90 e0       	ldi	r25, 0x00	; 0
     fca:	90 93 6b 00 	sts	0x006B, r25
     fce:	80 93 6a 00 	sts	0x006A, r24
     fd2:	6e c0       	rjmp	.+220    	; 0x10b0 <uart_getchar+0x130>
	    break;
	  }
	else if (c == '\t')
     fd4:	99 30       	cpi	r25, 0x09	; 9
     fd6:	09 f4       	brne	.+2      	; 0xfda <uart_getchar+0x5a>
     fd8:	90 e2       	ldi	r25, 0x20	; 32
	  c = ' ';

	if ((c >= (uint8_t)' ' && c <= (uint8_t)'\x7e') ||
     fda:	89 2f       	mov	r24, r25
     fdc:	80 52       	subi	r24, 0x20	; 32
     fde:	8f 35       	cpi	r24, 0x5F	; 95
     fe0:	10 f0       	brcs	.+4      	; 0xfe6 <uart_getchar+0x66>
     fe2:	90 3a       	cpi	r25, 0xA0	; 160
     fe4:	68 f0       	brcs	.+26     	; 0x1000 <uart_getchar+0x80>
	    c >= (uint8_t)'\xa0')
	  {
	    if (cp == b + RX_BUFSIZE - 1)
     fe6:	f0 e0       	ldi	r31, 0x00	; 0
     fe8:	0b 3b       	cpi	r16, 0xBB	; 187
     fea:	1f 07       	cpc	r17, r31
     fec:	11 f4       	brne	.+4      	; 0xff2 <uart_getchar+0x72>
	      uart_putchar('\a', stream);
     fee:	87 e0       	ldi	r24, 0x07	; 7
     ff0:	04 c0       	rjmp	.+8      	; 0xffa <uart_getchar+0x7a>
	    else
	      {
		*cp++ = c;
     ff2:	f8 01       	movw	r30, r16
     ff4:	91 93       	st	Z+, r25
     ff6:	8f 01       	movw	r16, r30
		uart_putchar(c, stream);
     ff8:	89 2f       	mov	r24, r25
     ffa:	b7 01       	movw	r22, r14
     ffc:	aa df       	rcall	.-172    	; 0xf52 <uart_putchar>
     ffe:	d0 cf       	rjmp	.-96     	; 0xfa0 <uart_getchar+0x20>
	      }
	    continue;
	  }

	switch (c)
    1000:	92 31       	cpi	r25, 0x12	; 18
    1002:	19 f1       	breq	.+70     	; 0x104a <uart_getchar+0xca>
    1004:	93 31       	cpi	r25, 0x13	; 19
    1006:	30 f4       	brcc	.+12     	; 0x1014 <uart_getchar+0x94>
    1008:	93 30       	cpi	r25, 0x03	; 3
    100a:	09 f4       	brne	.+2      	; 0x100e <uart_getchar+0x8e>
    100c:	63 c0       	rjmp	.+198    	; 0x10d4 <uart_getchar+0x154>
    100e:	98 30       	cpi	r25, 0x08	; 8
    1010:	39 f6       	brne	.-114    	; 0xfa0 <uart_getchar+0x20>
    1012:	09 c0       	rjmp	.+18     	; 0x1026 <uart_getchar+0xa6>
    1014:	97 31       	cpi	r25, 0x17	; 23
    1016:	09 f4       	brne	.+2      	; 0x101a <uart_getchar+0x9a>
    1018:	40 c0       	rjmp	.+128    	; 0x109a <uart_getchar+0x11a>
    101a:	9f 37       	cpi	r25, 0x7F	; 127
    101c:	21 f0       	breq	.+8      	; 0x1026 <uart_getchar+0xa6>
    101e:	95 31       	cpi	r25, 0x15	; 21
    1020:	09 f0       	breq	.+2      	; 0x1024 <uart_getchar+0xa4>
    1022:	be cf       	rjmp	.-132    	; 0xfa0 <uart_getchar+0x20>
    1024:	2a c0       	rjmp	.+84     	; 0x107a <uart_getchar+0xfa>
	  case 'c' & 0x1f:
	    return -1;

	  case '\b':
	  case '\x7f':
	    if (cp > b)
    1026:	f0 e0       	ldi	r31, 0x00	; 0
    1028:	0c 36       	cpi	r16, 0x6C	; 108
    102a:	1f 07       	cpc	r17, r31
    102c:	09 f0       	breq	.+2      	; 0x1030 <uart_getchar+0xb0>
    102e:	08 f4       	brcc	.+2      	; 0x1032 <uart_getchar+0xb2>
    1030:	b7 cf       	rjmp	.-146    	; 0xfa0 <uart_getchar+0x20>
	      {
		uart_putchar('\b', stream);
    1032:	88 e0       	ldi	r24, 0x08	; 8
    1034:	b7 01       	movw	r22, r14
    1036:	8d df       	rcall	.-230    	; 0xf52 <uart_putchar>
		uart_putchar(' ', stream);
    1038:	80 e2       	ldi	r24, 0x20	; 32
    103a:	b7 01       	movw	r22, r14
    103c:	8a df       	rcall	.-236    	; 0xf52 <uart_putchar>
		uart_putchar('\b', stream);
    103e:	88 e0       	ldi	r24, 0x08	; 8
    1040:	b7 01       	movw	r22, r14
    1042:	87 df       	rcall	.-242    	; 0xf52 <uart_putchar>
		cp--;
    1044:	01 50       	subi	r16, 0x01	; 1
    1046:	10 40       	sbci	r17, 0x00	; 0
    1048:	ab cf       	rjmp	.-170    	; 0xfa0 <uart_getchar+0x20>
	      }
	    break;

	  case 'r' & 0x1f:
	    uart_putchar('\r', stream);
    104a:	8d e0       	ldi	r24, 0x0D	; 13
    104c:	b7 01       	movw	r22, r14
    104e:	81 df       	rcall	.-254    	; 0xf52 <uart_putchar>
    1050:	cc e6       	ldi	r28, 0x6C	; 108
    1052:	d0 e0       	ldi	r29, 0x00	; 0
    1054:	03 c0       	rjmp	.+6      	; 0x105c <uart_getchar+0xdc>
	    for (cp2 = b; cp2 < cp; cp2++)
	      uart_putchar(*cp2, stream);
    1056:	89 91       	ld	r24, Y+
    1058:	b7 01       	movw	r22, r14
    105a:	7b df       	rcall	.-266    	; 0xf52 <uart_putchar>
	      }
	    break;

	  case 'r' & 0x1f:
	    uart_putchar('\r', stream);
	    for (cp2 = b; cp2 < cp; cp2++)
    105c:	c0 17       	cp	r28, r16
    105e:	d1 07       	cpc	r29, r17
    1060:	d0 f3       	brcs	.-12     	; 0x1056 <uart_getchar+0xd6>
    1062:	9e cf       	rjmp	.-196    	; 0xfa0 <uart_getchar+0x20>
	    break;

	  case 'u' & 0x1f:
	    while (cp > b)
	      {
		uart_putchar('\b', stream);
    1064:	88 e0       	ldi	r24, 0x08	; 8
    1066:	b7 01       	movw	r22, r14
    1068:	74 df       	rcall	.-280    	; 0xf52 <uart_putchar>
		uart_putchar(' ', stream);
    106a:	80 e2       	ldi	r24, 0x20	; 32
    106c:	b7 01       	movw	r22, r14
    106e:	71 df       	rcall	.-286    	; 0xf52 <uart_putchar>
		uart_putchar('\b', stream);
    1070:	88 e0       	ldi	r24, 0x08	; 8
    1072:	b7 01       	movw	r22, r14
    1074:	6e df       	rcall	.-292    	; 0xf52 <uart_putchar>
		cp--;
    1076:	01 50       	subi	r16, 0x01	; 1
    1078:	10 40       	sbci	r17, 0x00	; 0
	    for (cp2 = b; cp2 < cp; cp2++)
	      uart_putchar(*cp2, stream);
	    break;

	  case 'u' & 0x1f:
	    while (cp > b)
    107a:	80 e0       	ldi	r24, 0x00	; 0
    107c:	0c 36       	cpi	r16, 0x6C	; 108
    107e:	18 07       	cpc	r17, r24
    1080:	09 f0       	breq	.+2      	; 0x1084 <uart_getchar+0x104>
    1082:	80 f7       	brcc	.-32     	; 0x1064 <uart_getchar+0xe4>
    1084:	8d cf       	rjmp	.-230    	; 0xfa0 <uart_getchar+0x20>
	    break;

	  case 'w' & 0x1f:
	    while (cp > b && cp[-1] != ' ')
	      {
		uart_putchar('\b', stream);
    1086:	88 e0       	ldi	r24, 0x08	; 8
    1088:	b7 01       	movw	r22, r14
    108a:	63 df       	rcall	.-314    	; 0xf52 <uart_putchar>
		uart_putchar(' ', stream);
    108c:	80 e2       	ldi	r24, 0x20	; 32
    108e:	b7 01       	movw	r22, r14
    1090:	60 df       	rcall	.-320    	; 0xf52 <uart_putchar>
		uart_putchar('\b', stream);
    1092:	88 e0       	ldi	r24, 0x08	; 8
    1094:	b7 01       	movw	r22, r14
    1096:	5d df       	rcall	.-326    	; 0xf52 <uart_putchar>
    1098:	8e 01       	movw	r16, r28
		cp--;
	      }
	    break;

	  case 'w' & 0x1f:
	    while (cp > b && cp[-1] != ' ')
    109a:	e0 e0       	ldi	r30, 0x00	; 0
    109c:	0c 36       	cpi	r16, 0x6C	; 108
    109e:	1e 07       	cpc	r17, r30
    10a0:	09 f0       	breq	.+2      	; 0x10a4 <uart_getchar+0x124>
    10a2:	08 f4       	brcc	.+2      	; 0x10a6 <uart_getchar+0x126>
    10a4:	7d cf       	rjmp	.-262    	; 0xfa0 <uart_getchar+0x20>
    10a6:	e8 01       	movw	r28, r16
    10a8:	8a 91       	ld	r24, -Y
    10aa:	80 32       	cpi	r24, 0x20	; 32
    10ac:	61 f7       	brne	.-40     	; 0x1086 <uart_getchar+0x106>
    10ae:	78 cf       	rjmp	.-272    	; 0xfa0 <uart_getchar+0x20>
	      }
	    break;
	  }
      }

  c = *rxp++;
    10b0:	e0 91 6a 00 	lds	r30, 0x006A
    10b4:	f0 91 6b 00 	lds	r31, 0x006B
    10b8:	81 91       	ld	r24, Z+
    10ba:	f0 93 6b 00 	sts	0x006B, r31
    10be:	e0 93 6a 00 	sts	0x006A, r30
  if (c == '\n')
    10c2:	8a 30       	cpi	r24, 0x0A	; 10
    10c4:	21 f4       	brne	.+8      	; 0x10ce <uart_getchar+0x14e>
    rxp = 0;
    10c6:	10 92 6b 00 	sts	0x006B, r1
    10ca:	10 92 6a 00 	sts	0x006A, r1

  return c;
    10ce:	28 2f       	mov	r18, r24
    10d0:	30 e0       	ldi	r19, 0x00	; 0
    10d2:	02 c0       	rjmp	.+4      	; 0x10d8 <uart_getchar+0x158>
    10d4:	2f ef       	ldi	r18, 0xFF	; 255
    10d6:	3f ef       	ldi	r19, 0xFF	; 255
}
    10d8:	c9 01       	movw	r24, r18
    10da:	df 91       	pop	r29
    10dc:	cf 91       	pop	r28
    10de:	1f 91       	pop	r17
    10e0:	0f 91       	pop	r16
    10e2:	ff 90       	pop	r15
    10e4:	ef 90       	pop	r14
    10e6:	08 95       	ret

000010e8 <__cmpsf2>:
    10e8:	d9 d0       	rcall	.+434    	; 0x129c <__fp_cmp>
    10ea:	08 f4       	brcc	.+2      	; 0x10ee <__cmpsf2+0x6>
    10ec:	81 e0       	ldi	r24, 0x01	; 1
    10ee:	08 95       	ret

000010f0 <__divsf3>:
    10f0:	0c d0       	rcall	.+24     	; 0x110a <__divsf3x>
    10f2:	0f c1       	rjmp	.+542    	; 0x1312 <__fp_round>
    10f4:	07 d1       	rcall	.+526    	; 0x1304 <__fp_pscB>
    10f6:	40 f0       	brcs	.+16     	; 0x1108 <__divsf3+0x18>
    10f8:	fe d0       	rcall	.+508    	; 0x12f6 <__fp_pscA>
    10fa:	30 f0       	brcs	.+12     	; 0x1108 <__divsf3+0x18>
    10fc:	21 f4       	brne	.+8      	; 0x1106 <__divsf3+0x16>
    10fe:	5f 3f       	cpi	r21, 0xFF	; 255
    1100:	19 f0       	breq	.+6      	; 0x1108 <__divsf3+0x18>
    1102:	f0 c0       	rjmp	.+480    	; 0x12e4 <__fp_inf>
    1104:	51 11       	cpse	r21, r1
    1106:	39 c1       	rjmp	.+626    	; 0x137a <__fp_szero>
    1108:	f3 c0       	rjmp	.+486    	; 0x12f0 <__fp_nan>

0000110a <__divsf3x>:
    110a:	14 d1       	rcall	.+552    	; 0x1334 <__fp_split3>
    110c:	98 f3       	brcs	.-26     	; 0x10f4 <__divsf3+0x4>

0000110e <__divsf3_pse>:
    110e:	99 23       	and	r25, r25
    1110:	c9 f3       	breq	.-14     	; 0x1104 <__divsf3+0x14>
    1112:	55 23       	and	r21, r21
    1114:	b1 f3       	breq	.-20     	; 0x1102 <__divsf3+0x12>
    1116:	95 1b       	sub	r25, r21
    1118:	55 0b       	sbc	r21, r21
    111a:	bb 27       	eor	r27, r27
    111c:	aa 27       	eor	r26, r26
    111e:	62 17       	cp	r22, r18
    1120:	73 07       	cpc	r23, r19
    1122:	84 07       	cpc	r24, r20
    1124:	38 f0       	brcs	.+14     	; 0x1134 <__divsf3_pse+0x26>
    1126:	9f 5f       	subi	r25, 0xFF	; 255
    1128:	5f 4f       	sbci	r21, 0xFF	; 255
    112a:	22 0f       	add	r18, r18
    112c:	33 1f       	adc	r19, r19
    112e:	44 1f       	adc	r20, r20
    1130:	aa 1f       	adc	r26, r26
    1132:	a9 f3       	breq	.-22     	; 0x111e <__divsf3_pse+0x10>
    1134:	33 d0       	rcall	.+102    	; 0x119c <__divsf3_pse+0x8e>
    1136:	0e 2e       	mov	r0, r30
    1138:	3a f0       	brmi	.+14     	; 0x1148 <__divsf3_pse+0x3a>
    113a:	e0 e8       	ldi	r30, 0x80	; 128
    113c:	30 d0       	rcall	.+96     	; 0x119e <__divsf3_pse+0x90>
    113e:	91 50       	subi	r25, 0x01	; 1
    1140:	50 40       	sbci	r21, 0x00	; 0
    1142:	e6 95       	lsr	r30
    1144:	00 1c       	adc	r0, r0
    1146:	ca f7       	brpl	.-14     	; 0x113a <__divsf3_pse+0x2c>
    1148:	29 d0       	rcall	.+82     	; 0x119c <__divsf3_pse+0x8e>
    114a:	fe 2f       	mov	r31, r30
    114c:	27 d0       	rcall	.+78     	; 0x119c <__divsf3_pse+0x8e>
    114e:	66 0f       	add	r22, r22
    1150:	77 1f       	adc	r23, r23
    1152:	88 1f       	adc	r24, r24
    1154:	bb 1f       	adc	r27, r27
    1156:	26 17       	cp	r18, r22
    1158:	37 07       	cpc	r19, r23
    115a:	48 07       	cpc	r20, r24
    115c:	ab 07       	cpc	r26, r27
    115e:	b0 e8       	ldi	r27, 0x80	; 128
    1160:	09 f0       	breq	.+2      	; 0x1164 <__divsf3_pse+0x56>
    1162:	bb 0b       	sbc	r27, r27
    1164:	80 2d       	mov	r24, r0
    1166:	bf 01       	movw	r22, r30
    1168:	ff 27       	eor	r31, r31
    116a:	93 58       	subi	r25, 0x83	; 131
    116c:	5f 4f       	sbci	r21, 0xFF	; 255
    116e:	2a f0       	brmi	.+10     	; 0x117a <__divsf3_pse+0x6c>
    1170:	9e 3f       	cpi	r25, 0xFE	; 254
    1172:	51 05       	cpc	r21, r1
    1174:	68 f0       	brcs	.+26     	; 0x1190 <__divsf3_pse+0x82>
    1176:	b6 c0       	rjmp	.+364    	; 0x12e4 <__fp_inf>
    1178:	00 c1       	rjmp	.+512    	; 0x137a <__fp_szero>
    117a:	5f 3f       	cpi	r21, 0xFF	; 255
    117c:	ec f3       	brlt	.-6      	; 0x1178 <__divsf3_pse+0x6a>
    117e:	98 3e       	cpi	r25, 0xE8	; 232
    1180:	dc f3       	brlt	.-10     	; 0x1178 <__divsf3_pse+0x6a>
    1182:	86 95       	lsr	r24
    1184:	77 95       	ror	r23
    1186:	67 95       	ror	r22
    1188:	b7 95       	ror	r27
    118a:	f7 95       	ror	r31
    118c:	9f 5f       	subi	r25, 0xFF	; 255
    118e:	c9 f7       	brne	.-14     	; 0x1182 <__divsf3_pse+0x74>
    1190:	88 0f       	add	r24, r24
    1192:	91 1d       	adc	r25, r1
    1194:	96 95       	lsr	r25
    1196:	87 95       	ror	r24
    1198:	97 f9       	bld	r25, 7
    119a:	08 95       	ret
    119c:	e1 e0       	ldi	r30, 0x01	; 1
    119e:	66 0f       	add	r22, r22
    11a0:	77 1f       	adc	r23, r23
    11a2:	88 1f       	adc	r24, r24
    11a4:	bb 1f       	adc	r27, r27
    11a6:	62 17       	cp	r22, r18
    11a8:	73 07       	cpc	r23, r19
    11aa:	84 07       	cpc	r24, r20
    11ac:	ba 07       	cpc	r27, r26
    11ae:	20 f0       	brcs	.+8      	; 0x11b8 <__divsf3_pse+0xaa>
    11b0:	62 1b       	sub	r22, r18
    11b2:	73 0b       	sbc	r23, r19
    11b4:	84 0b       	sbc	r24, r20
    11b6:	ba 0b       	sbc	r27, r26
    11b8:	ee 1f       	adc	r30, r30
    11ba:	88 f7       	brcc	.-30     	; 0x119e <__divsf3_pse+0x90>
    11bc:	e0 95       	com	r30
    11be:	08 95       	ret

000011c0 <__fixsfsi>:
    11c0:	04 d0       	rcall	.+8      	; 0x11ca <__fixunssfsi>
    11c2:	68 94       	set
    11c4:	b1 11       	cpse	r27, r1
    11c6:	d9 c0       	rjmp	.+434    	; 0x137a <__fp_szero>
    11c8:	08 95       	ret

000011ca <__fixunssfsi>:
    11ca:	bc d0       	rcall	.+376    	; 0x1344 <__fp_splitA>
    11cc:	88 f0       	brcs	.+34     	; 0x11f0 <__fixunssfsi+0x26>
    11ce:	9f 57       	subi	r25, 0x7F	; 127
    11d0:	90 f0       	brcs	.+36     	; 0x11f6 <__fixunssfsi+0x2c>
    11d2:	b9 2f       	mov	r27, r25
    11d4:	99 27       	eor	r25, r25
    11d6:	b7 51       	subi	r27, 0x17	; 23
    11d8:	a0 f0       	brcs	.+40     	; 0x1202 <__fixunssfsi+0x38>
    11da:	d1 f0       	breq	.+52     	; 0x1210 <__fixunssfsi+0x46>
    11dc:	66 0f       	add	r22, r22
    11de:	77 1f       	adc	r23, r23
    11e0:	88 1f       	adc	r24, r24
    11e2:	99 1f       	adc	r25, r25
    11e4:	1a f0       	brmi	.+6      	; 0x11ec <__fixunssfsi+0x22>
    11e6:	ba 95       	dec	r27
    11e8:	c9 f7       	brne	.-14     	; 0x11dc <__fixunssfsi+0x12>
    11ea:	12 c0       	rjmp	.+36     	; 0x1210 <__fixunssfsi+0x46>
    11ec:	b1 30       	cpi	r27, 0x01	; 1
    11ee:	81 f0       	breq	.+32     	; 0x1210 <__fixunssfsi+0x46>
    11f0:	c3 d0       	rcall	.+390    	; 0x1378 <__fp_zero>
    11f2:	b1 e0       	ldi	r27, 0x01	; 1
    11f4:	08 95       	ret
    11f6:	c0 c0       	rjmp	.+384    	; 0x1378 <__fp_zero>
    11f8:	67 2f       	mov	r22, r23
    11fa:	78 2f       	mov	r23, r24
    11fc:	88 27       	eor	r24, r24
    11fe:	b8 5f       	subi	r27, 0xF8	; 248
    1200:	39 f0       	breq	.+14     	; 0x1210 <__fixunssfsi+0x46>
    1202:	b9 3f       	cpi	r27, 0xF9	; 249
    1204:	cc f3       	brlt	.-14     	; 0x11f8 <__fixunssfsi+0x2e>
    1206:	86 95       	lsr	r24
    1208:	77 95       	ror	r23
    120a:	67 95       	ror	r22
    120c:	b3 95       	inc	r27
    120e:	d9 f7       	brne	.-10     	; 0x1206 <__fixunssfsi+0x3c>
    1210:	3e f4       	brtc	.+14     	; 0x1220 <__fixunssfsi+0x56>
    1212:	90 95       	com	r25
    1214:	80 95       	com	r24
    1216:	70 95       	com	r23
    1218:	61 95       	neg	r22
    121a:	7f 4f       	sbci	r23, 0xFF	; 255
    121c:	8f 4f       	sbci	r24, 0xFF	; 255
    121e:	9f 4f       	sbci	r25, 0xFF	; 255
    1220:	08 95       	ret

00001222 <__floatunsisf>:
    1222:	e8 94       	clt
    1224:	09 c0       	rjmp	.+18     	; 0x1238 <__floatsisf+0x12>

00001226 <__floatsisf>:
    1226:	97 fb       	bst	r25, 7
    1228:	3e f4       	brtc	.+14     	; 0x1238 <__floatsisf+0x12>
    122a:	90 95       	com	r25
    122c:	80 95       	com	r24
    122e:	70 95       	com	r23
    1230:	61 95       	neg	r22
    1232:	7f 4f       	sbci	r23, 0xFF	; 255
    1234:	8f 4f       	sbci	r24, 0xFF	; 255
    1236:	9f 4f       	sbci	r25, 0xFF	; 255
    1238:	99 23       	and	r25, r25
    123a:	a9 f0       	breq	.+42     	; 0x1266 <__floatsisf+0x40>
    123c:	f9 2f       	mov	r31, r25
    123e:	96 e9       	ldi	r25, 0x96	; 150
    1240:	bb 27       	eor	r27, r27
    1242:	93 95       	inc	r25
    1244:	f6 95       	lsr	r31
    1246:	87 95       	ror	r24
    1248:	77 95       	ror	r23
    124a:	67 95       	ror	r22
    124c:	b7 95       	ror	r27
    124e:	f1 11       	cpse	r31, r1
    1250:	f8 cf       	rjmp	.-16     	; 0x1242 <__floatsisf+0x1c>
    1252:	fa f4       	brpl	.+62     	; 0x1292 <__floatsisf+0x6c>
    1254:	bb 0f       	add	r27, r27
    1256:	11 f4       	brne	.+4      	; 0x125c <__floatsisf+0x36>
    1258:	60 ff       	sbrs	r22, 0
    125a:	1b c0       	rjmp	.+54     	; 0x1292 <__floatsisf+0x6c>
    125c:	6f 5f       	subi	r22, 0xFF	; 255
    125e:	7f 4f       	sbci	r23, 0xFF	; 255
    1260:	8f 4f       	sbci	r24, 0xFF	; 255
    1262:	9f 4f       	sbci	r25, 0xFF	; 255
    1264:	16 c0       	rjmp	.+44     	; 0x1292 <__floatsisf+0x6c>
    1266:	88 23       	and	r24, r24
    1268:	11 f0       	breq	.+4      	; 0x126e <__floatsisf+0x48>
    126a:	96 e9       	ldi	r25, 0x96	; 150
    126c:	11 c0       	rjmp	.+34     	; 0x1290 <__floatsisf+0x6a>
    126e:	77 23       	and	r23, r23
    1270:	21 f0       	breq	.+8      	; 0x127a <__floatsisf+0x54>
    1272:	9e e8       	ldi	r25, 0x8E	; 142
    1274:	87 2f       	mov	r24, r23
    1276:	76 2f       	mov	r23, r22
    1278:	05 c0       	rjmp	.+10     	; 0x1284 <__floatsisf+0x5e>
    127a:	66 23       	and	r22, r22
    127c:	71 f0       	breq	.+28     	; 0x129a <__floatsisf+0x74>
    127e:	96 e8       	ldi	r25, 0x86	; 134
    1280:	86 2f       	mov	r24, r22
    1282:	70 e0       	ldi	r23, 0x00	; 0
    1284:	60 e0       	ldi	r22, 0x00	; 0
    1286:	2a f0       	brmi	.+10     	; 0x1292 <__floatsisf+0x6c>
    1288:	9a 95       	dec	r25
    128a:	66 0f       	add	r22, r22
    128c:	77 1f       	adc	r23, r23
    128e:	88 1f       	adc	r24, r24
    1290:	da f7       	brpl	.-10     	; 0x1288 <__floatsisf+0x62>
    1292:	88 0f       	add	r24, r24
    1294:	96 95       	lsr	r25
    1296:	87 95       	ror	r24
    1298:	97 f9       	bld	r25, 7
    129a:	08 95       	ret

0000129c <__fp_cmp>:
    129c:	99 0f       	add	r25, r25
    129e:	00 08       	sbc	r0, r0
    12a0:	55 0f       	add	r21, r21
    12a2:	aa 0b       	sbc	r26, r26
    12a4:	e0 e8       	ldi	r30, 0x80	; 128
    12a6:	fe ef       	ldi	r31, 0xFE	; 254
    12a8:	16 16       	cp	r1, r22
    12aa:	17 06       	cpc	r1, r23
    12ac:	e8 07       	cpc	r30, r24
    12ae:	f9 07       	cpc	r31, r25
    12b0:	c0 f0       	brcs	.+48     	; 0x12e2 <__fp_cmp+0x46>
    12b2:	12 16       	cp	r1, r18
    12b4:	13 06       	cpc	r1, r19
    12b6:	e4 07       	cpc	r30, r20
    12b8:	f5 07       	cpc	r31, r21
    12ba:	98 f0       	brcs	.+38     	; 0x12e2 <__fp_cmp+0x46>
    12bc:	62 1b       	sub	r22, r18
    12be:	73 0b       	sbc	r23, r19
    12c0:	84 0b       	sbc	r24, r20
    12c2:	95 0b       	sbc	r25, r21
    12c4:	39 f4       	brne	.+14     	; 0x12d4 <__fp_cmp+0x38>
    12c6:	0a 26       	eor	r0, r26
    12c8:	61 f0       	breq	.+24     	; 0x12e2 <__fp_cmp+0x46>
    12ca:	23 2b       	or	r18, r19
    12cc:	24 2b       	or	r18, r20
    12ce:	25 2b       	or	r18, r21
    12d0:	21 f4       	brne	.+8      	; 0x12da <__fp_cmp+0x3e>
    12d2:	08 95       	ret
    12d4:	0a 26       	eor	r0, r26
    12d6:	09 f4       	brne	.+2      	; 0x12da <__fp_cmp+0x3e>
    12d8:	a1 40       	sbci	r26, 0x01	; 1
    12da:	a6 95       	lsr	r26
    12dc:	8f ef       	ldi	r24, 0xFF	; 255
    12de:	81 1d       	adc	r24, r1
    12e0:	81 1d       	adc	r24, r1
    12e2:	08 95       	ret

000012e4 <__fp_inf>:
    12e4:	97 f9       	bld	r25, 7
    12e6:	9f 67       	ori	r25, 0x7F	; 127
    12e8:	80 e8       	ldi	r24, 0x80	; 128
    12ea:	70 e0       	ldi	r23, 0x00	; 0
    12ec:	60 e0       	ldi	r22, 0x00	; 0
    12ee:	08 95       	ret

000012f0 <__fp_nan>:
    12f0:	9f ef       	ldi	r25, 0xFF	; 255
    12f2:	80 ec       	ldi	r24, 0xC0	; 192
    12f4:	08 95       	ret

000012f6 <__fp_pscA>:
    12f6:	00 24       	eor	r0, r0
    12f8:	0a 94       	dec	r0
    12fa:	16 16       	cp	r1, r22
    12fc:	17 06       	cpc	r1, r23
    12fe:	18 06       	cpc	r1, r24
    1300:	09 06       	cpc	r0, r25
    1302:	08 95       	ret

00001304 <__fp_pscB>:
    1304:	00 24       	eor	r0, r0
    1306:	0a 94       	dec	r0
    1308:	12 16       	cp	r1, r18
    130a:	13 06       	cpc	r1, r19
    130c:	14 06       	cpc	r1, r20
    130e:	05 06       	cpc	r0, r21
    1310:	08 95       	ret

00001312 <__fp_round>:
    1312:	09 2e       	mov	r0, r25
    1314:	03 94       	inc	r0
    1316:	00 0c       	add	r0, r0
    1318:	11 f4       	brne	.+4      	; 0x131e <__fp_round+0xc>
    131a:	88 23       	and	r24, r24
    131c:	52 f0       	brmi	.+20     	; 0x1332 <__fp_round+0x20>
    131e:	bb 0f       	add	r27, r27
    1320:	40 f4       	brcc	.+16     	; 0x1332 <__fp_round+0x20>
    1322:	bf 2b       	or	r27, r31
    1324:	11 f4       	brne	.+4      	; 0x132a <__fp_round+0x18>
    1326:	60 ff       	sbrs	r22, 0
    1328:	04 c0       	rjmp	.+8      	; 0x1332 <__fp_round+0x20>
    132a:	6f 5f       	subi	r22, 0xFF	; 255
    132c:	7f 4f       	sbci	r23, 0xFF	; 255
    132e:	8f 4f       	sbci	r24, 0xFF	; 255
    1330:	9f 4f       	sbci	r25, 0xFF	; 255
    1332:	08 95       	ret

00001334 <__fp_split3>:
    1334:	57 fd       	sbrc	r21, 7
    1336:	90 58       	subi	r25, 0x80	; 128
    1338:	44 0f       	add	r20, r20
    133a:	55 1f       	adc	r21, r21
    133c:	59 f0       	breq	.+22     	; 0x1354 <__fp_splitA+0x10>
    133e:	5f 3f       	cpi	r21, 0xFF	; 255
    1340:	71 f0       	breq	.+28     	; 0x135e <__fp_splitA+0x1a>
    1342:	47 95       	ror	r20

00001344 <__fp_splitA>:
    1344:	88 0f       	add	r24, r24
    1346:	97 fb       	bst	r25, 7
    1348:	99 1f       	adc	r25, r25
    134a:	61 f0       	breq	.+24     	; 0x1364 <__fp_splitA+0x20>
    134c:	9f 3f       	cpi	r25, 0xFF	; 255
    134e:	79 f0       	breq	.+30     	; 0x136e <__fp_splitA+0x2a>
    1350:	87 95       	ror	r24
    1352:	08 95       	ret
    1354:	12 16       	cp	r1, r18
    1356:	13 06       	cpc	r1, r19
    1358:	14 06       	cpc	r1, r20
    135a:	55 1f       	adc	r21, r21
    135c:	f2 cf       	rjmp	.-28     	; 0x1342 <__fp_split3+0xe>
    135e:	46 95       	lsr	r20
    1360:	f1 df       	rcall	.-30     	; 0x1344 <__fp_splitA>
    1362:	08 c0       	rjmp	.+16     	; 0x1374 <__fp_splitA+0x30>
    1364:	16 16       	cp	r1, r22
    1366:	17 06       	cpc	r1, r23
    1368:	18 06       	cpc	r1, r24
    136a:	99 1f       	adc	r25, r25
    136c:	f1 cf       	rjmp	.-30     	; 0x1350 <__fp_splitA+0xc>
    136e:	86 95       	lsr	r24
    1370:	71 05       	cpc	r23, r1
    1372:	61 05       	cpc	r22, r1
    1374:	08 94       	sec
    1376:	08 95       	ret

00001378 <__fp_zero>:
    1378:	e8 94       	clt

0000137a <__fp_szero>:
    137a:	bb 27       	eor	r27, r27
    137c:	66 27       	eor	r22, r22
    137e:	77 27       	eor	r23, r23
    1380:	cb 01       	movw	r24, r22
    1382:	97 f9       	bld	r25, 7
    1384:	08 95       	ret

00001386 <__gesf2>:
    1386:	8a df       	rcall	.-236    	; 0x129c <__fp_cmp>
    1388:	08 f4       	brcc	.+2      	; 0x138c <__gesf2+0x6>
    138a:	8f ef       	ldi	r24, 0xFF	; 255
    138c:	08 95       	ret

0000138e <__mulsf3>:
    138e:	0b d0       	rcall	.+22     	; 0x13a6 <__mulsf3x>
    1390:	c0 cf       	rjmp	.-128    	; 0x1312 <__fp_round>
    1392:	b1 df       	rcall	.-158    	; 0x12f6 <__fp_pscA>
    1394:	28 f0       	brcs	.+10     	; 0x13a0 <__mulsf3+0x12>
    1396:	b6 df       	rcall	.-148    	; 0x1304 <__fp_pscB>
    1398:	18 f0       	brcs	.+6      	; 0x13a0 <__mulsf3+0x12>
    139a:	95 23       	and	r25, r21
    139c:	09 f0       	breq	.+2      	; 0x13a0 <__mulsf3+0x12>
    139e:	a2 cf       	rjmp	.-188    	; 0x12e4 <__fp_inf>
    13a0:	a7 cf       	rjmp	.-178    	; 0x12f0 <__fp_nan>
    13a2:	11 24       	eor	r1, r1
    13a4:	ea cf       	rjmp	.-44     	; 0x137a <__fp_szero>

000013a6 <__mulsf3x>:
    13a6:	c6 df       	rcall	.-116    	; 0x1334 <__fp_split3>
    13a8:	a0 f3       	brcs	.-24     	; 0x1392 <__mulsf3+0x4>

000013aa <__mulsf3_pse>:
    13aa:	95 9f       	mul	r25, r21
    13ac:	d1 f3       	breq	.-12     	; 0x13a2 <__mulsf3+0x14>
    13ae:	95 0f       	add	r25, r21
    13b0:	50 e0       	ldi	r21, 0x00	; 0
    13b2:	55 1f       	adc	r21, r21
    13b4:	62 9f       	mul	r22, r18
    13b6:	f0 01       	movw	r30, r0
    13b8:	72 9f       	mul	r23, r18
    13ba:	bb 27       	eor	r27, r27
    13bc:	f0 0d       	add	r31, r0
    13be:	b1 1d       	adc	r27, r1
    13c0:	63 9f       	mul	r22, r19
    13c2:	aa 27       	eor	r26, r26
    13c4:	f0 0d       	add	r31, r0
    13c6:	b1 1d       	adc	r27, r1
    13c8:	aa 1f       	adc	r26, r26
    13ca:	64 9f       	mul	r22, r20
    13cc:	66 27       	eor	r22, r22
    13ce:	b0 0d       	add	r27, r0
    13d0:	a1 1d       	adc	r26, r1
    13d2:	66 1f       	adc	r22, r22
    13d4:	82 9f       	mul	r24, r18
    13d6:	22 27       	eor	r18, r18
    13d8:	b0 0d       	add	r27, r0
    13da:	a1 1d       	adc	r26, r1
    13dc:	62 1f       	adc	r22, r18
    13de:	73 9f       	mul	r23, r19
    13e0:	b0 0d       	add	r27, r0
    13e2:	a1 1d       	adc	r26, r1
    13e4:	62 1f       	adc	r22, r18
    13e6:	83 9f       	mul	r24, r19
    13e8:	a0 0d       	add	r26, r0
    13ea:	61 1d       	adc	r22, r1
    13ec:	22 1f       	adc	r18, r18
    13ee:	74 9f       	mul	r23, r20
    13f0:	33 27       	eor	r19, r19
    13f2:	a0 0d       	add	r26, r0
    13f4:	61 1d       	adc	r22, r1
    13f6:	23 1f       	adc	r18, r19
    13f8:	84 9f       	mul	r24, r20
    13fa:	60 0d       	add	r22, r0
    13fc:	21 1d       	adc	r18, r1
    13fe:	82 2f       	mov	r24, r18
    1400:	76 2f       	mov	r23, r22
    1402:	6a 2f       	mov	r22, r26
    1404:	11 24       	eor	r1, r1
    1406:	9f 57       	subi	r25, 0x7F	; 127
    1408:	50 40       	sbci	r21, 0x00	; 0
    140a:	8a f0       	brmi	.+34     	; 0x142e <__mulsf3_pse+0x84>
    140c:	e1 f0       	breq	.+56     	; 0x1446 <__mulsf3_pse+0x9c>
    140e:	88 23       	and	r24, r24
    1410:	4a f0       	brmi	.+18     	; 0x1424 <__mulsf3_pse+0x7a>
    1412:	ee 0f       	add	r30, r30
    1414:	ff 1f       	adc	r31, r31
    1416:	bb 1f       	adc	r27, r27
    1418:	66 1f       	adc	r22, r22
    141a:	77 1f       	adc	r23, r23
    141c:	88 1f       	adc	r24, r24
    141e:	91 50       	subi	r25, 0x01	; 1
    1420:	50 40       	sbci	r21, 0x00	; 0
    1422:	a9 f7       	brne	.-22     	; 0x140e <__mulsf3_pse+0x64>
    1424:	9e 3f       	cpi	r25, 0xFE	; 254
    1426:	51 05       	cpc	r21, r1
    1428:	70 f0       	brcs	.+28     	; 0x1446 <__mulsf3_pse+0x9c>
    142a:	5c cf       	rjmp	.-328    	; 0x12e4 <__fp_inf>
    142c:	a6 cf       	rjmp	.-180    	; 0x137a <__fp_szero>
    142e:	5f 3f       	cpi	r21, 0xFF	; 255
    1430:	ec f3       	brlt	.-6      	; 0x142c <__mulsf3_pse+0x82>
    1432:	98 3e       	cpi	r25, 0xE8	; 232
    1434:	dc f3       	brlt	.-10     	; 0x142c <__mulsf3_pse+0x82>
    1436:	86 95       	lsr	r24
    1438:	77 95       	ror	r23
    143a:	67 95       	ror	r22
    143c:	b7 95       	ror	r27
    143e:	f7 95       	ror	r31
    1440:	e7 95       	ror	r30
    1442:	9f 5f       	subi	r25, 0xFF	; 255
    1444:	c1 f7       	brne	.-16     	; 0x1436 <__mulsf3_pse+0x8c>
    1446:	fe 2b       	or	r31, r30
    1448:	88 0f       	add	r24, r24
    144a:	91 1d       	adc	r25, r1
    144c:	96 95       	lsr	r25
    144e:	87 95       	ror	r24
    1450:	97 f9       	bld	r25, 7
    1452:	08 95       	ret

00001454 <__divmodhi4>:
    1454:	97 fb       	bst	r25, 7
    1456:	09 2e       	mov	r0, r25
    1458:	07 26       	eor	r0, r23
    145a:	0a d0       	rcall	.+20     	; 0x1470 <__divmodhi4_neg1>
    145c:	77 fd       	sbrc	r23, 7
    145e:	04 d0       	rcall	.+8      	; 0x1468 <__divmodhi4_neg2>
    1460:	0c d0       	rcall	.+24     	; 0x147a <__udivmodhi4>
    1462:	06 d0       	rcall	.+12     	; 0x1470 <__divmodhi4_neg1>
    1464:	00 20       	and	r0, r0
    1466:	1a f4       	brpl	.+6      	; 0x146e <__divmodhi4_exit>

00001468 <__divmodhi4_neg2>:
    1468:	70 95       	com	r23
    146a:	61 95       	neg	r22
    146c:	7f 4f       	sbci	r23, 0xFF	; 255

0000146e <__divmodhi4_exit>:
    146e:	08 95       	ret

00001470 <__divmodhi4_neg1>:
    1470:	f6 f7       	brtc	.-4      	; 0x146e <__divmodhi4_exit>
    1472:	90 95       	com	r25
    1474:	81 95       	neg	r24
    1476:	9f 4f       	sbci	r25, 0xFF	; 255
    1478:	08 95       	ret

0000147a <__udivmodhi4>:
    147a:	aa 1b       	sub	r26, r26
    147c:	bb 1b       	sub	r27, r27
    147e:	51 e1       	ldi	r21, 0x11	; 17
    1480:	07 c0       	rjmp	.+14     	; 0x1490 <__udivmodhi4_ep>

00001482 <__udivmodhi4_loop>:
    1482:	aa 1f       	adc	r26, r26
    1484:	bb 1f       	adc	r27, r27
    1486:	a6 17       	cp	r26, r22
    1488:	b7 07       	cpc	r27, r23
    148a:	10 f0       	brcs	.+4      	; 0x1490 <__udivmodhi4_ep>
    148c:	a6 1b       	sub	r26, r22
    148e:	b7 0b       	sbc	r27, r23

00001490 <__udivmodhi4_ep>:
    1490:	88 1f       	adc	r24, r24
    1492:	99 1f       	adc	r25, r25
    1494:	5a 95       	dec	r21
    1496:	a9 f7       	brne	.-22     	; 0x1482 <__udivmodhi4_loop>
    1498:	80 95       	com	r24
    149a:	90 95       	com	r25
    149c:	bc 01       	movw	r22, r24
    149e:	cd 01       	movw	r24, r26
    14a0:	08 95       	ret

000014a2 <fputs>:
    14a2:	ef 92       	push	r14
    14a4:	ff 92       	push	r15
    14a6:	0f 93       	push	r16
    14a8:	1f 93       	push	r17
    14aa:	cf 93       	push	r28
    14ac:	df 93       	push	r29
    14ae:	7c 01       	movw	r14, r24
    14b0:	8b 01       	movw	r16, r22
    14b2:	db 01       	movw	r26, r22
    14b4:	13 96       	adiw	r26, 0x03	; 3
    14b6:	8c 91       	ld	r24, X
    14b8:	81 fd       	sbrc	r24, 1
    14ba:	03 c0       	rjmp	.+6      	; 0x14c2 <fputs+0x20>
    14bc:	cf ef       	ldi	r28, 0xFF	; 255
    14be:	df ef       	ldi	r29, 0xFF	; 255
    14c0:	13 c0       	rjmp	.+38     	; 0x14e8 <fputs+0x46>
    14c2:	c0 e0       	ldi	r28, 0x00	; 0
    14c4:	d0 e0       	ldi	r29, 0x00	; 0
    14c6:	0b c0       	rjmp	.+22     	; 0x14de <fputs+0x3c>
    14c8:	d8 01       	movw	r26, r16
    14ca:	18 96       	adiw	r26, 0x08	; 8
    14cc:	ed 91       	ld	r30, X+
    14ce:	fc 91       	ld	r31, X
    14d0:	19 97       	sbiw	r26, 0x09	; 9
    14d2:	b8 01       	movw	r22, r16
    14d4:	09 95       	icall
    14d6:	89 2b       	or	r24, r25
    14d8:	11 f0       	breq	.+4      	; 0x14de <fputs+0x3c>
    14da:	cf ef       	ldi	r28, 0xFF	; 255
    14dc:	df ef       	ldi	r29, 0xFF	; 255
    14de:	f7 01       	movw	r30, r14
    14e0:	81 91       	ld	r24, Z+
    14e2:	7f 01       	movw	r14, r30
    14e4:	88 23       	and	r24, r24
    14e6:	81 f7       	brne	.-32     	; 0x14c8 <fputs+0x26>
    14e8:	ce 01       	movw	r24, r28
    14ea:	cd b7       	in	r28, 0x3d	; 61
    14ec:	de b7       	in	r29, 0x3e	; 62
    14ee:	e6 e0       	ldi	r30, 0x06	; 6
    14f0:	0c c0       	rjmp	.+24     	; 0x150a <__epilogue_restores__+0x18>

000014f2 <__epilogue_restores__>:
    14f2:	2a 88       	ldd	r2, Y+18	; 0x12
    14f4:	39 88       	ldd	r3, Y+17	; 0x11
    14f6:	48 88       	ldd	r4, Y+16	; 0x10
    14f8:	5f 84       	ldd	r5, Y+15	; 0x0f
    14fa:	6e 84       	ldd	r6, Y+14	; 0x0e
    14fc:	7d 84       	ldd	r7, Y+13	; 0x0d
    14fe:	8c 84       	ldd	r8, Y+12	; 0x0c
    1500:	9b 84       	ldd	r9, Y+11	; 0x0b
    1502:	aa 84       	ldd	r10, Y+10	; 0x0a
    1504:	b9 84       	ldd	r11, Y+9	; 0x09
    1506:	c8 84       	ldd	r12, Y+8	; 0x08
    1508:	df 80       	ldd	r13, Y+7	; 0x07
    150a:	ee 80       	ldd	r14, Y+6	; 0x06
    150c:	fd 80       	ldd	r15, Y+5	; 0x05
    150e:	0c 81       	ldd	r16, Y+4	; 0x04
    1510:	1b 81       	ldd	r17, Y+3	; 0x03
    1512:	aa 81       	ldd	r26, Y+2	; 0x02
    1514:	b9 81       	ldd	r27, Y+1	; 0x01
    1516:	ce 0f       	add	r28, r30
    1518:	d1 1d       	adc	r29, r1
    151a:	0f b6       	in	r0, 0x3f	; 63
    151c:	f8 94       	cli
    151e:	de bf       	out	0x3e, r29	; 62
    1520:	0f be       	out	0x3f, r0	; 63
    1522:	cd bf       	out	0x3d, r28	; 61
    1524:	ed 01       	movw	r28, r26
    1526:	08 95       	ret

00001528 <_exit>:
    1528:	f8 94       	cli

0000152a <__stop_program>:
    152a:	ff cf       	rjmp	.-2      	; 0x152a <__stop_program>
