
main.elf:     file format elf32-avr

Sections:
Idx Name          Size      VMA       LMA       File off  Algn
  0 .text         00000e4c  00000000  00000000  00000074  2**1
                  CONTENTS, ALLOC, LOAD, READONLY, CODE
  1 .bss          0000010a  00800060  00800060  00000ec0  2**0
                  ALLOC
  2 .debug_aranges 00000040  00000000  00000000  00000ec0  2**0
                  CONTENTS, READONLY, DEBUGGING
  3 .debug_pubnames 0000025e  00000000  00000000  00000f00  2**0
                  CONTENTS, READONLY, DEBUGGING
  4 .debug_info   00000cf2  00000000  00000000  0000115e  2**0
                  CONTENTS, READONLY, DEBUGGING
  5 .debug_abbrev 0000037e  00000000  00000000  00001e50  2**0
                  CONTENTS, READONLY, DEBUGGING
  6 .debug_line   00000dcb  00000000  00000000  000021ce  2**0
                  CONTENTS, READONLY, DEBUGGING
  7 .debug_frame  000001a0  00000000  00000000  00002f9c  2**2
                  CONTENTS, READONLY, DEBUGGING
  8 .debug_str    000003e9  00000000  00000000  0000313c  2**0
                  CONTENTS, READONLY, DEBUGGING
  9 .debug_loc    00000e67  00000000  00000000  00003525  2**0
                  CONTENTS, READONLY, DEBUGGING

Disassembly of section .text:

00000000 <__vectors>:
   0:	12 c0       	rjmp	.+36     	; 0x26 <__ctors_end>
   2:	21 c0       	rjmp	.+66     	; 0x46 <__bad_interrupt>
   4:	20 c0       	rjmp	.+64     	; 0x46 <__bad_interrupt>
   6:	1f c0       	rjmp	.+62     	; 0x46 <__bad_interrupt>
   8:	1e c0       	rjmp	.+60     	; 0x46 <__bad_interrupt>
   a:	1d c0       	rjmp	.+58     	; 0x46 <__bad_interrupt>
   c:	1c c0       	rjmp	.+56     	; 0x46 <__bad_interrupt>
   e:	1b c0       	rjmp	.+54     	; 0x46 <__bad_interrupt>
  10:	1a c0       	rjmp	.+52     	; 0x46 <__bad_interrupt>
  12:	19 c0       	rjmp	.+50     	; 0x46 <__bad_interrupt>
  14:	18 c0       	rjmp	.+48     	; 0x46 <__bad_interrupt>
  16:	17 c0       	rjmp	.+46     	; 0x46 <__bad_interrupt>
  18:	16 c0       	rjmp	.+44     	; 0x46 <__bad_interrupt>
  1a:	15 c0       	rjmp	.+42     	; 0x46 <__bad_interrupt>
  1c:	14 c0       	rjmp	.+40     	; 0x46 <__bad_interrupt>
  1e:	13 c0       	rjmp	.+38     	; 0x46 <__bad_interrupt>
  20:	12 c0       	rjmp	.+36     	; 0x46 <__bad_interrupt>
  22:	11 c0       	rjmp	.+34     	; 0x46 <__bad_interrupt>
  24:	10 c0       	rjmp	.+32     	; 0x46 <__bad_interrupt>

00000026 <__ctors_end>:
  26:	11 24       	eor	r1, r1
  28:	1f be       	out	0x3f, r1	; 63
  2a:	cf e5       	ldi	r28, 0x5F	; 95
  2c:	d4 e0       	ldi	r29, 0x04	; 4
  2e:	de bf       	out	0x3e, r29	; 62
  30:	cd bf       	out	0x3d, r28	; 61

00000032 <__do_clear_bss>:
  32:	11 e0       	ldi	r17, 0x01	; 1
  34:	a0 e6       	ldi	r26, 0x60	; 96
  36:	b0 e0       	ldi	r27, 0x00	; 0
  38:	01 c0       	rjmp	.+2      	; 0x3c <.do_clear_bss_start>

0000003a <.do_clear_bss_loop>:
  3a:	1d 92       	st	X+, r1

0000003c <.do_clear_bss_start>:
  3c:	aa 36       	cpi	r26, 0x6A	; 106
  3e:	b1 07       	cpc	r27, r17
  40:	e1 f7       	brne	.-8      	; 0x3a <.do_clear_bss_loop>
  42:	4a d0       	rcall	.+148    	; 0xd8 <main>
  44:	01 c7       	rjmp	.+3586   	; 0xe48 <_exit>

00000046 <__bad_interrupt>:
  46:	dc cf       	rjmp	.-72     	; 0x0 <__vectors>

00000048 <adc_init>:
	 }   
}

void adc_init(void)
{
ADMUX|=(1<<REFS0);               //AVCC with external capacitor at AREF
  48:	3e 9a       	sbi	0x07, 6	; 7
ADCSRA|=(1<<ADEN);               //ADC is enabled but no conversion is started
  4a:	37 9a       	sbi	0x06, 7	; 6
ADCSRA|=(1<<ADPS2);              //1MHZ/16=62.5KHZ
  4c:	32 9a       	sbi	0x06, 2	; 6
ADMUX|=(1<<ADLAR);               //result is left adjusted and only ADCH will be read s 8 bit presision is required 
  4e:	3d 9a       	sbi	0x07, 5	; 7
}
  50:	08 95       	ret

00000052 <read_adc_value>:

uint8_t read_adc_value(uint8_t state)
{
uint16_t value_adc;
state=state&0b00000111;
ADMUX&=0b11111000;           //clear bottom 3 bits
  52:	97 b1       	in	r25, 0x07	; 7
  54:	98 7f       	andi	r25, 0xF8	; 248
  56:	97 b9       	out	0x07, r25	; 7
ADMUX|=state;                //set to new channel 
  58:	97 b1       	in	r25, 0x07	; 7
  5a:	87 70       	andi	r24, 0x07	; 7
  5c:	89 2b       	or	r24, r25
  5e:	87 b9       	out	0x07, r24	; 7
ADCSRA|=(1<<ADSC);           //ADC was enabled but conversion didnot start until now
  60:	36 9a       	sbi	0x06, 6	; 6
while(!(ADCSRA&(1<<ADIF)))   //wait until conversion is completed ie until ADIF flag is set 
  62:	34 9b       	sbis	0x06, 4	; 6
  64:	fe cf       	rjmp	.-4      	; 0x62 <read_adc_value+0x10>
     {;}
ADCSRA|=(1<<ADIF);           //ADIF is 0 now
  66:	34 9a       	sbi	0x06, 4	; 6

/*value_adc=ADCL;        //ADCL data register read first as result is right adjusted
value_adc+=(ADCH<<8);  //ADCH data register read*/

value_adc = ADCH;      //ADCH data register read first as result is left adjusted
  68:	85 b1       	in	r24, 0x05	; 5

return(value_adc);
}
  6a:	08 95       	ret

0000006c <plot_total_screen>:

void plot_total_screen(void)
{
  6c:	1f 93       	push	r17
for(t=0; t<=127; t++)
  6e:	10 92 61 00 	sts	0x0061, r1
   {
   if(v[t]!=temp[t])
     {
	 ks0108SetDot(t,(63-temp[t]),WHITE);
  72:	1f e3       	ldi	r17, 0x3F	; 63
  74:	2b c0       	rjmp	.+86     	; 0xcc <plot_total_screen+0x60>

void plot_total_screen(void)
{
for(t=0; t<=127; t++)
   {
   if(v[t]!=temp[t])
  76:	e0 91 61 00 	lds	r30, 0x0061
  7a:	f0 e0       	ldi	r31, 0x00	; 0
  7c:	ee 51       	subi	r30, 0x1E	; 30
  7e:	ff 4f       	sbci	r31, 0xFF	; 255
  80:	90 81       	ld	r25, Z
  82:	e0 91 61 00 	lds	r30, 0x0061
  86:	f0 e0       	ldi	r31, 0x00	; 0
  88:	ee 59       	subi	r30, 0x9E	; 158
  8a:	ff 4f       	sbci	r31, 0xFF	; 255
  8c:	80 81       	ld	r24, Z
  8e:	98 17       	cp	r25, r24
  90:	c1 f0       	breq	.+48     	; 0xc2 <plot_total_screen+0x56>
     {
	 ks0108SetDot(t,(63-temp[t]),WHITE);
  92:	80 91 61 00 	lds	r24, 0x0061
  96:	e0 91 61 00 	lds	r30, 0x0061
  9a:	f0 e0       	ldi	r31, 0x00	; 0
  9c:	ee 59       	subi	r30, 0x9E	; 158
  9e:	ff 4f       	sbci	r31, 0xFF	; 255
  a0:	90 81       	ld	r25, Z
  a2:	61 2f       	mov	r22, r17
  a4:	69 1b       	sub	r22, r25
  a6:	40 e0       	ldi	r20, 0x00	; 0
  a8:	34 d3       	rcall	.+1640   	; 0x712 <ks0108SetDot>
     ks0108SetDot(t,(63-v[t]),BLACK);
  aa:	80 91 61 00 	lds	r24, 0x0061
  ae:	e0 91 61 00 	lds	r30, 0x0061
  b2:	f0 e0       	ldi	r31, 0x00	; 0
  b4:	ee 51       	subi	r30, 0x1E	; 30
  b6:	ff 4f       	sbci	r31, 0xFF	; 255
  b8:	90 81       	ld	r25, Z
  ba:	61 2f       	mov	r22, r17
  bc:	69 1b       	sub	r22, r25
  be:	4f ef       	ldi	r20, 0xFF	; 255
  c0:	28 d3       	rcall	.+1616   	; 0x712 <ks0108SetDot>
return(value_adc);
}

void plot_total_screen(void)
{
for(t=0; t<=127; t++)
  c2:	80 91 61 00 	lds	r24, 0x0061
  c6:	8f 5f       	subi	r24, 0xFF	; 255
  c8:	80 93 61 00 	sts	0x0061, r24
  cc:	80 91 61 00 	lds	r24, 0x0061
  d0:	87 ff       	sbrs	r24, 7
  d2:	d1 cf       	rjmp	.-94     	; 0x76 <plot_total_screen+0xa>
	 }
   else
     {
	 }
   }
  d4:	1f 91       	pop	r17
  d6:	08 95       	ret

000000d8 <main>:
volatile uint8_t t;        //time 1px=1time loop variable 
volatile uint8_t read_adc_value(uint8_t);             //sub function for adc value reading


void main(void)
{
  d8:	0f 93       	push	r16
//uint8_t x ;

uint8_t adc_8;

adc_init();       //initialize adc 
  da:	b6 df       	rcall	.-148    	; 0x48 <adc_init>
  dc:	80 e2       	ldi	r24, 0x20	; 32
  de:	9e e4       	ldi	r25, 0x4E	; 78
    milliseconds can be achieved.
 */
void
_delay_loop_2(uint16_t __count)
{
	__asm__ volatile (
  e0:	29 e1       	ldi	r18, 0x19	; 25
  e2:	30 e0       	ldi	r19, 0x00	; 0
  e4:	f9 01       	movw	r30, r18
  e6:	31 97       	sbiw	r30, 0x01	; 1
  e8:	f1 f7       	brne	.-4      	; 0xe6 <main+0xe>
		__ticks = (uint16_t) (__ms * 10.0);
		while(__ticks)
		{
			// wait 1/10 ms
			_delay_loop_2(((F_CPU) / 4e3) / 10);
			__ticks --;
  ea:	01 97       	sbiw	r24, 0x01	; 1
		__ticks = 1;
	else if (__tmp > 65535)
	{
		//	__ticks = requested delay in 1/10 ms
		__ticks = (uint16_t) (__ms * 10.0);
		while(__ticks)
  ec:	d9 f7       	brne	.-10     	; 0xe4 <main+0xc>
   v[t] = adc_8;                //all values are set to current adc value 
   }*/

_delay_ms(2000);  // Wait a little while the display starts up

ks0108Init(0);    // Initialize the LCD
  ee:	80 e0       	ldi	r24, 0x00	; 0
  f0:	61 d4       	rcall	.+2242   	; 0x9b4 <ks0108Init>

ks0108ClearScreen();  //clear total screen 
  f2:	80 e0       	ldi	r24, 0x00	; 0
  f4:	60 e0       	ldi	r22, 0x00	; 0
  f6:	4f e7       	ldi	r20, 0x7F	; 127
  f8:	2f e3       	ldi	r18, 0x3F	; 63
  fa:	00 e0       	ldi	r16, 0x00	; 0
  fc:	cf d3       	rcall	.+1950   	; 0x89c <ks0108FillRect>
	 for(t=0; t<=127; t++)
	    {
		temp[t]=v[t];
		}
	 adc_8=read_adc_value(0);
	 v[127]=(int)((adc_8*63)/255);
  fe:	0f e3       	ldi	r16, 0x3F	; 63

//plot_total_screen();   
   
while(1)
     {
	 for(t=0; t<=127; t++)
 100:	10 92 61 00 	sts	0x0061, r1
 104:	11 c0       	rjmp	.+34     	; 0x128 <main+0x50>
	    {
		temp[t]=v[t];
 106:	a0 91 61 00 	lds	r26, 0x0061
 10a:	b0 e0       	ldi	r27, 0x00	; 0
 10c:	e0 91 61 00 	lds	r30, 0x0061
 110:	f0 e0       	ldi	r31, 0x00	; 0
 112:	ee 51       	subi	r30, 0x1E	; 30
 114:	ff 4f       	sbci	r31, 0xFF	; 255
 116:	80 81       	ld	r24, Z
 118:	ae 59       	subi	r26, 0x9E	; 158
 11a:	bf 4f       	sbci	r27, 0xFF	; 255
 11c:	8c 93       	st	X, r24

//plot_total_screen();   
   
while(1)
     {
	 for(t=0; t<=127; t++)
 11e:	80 91 61 00 	lds	r24, 0x0061
 122:	8f 5f       	subi	r24, 0xFF	; 255
 124:	80 93 61 00 	sts	0x0061, r24
 128:	80 91 61 00 	lds	r24, 0x0061
 12c:	87 ff       	sbrs	r24, 7
 12e:	eb cf       	rjmp	.-42     	; 0x106 <main+0x2e>
	    {
		temp[t]=v[t];
		}
	 adc_8=read_adc_value(0);
 130:	80 e0       	ldi	r24, 0x00	; 0
 132:	8f df       	rcall	.-226    	; 0x52 <read_adc_value>
	 v[127]=(int)((adc_8*63)/255);
 134:	80 9f       	mul	r24, r16
 136:	c0 01       	movw	r24, r0
 138:	11 24       	eor	r1, r1
 13a:	6f ef       	ldi	r22, 0xFF	; 255
 13c:	70 e0       	ldi	r23, 0x00	; 0
 13e:	5d d6       	rcall	.+3258   	; 0xdfa <__divmodhi4>
 140:	60 93 61 01 	sts	0x0161, r22
	 for(t=0; t<=126; t++)
 144:	10 92 61 00 	sts	0x0061, r1
 148:	11 c0       	rjmp	.+34     	; 0x16c <main+0x94>
        {
		v[t]=v[t+1];
 14a:	a0 91 61 00 	lds	r26, 0x0061
 14e:	b0 e0       	ldi	r27, 0x00	; 0
 150:	e0 91 61 00 	lds	r30, 0x0061
 154:	f0 e0       	ldi	r31, 0x00	; 0
 156:	ed 51       	subi	r30, 0x1D	; 29
 158:	ff 4f       	sbci	r31, 0xFF	; 255
 15a:	80 81       	ld	r24, Z
 15c:	ae 51       	subi	r26, 0x1E	; 30
 15e:	bf 4f       	sbci	r27, 0xFF	; 255
 160:	8c 93       	st	X, r24
	    {
		temp[t]=v[t];
		}
	 adc_8=read_adc_value(0);
	 v[127]=(int)((adc_8*63)/255);
	 for(t=0; t<=126; t++)
 162:	80 91 61 00 	lds	r24, 0x0061
 166:	8f 5f       	subi	r24, 0xFF	; 255
 168:	80 93 61 00 	sts	0x0061, r24
 16c:	80 91 61 00 	lds	r24, 0x0061
 170:	8f 37       	cpi	r24, 0x7F	; 127
 172:	58 f3       	brcs	.-42     	; 0x14a <main+0x72>
        {
		v[t]=v[t+1];
        }
 	 plot_total_screen();
 174:	7b df       	rcall	.-266    	; 0x6c <plot_total_screen>
 176:	c4 cf       	rjmp	.-120    	; 0x100 <main+0x28>

00000178 <ks0108ReadFontData>:
 178:	fc 01       	movw	r30, r24
 17a:	84 91       	lpm	r24, Z+
 17c:	08 95       	ret

0000017e <ks0108SelectFont>:
 17e:	90 93 69 01 	sts	0x0169, r25
 182:	80 93 68 01 	sts	0x0168, r24
 186:	70 93 67 01 	sts	0x0167, r23
 18a:	60 93 66 01 	sts	0x0166, r22
 18e:	40 93 62 01 	sts	0x0162, r20
 192:	08 95       	ret

00000194 <ks0108CharWidth>:
 194:	0f 93       	push	r16
 196:	1f 93       	push	r17
 198:	08 2f       	mov	r16, r24
 19a:	80 91 68 01 	lds	r24, 0x0168
 19e:	90 91 69 01 	lds	r25, 0x0169
 1a2:	e0 91 66 01 	lds	r30, 0x0166
 1a6:	f0 91 67 01 	lds	r31, 0x0167
 1aa:	04 96       	adiw	r24, 0x04	; 4
 1ac:	09 95       	icall
 1ae:	18 2f       	mov	r17, r24
 1b0:	80 91 68 01 	lds	r24, 0x0168
 1b4:	90 91 69 01 	lds	r25, 0x0169
 1b8:	e0 91 66 01 	lds	r30, 0x0166
 1bc:	f0 91 67 01 	lds	r31, 0x0167
 1c0:	05 96       	adiw	r24, 0x05	; 5
 1c2:	09 95       	icall
 1c4:	48 2f       	mov	r20, r24
 1c6:	01 17       	cp	r16, r17
 1c8:	d8 f0       	brcs	.+54     	; 0x200 <ks0108CharWidth+0x6c>
 1ca:	20 2f       	mov	r18, r16
 1cc:	30 e0       	ldi	r19, 0x00	; 0
 1ce:	81 2f       	mov	r24, r17
 1d0:	90 e0       	ldi	r25, 0x00	; 0
 1d2:	84 0f       	add	r24, r20
 1d4:	91 1d       	adc	r25, r1
 1d6:	28 17       	cp	r18, r24
 1d8:	39 07       	cpc	r19, r25
 1da:	94 f4       	brge	.+36     	; 0x200 <ks0108CharWidth+0x6c>
 1dc:	01 1b       	sub	r16, r17
 1de:	20 2f       	mov	r18, r16
 1e0:	30 e0       	ldi	r19, 0x00	; 0
 1e2:	2a 5f       	subi	r18, 0xFA	; 250
 1e4:	3f 4f       	sbci	r19, 0xFF	; 255
 1e6:	80 91 68 01 	lds	r24, 0x0168
 1ea:	90 91 69 01 	lds	r25, 0x0169
 1ee:	e0 91 66 01 	lds	r30, 0x0166
 1f2:	f0 91 67 01 	lds	r31, 0x0167
 1f6:	82 0f       	add	r24, r18
 1f8:	93 1f       	adc	r25, r19
 1fa:	09 95       	icall
 1fc:	8f 5f       	subi	r24, 0xFF	; 255
 1fe:	01 c0       	rjmp	.+2      	; 0x202 <ks0108CharWidth+0x6e>
 200:	80 e0       	ldi	r24, 0x00	; 0
 202:	1f 91       	pop	r17
 204:	0f 91       	pop	r16
 206:	08 95       	ret

00000208 <ks0108StringWidth>:
 208:	0f 93       	push	r16
 20a:	1f 93       	push	r17
 20c:	cf 93       	push	r28
 20e:	df 93       	push	r29
 210:	8c 01       	movw	r16, r24
 212:	c0 e0       	ldi	r28, 0x00	; 0
 214:	d0 e0       	ldi	r29, 0x00	; 0
 216:	05 c0       	rjmp	.+10     	; 0x222 <ks0108StringWidth+0x1a>
 218:	0f 5f       	subi	r16, 0xFF	; 255
 21a:	1f 4f       	sbci	r17, 0xFF	; 255
 21c:	bb df       	rcall	.-138    	; 0x194 <ks0108CharWidth>
 21e:	c8 0f       	add	r28, r24
 220:	d1 1d       	adc	r29, r1
 222:	f8 01       	movw	r30, r16
 224:	80 81       	ld	r24, Z
 226:	88 23       	and	r24, r24
 228:	b9 f7       	brne	.-18     	; 0x218 <ks0108StringWidth+0x10>
 22a:	ce 01       	movw	r24, r28
 22c:	df 91       	pop	r29
 22e:	cf 91       	pop	r28
 230:	1f 91       	pop	r17
 232:	0f 91       	pop	r16
 234:	08 95       	ret

00000236 <ks0108StringWidth_P>:
 236:	0f 93       	push	r16
 238:	1f 93       	push	r17
 23a:	cf 93       	push	r28
 23c:	df 93       	push	r29
 23e:	ec 01       	movw	r28, r24
 240:	00 e0       	ldi	r16, 0x00	; 0
 242:	10 e0       	ldi	r17, 0x00	; 0
 244:	06 c0       	rjmp	.+12     	; 0x252 <ks0108StringWidth_P+0x1c>
 246:	21 96       	adiw	r28, 0x01	; 1
 248:	f9 01       	movw	r30, r18
 24a:	84 91       	lpm	r24, Z+
 24c:	a3 df       	rcall	.-186    	; 0x194 <ks0108CharWidth>
 24e:	08 0f       	add	r16, r24
 250:	11 1d       	adc	r17, r1
 252:	9e 01       	movw	r18, r28
 254:	fe 01       	movw	r30, r28
 256:	84 91       	lpm	r24, Z+
 258:	88 23       	and	r24, r24
 25a:	a9 f7       	brne	.-22     	; 0x246 <ks0108StringWidth_P+0x10>
 25c:	c8 01       	movw	r24, r16
 25e:	df 91       	pop	r29
 260:	cf 91       	pop	r28
 262:	1f 91       	pop	r17
 264:	0f 91       	pop	r16
 266:	08 95       	ret

00000268 <ks0108WriteCommand>:
 268:	df 93       	push	r29
 26a:	cf 93       	push	r28
 26c:	0f 92       	push	r0
 26e:	cd b7       	in	r28, 0x3d	; 61
 270:	de b7       	in	r29, 0x3e	; 62
 272:	98 2f       	mov	r25, r24
 274:	66 23       	and	r22, r22
 276:	19 f4       	brne	.+6      	; 0x27e <ks0108WriteCommand+0x16>
 278:	94 98       	cbi	0x12, 4	; 18
 27a:	93 9a       	sbi	0x12, 3	; 18
 27c:	04 c0       	rjmp	.+8      	; 0x286 <ks0108WriteCommand+0x1e>
 27e:	61 30       	cpi	r22, 0x01	; 1
 280:	11 f4       	brne	.+4      	; 0x286 <ks0108WriteCommand+0x1e>
 282:	93 98       	cbi	0x12, 3	; 18
 284:	94 9a       	sbi	0x12, 4	; 18
 286:	90 98       	cbi	0x12, 0	; 18
 288:	91 98       	cbi	0x12, 1	; 18
 28a:	8f ef       	ldi	r24, 0xFF	; 255
 28c:	87 bb       	out	0x17, r24	; 23
 28e:	98 bb       	out	0x18, r25	; 24
 290:	92 9a       	sbi	0x12, 2	; 18
 292:	00 00       	nop
 294:	00 00       	nop
 296:	00 00       	nop
 298:	92 98       	cbi	0x12, 2	; 18
 29a:	19 82       	std	Y+1, r1	; 0x01
 29c:	03 c0       	rjmp	.+6      	; 0x2a4 <ks0108WriteCommand+0x3c>
 29e:	89 81       	ldd	r24, Y+1	; 0x01
 2a0:	8f 5f       	subi	r24, 0xFF	; 255
 2a2:	89 83       	std	Y+1, r24	; 0x01
 2a4:	89 81       	ldd	r24, Y+1	; 0x01
 2a6:	88 30       	cpi	r24, 0x08	; 8
 2a8:	d0 f3       	brcs	.-12     	; 0x29e <ks0108WriteCommand+0x36>
 2aa:	18 ba       	out	0x18, r1	; 24
 2ac:	0f 90       	pop	r0
 2ae:	cf 91       	pop	r28
 2b0:	df 91       	pop	r29
 2b2:	08 95       	ret

000002b4 <ks0108GotoXY>:
 2b4:	1f 93       	push	r17
 2b6:	87 fd       	sbrc	r24, 7
 2b8:	80 e0       	ldi	r24, 0x00	; 0
 2ba:	60 34       	cpi	r22, 0x40	; 64
 2bc:	08 f0       	brcs	.+2      	; 0x2c0 <ks0108GotoXY+0xc>
 2be:	60 e0       	ldi	r22, 0x00	; 0
 2c0:	80 93 63 01 	sts	0x0163, r24
 2c4:	60 93 64 01 	sts	0x0164, r22
 2c8:	66 95       	lsr	r22
 2ca:	66 95       	lsr	r22
 2cc:	66 95       	lsr	r22
 2ce:	60 93 65 01 	sts	0x0165, r22
 2d2:	80 34       	cpi	r24, 0x40	; 64
 2d4:	10 f4       	brcc	.+4      	; 0x2da <ks0108GotoXY+0x26>
 2d6:	60 e0       	ldi	r22, 0x00	; 0
 2d8:	02 c0       	rjmp	.+4      	; 0x2de <ks0108GotoXY+0x2a>
 2da:	80 54       	subi	r24, 0x40	; 64
 2dc:	61 e0       	ldi	r22, 0x01	; 1
 2de:	80 64       	ori	r24, 0x40	; 64
 2e0:	c3 df       	rcall	.-122    	; 0x268 <ks0108WriteCommand>
 2e2:	10 91 65 01 	lds	r17, 0x0165
 2e6:	18 6b       	ori	r17, 0xB8	; 184
 2e8:	81 2f       	mov	r24, r17
 2ea:	60 e0       	ldi	r22, 0x00	; 0
 2ec:	bd df       	rcall	.-134    	; 0x268 <ks0108WriteCommand>
 2ee:	81 2f       	mov	r24, r17
 2f0:	61 e0       	ldi	r22, 0x01	; 1
 2f2:	ba df       	rcall	.-140    	; 0x268 <ks0108WriteCommand>
 2f4:	1f 91       	pop	r17
 2f6:	08 95       	ret

000002f8 <ks0108DoReadData>:
 2f8:	1f 93       	push	r17
 2fa:	df 93       	push	r29
 2fc:	cf 93       	push	r28
 2fe:	0f 92       	push	r0
 300:	cd b7       	in	r28, 0x3d	; 61
 302:	de b7       	in	r29, 0x3e	; 62
 304:	18 ba       	out	0x18, r1	; 24
 306:	17 ba       	out	0x17, r1	; 23
 308:	90 91 63 01 	lds	r25, 0x0163
 30c:	90 34       	cpi	r25, 0x40	; 64
 30e:	18 f4       	brcc	.+6      	; 0x316 <ks0108DoReadData+0x1e>
 310:	94 98       	cbi	0x12, 4	; 18
 312:	93 9a       	sbi	0x12, 3	; 18
 314:	02 c0       	rjmp	.+4      	; 0x31a <ks0108DoReadData+0x22>
 316:	93 98       	cbi	0x12, 3	; 18
 318:	94 9a       	sbi	0x12, 4	; 18
 31a:	90 34       	cpi	r25, 0x40	; 64
 31c:	29 f4       	brne	.+10     	; 0x328 <ks0108DoReadData+0x30>
 31e:	88 23       	and	r24, r24
 320:	19 f0       	breq	.+6      	; 0x328 <ks0108DoReadData+0x30>
 322:	80 e4       	ldi	r24, 0x40	; 64
 324:	61 e0       	ldi	r22, 0x01	; 1
 326:	a0 df       	rcall	.-192    	; 0x268 <ks0108WriteCommand>
 328:	90 9a       	sbi	0x12, 0	; 18
 32a:	91 9a       	sbi	0x12, 1	; 18
 32c:	92 9a       	sbi	0x12, 2	; 18
 32e:	00 00       	nop
 330:	00 00       	nop
 332:	00 00       	nop
 334:	16 b3       	in	r17, 0x16	; 22
 336:	92 98       	cbi	0x12, 2	; 18
 338:	19 82       	std	Y+1, r1	; 0x01
 33a:	03 c0       	rjmp	.+6      	; 0x342 <ks0108DoReadData+0x4a>
 33c:	89 81       	ldd	r24, Y+1	; 0x01
 33e:	8f 5f       	subi	r24, 0xFF	; 255
 340:	89 83       	std	Y+1, r24	; 0x01
 342:	89 81       	ldd	r24, Y+1	; 0x01
 344:	88 30       	cpi	r24, 0x08	; 8
 346:	d0 f3       	brcs	.-12     	; 0x33c <ks0108DoReadData+0x44>
 348:	8f ef       	ldi	r24, 0xFF	; 255
 34a:	87 bb       	out	0x17, r24	; 23
 34c:	80 91 63 01 	lds	r24, 0x0163
 350:	60 91 64 01 	lds	r22, 0x0164
 354:	af df       	rcall	.-162    	; 0x2b4 <ks0108GotoXY>
 356:	80 91 60 00 	lds	r24, 0x0060
 35a:	81 11       	cpse	r24, r1
 35c:	10 95       	com	r17
 35e:	81 2f       	mov	r24, r17
 360:	0f 90       	pop	r0
 362:	cf 91       	pop	r28
 364:	df 91       	pop	r29
 366:	1f 91       	pop	r17
 368:	08 95       	ret

0000036a <ks0108WriteData>:
 36a:	df 92       	push	r13
 36c:	ef 92       	push	r14
 36e:	ff 92       	push	r15
 370:	0f 93       	push	r16
 372:	1f 93       	push	r17
 374:	df 93       	push	r29
 376:	cf 93       	push	r28
 378:	0f 92       	push	r0
 37a:	cd b7       	in	r28, 0x3d	; 61
 37c:	de b7       	in	r29, 0x3e	; 62
 37e:	f8 2e       	mov	r15, r24
 380:	80 91 63 01 	lds	r24, 0x0163
 384:	87 fd       	sbrc	r24, 7
 386:	84 c0       	rjmp	.+264    	; 0x490 <__stack+0x31>
 388:	80 34       	cpi	r24, 0x40	; 64
 38a:	18 f4       	brcc	.+6      	; 0x392 <ks0108WriteData+0x28>
 38c:	94 98       	cbi	0x12, 4	; 18
 38e:	93 9a       	sbi	0x12, 3	; 18
 390:	02 c0       	rjmp	.+4      	; 0x396 <ks0108WriteData+0x2c>
 392:	93 98       	cbi	0x12, 3	; 18
 394:	94 9a       	sbi	0x12, 4	; 18
 396:	80 34       	cpi	r24, 0x40	; 64
 398:	11 f4       	brne	.+4      	; 0x39e <ks0108WriteData+0x34>
 39a:	61 e0       	ldi	r22, 0x01	; 1
 39c:	65 df       	rcall	.-310    	; 0x268 <ks0108WriteCommand>
 39e:	90 9a       	sbi	0x12, 0	; 18
 3a0:	91 98       	cbi	0x12, 1	; 18
 3a2:	0f ef       	ldi	r16, 0xFF	; 255
 3a4:	07 bb       	out	0x17, r16	; 23
 3a6:	10 91 64 01 	lds	r17, 0x0164
 3aa:	17 70       	andi	r17, 0x07	; 7
 3ac:	09 f4       	brne	.+2      	; 0x3b0 <ks0108WriteData+0x46>
 3ae:	58 c0       	rjmp	.+176    	; 0x460 <__stack+0x1>
 3b0:	d2 b2       	in	r13, 0x12	; 18
 3b2:	81 e0       	ldi	r24, 0x01	; 1
 3b4:	a1 df       	rcall	.-190    	; 0x2f8 <ks0108DoReadData>
 3b6:	80 e0       	ldi	r24, 0x00	; 0
 3b8:	9f df       	rcall	.-194    	; 0x2f8 <ks0108DoReadData>
 3ba:	d2 ba       	out	0x12, r13	; 18
 3bc:	07 bb       	out	0x17, r16	; 23
 3be:	ef 2c       	mov	r14, r15
 3c0:	ff 24       	eor	r15, r15
 3c2:	01 2f       	mov	r16, r17
 3c4:	10 e0       	ldi	r17, 0x00	; 0
 3c6:	97 01       	movw	r18, r14
 3c8:	00 2e       	mov	r0, r16
 3ca:	02 c0       	rjmp	.+4      	; 0x3d0 <ks0108WriteData+0x66>
 3cc:	22 0f       	add	r18, r18
 3ce:	33 1f       	adc	r19, r19
 3d0:	0a 94       	dec	r0
 3d2:	e2 f7       	brpl	.-8      	; 0x3cc <ks0108WriteData+0x62>
 3d4:	98 2f       	mov	r25, r24
 3d6:	92 2b       	or	r25, r18
 3d8:	80 91 60 00 	lds	r24, 0x0060
 3dc:	81 11       	cpse	r24, r1
 3de:	90 95       	com	r25
 3e0:	98 bb       	out	0x18, r25	; 24
 3e2:	92 9a       	sbi	0x12, 2	; 18
 3e4:	00 00       	nop
 3e6:	00 00       	nop
 3e8:	00 00       	nop
 3ea:	92 98       	cbi	0x12, 2	; 18
 3ec:	19 82       	std	Y+1, r1	; 0x01
 3ee:	03 c0       	rjmp	.+6      	; 0x3f6 <ks0108WriteData+0x8c>
 3f0:	89 81       	ldd	r24, Y+1	; 0x01
 3f2:	8f 5f       	subi	r24, 0xFF	; 255
 3f4:	89 83       	std	Y+1, r24	; 0x01
 3f6:	89 81       	ldd	r24, Y+1	; 0x01
 3f8:	88 30       	cpi	r24, 0x08	; 8
 3fa:	d0 f3       	brcs	.-12     	; 0x3f0 <ks0108WriteData+0x86>
 3fc:	60 91 64 01 	lds	r22, 0x0164
 400:	68 5f       	subi	r22, 0xF8	; 248
 402:	80 91 63 01 	lds	r24, 0x0163
 406:	56 df       	rcall	.-340    	; 0x2b4 <ks0108GotoXY>
 408:	81 e0       	ldi	r24, 0x01	; 1
 40a:	76 df       	rcall	.-276    	; 0x2f8 <ks0108DoReadData>
 40c:	80 e0       	ldi	r24, 0x00	; 0
 40e:	74 df       	rcall	.-280    	; 0x2f8 <ks0108DoReadData>
 410:	d2 ba       	out	0x12, r13	; 18
 412:	9f ef       	ldi	r25, 0xFF	; 255
 414:	97 bb       	out	0x17, r25	; 23
 416:	28 e0       	ldi	r18, 0x08	; 8
 418:	30 e0       	ldi	r19, 0x00	; 0
 41a:	20 1b       	sub	r18, r16
 41c:	31 0b       	sbc	r19, r17
 41e:	02 c0       	rjmp	.+4      	; 0x424 <ks0108WriteData+0xba>
 420:	f5 94       	asr	r15
 422:	e7 94       	ror	r14
 424:	2a 95       	dec	r18
 426:	e2 f7       	brpl	.-8      	; 0x420 <ks0108WriteData+0xb6>
 428:	28 2f       	mov	r18, r24
 42a:	2e 29       	or	r18, r14
 42c:	80 91 60 00 	lds	r24, 0x0060
 430:	81 11       	cpse	r24, r1
 432:	20 95       	com	r18
 434:	28 bb       	out	0x18, r18	; 24
 436:	92 9a       	sbi	0x12, 2	; 18
 438:	00 00       	nop
 43a:	00 00       	nop
 43c:	00 00       	nop
 43e:	92 98       	cbi	0x12, 2	; 18
 440:	19 82       	std	Y+1, r1	; 0x01
 442:	03 c0       	rjmp	.+6      	; 0x44a <ks0108WriteData+0xe0>
 444:	89 81       	ldd	r24, Y+1	; 0x01
 446:	8f 5f       	subi	r24, 0xFF	; 255
 448:	89 83       	std	Y+1, r24	; 0x01
 44a:	89 81       	ldd	r24, Y+1	; 0x01
 44c:	88 30       	cpi	r24, 0x08	; 8
 44e:	d0 f3       	brcs	.-12     	; 0x444 <ks0108WriteData+0xda>
 450:	80 91 63 01 	lds	r24, 0x0163
 454:	60 91 64 01 	lds	r22, 0x0164
 458:	68 50       	subi	r22, 0x08	; 8
 45a:	8f 5f       	subi	r24, 0xFF	; 255
 45c:	2b df       	rcall	.-426    	; 0x2b4 <ks0108GotoXY>
 45e:	17 c0       	rjmp	.+46     	; 0x48e <__stack+0x2f>
 460:	80 91 60 00 	lds	r24, 0x0060
 464:	81 11       	cpse	r24, r1
 466:	f0 94       	com	r15
 468:	f8 ba       	out	0x18, r15	; 24
 46a:	92 9a       	sbi	0x12, 2	; 18
 46c:	00 00       	nop
 46e:	00 00       	nop
 470:	00 00       	nop
 472:	92 98       	cbi	0x12, 2	; 18
 474:	19 82       	std	Y+1, r1	; 0x01
 476:	03 c0       	rjmp	.+6      	; 0x47e <__stack+0x1f>
 478:	89 81       	ldd	r24, Y+1	; 0x01
 47a:	8f 5f       	subi	r24, 0xFF	; 255
 47c:	89 83       	std	Y+1, r24	; 0x01
 47e:	89 81       	ldd	r24, Y+1	; 0x01
 480:	88 30       	cpi	r24, 0x08	; 8
 482:	d0 f3       	brcs	.-12     	; 0x478 <__stack+0x19>
 484:	80 91 63 01 	lds	r24, 0x0163
 488:	8f 5f       	subi	r24, 0xFF	; 255
 48a:	80 93 63 01 	sts	0x0163, r24
 48e:	18 ba       	out	0x18, r1	; 24
 490:	0f 90       	pop	r0
 492:	cf 91       	pop	r28
 494:	df 91       	pop	r29
 496:	1f 91       	pop	r17
 498:	0f 91       	pop	r16
 49a:	ff 90       	pop	r15
 49c:	ef 90       	pop	r14
 49e:	df 90       	pop	r13
 4a0:	08 95       	ret

000004a2 <ks0108PutChar>:
 4a2:	2f 92       	push	r2
 4a4:	3f 92       	push	r3
 4a6:	4f 92       	push	r4
 4a8:	5f 92       	push	r5
 4aa:	6f 92       	push	r6
 4ac:	7f 92       	push	r7
 4ae:	8f 92       	push	r8
 4b0:	9f 92       	push	r9
 4b2:	af 92       	push	r10
 4b4:	bf 92       	push	r11
 4b6:	cf 92       	push	r12
 4b8:	df 92       	push	r13
 4ba:	ef 92       	push	r14
 4bc:	ff 92       	push	r15
 4be:	0f 93       	push	r16
 4c0:	1f 93       	push	r17
 4c2:	cf 93       	push	r28
 4c4:	df 93       	push	r29
 4c6:	08 2f       	mov	r16, r24
 4c8:	80 91 68 01 	lds	r24, 0x0168
 4cc:	90 91 69 01 	lds	r25, 0x0169
 4d0:	e0 91 66 01 	lds	r30, 0x0166
 4d4:	f0 91 67 01 	lds	r31, 0x0167
 4d8:	03 96       	adiw	r24, 0x03	; 3
 4da:	09 95       	icall
 4dc:	c8 2e       	mov	r12, r24
 4de:	80 91 68 01 	lds	r24, 0x0168
 4e2:	90 91 69 01 	lds	r25, 0x0169
 4e6:	e0 91 66 01 	lds	r30, 0x0166
 4ea:	f0 91 67 01 	lds	r31, 0x0167
 4ee:	04 96       	adiw	r24, 0x04	; 4
 4f0:	09 95       	icall
 4f2:	18 2f       	mov	r17, r24
 4f4:	80 91 68 01 	lds	r24, 0x0168
 4f8:	90 91 69 01 	lds	r25, 0x0169
 4fc:	e0 91 66 01 	lds	r30, 0x0166
 500:	f0 91 67 01 	lds	r31, 0x0167
 504:	05 96       	adiw	r24, 0x05	; 5
 506:	09 95       	icall
 508:	d8 2e       	mov	r13, r24
 50a:	50 90 63 01 	lds	r5, 0x0163
 50e:	20 90 64 01 	lds	r2, 0x0164
 512:	01 17       	cp	r16, r17
 514:	08 f4       	brcc	.+2      	; 0x518 <ks0108PutChar+0x76>
 516:	9c c0       	rjmp	.+312    	; 0x650 <ks0108PutChar+0x1ae>
 518:	20 2f       	mov	r18, r16
 51a:	30 e0       	ldi	r19, 0x00	; 0
 51c:	81 2f       	mov	r24, r17
 51e:	90 e0       	ldi	r25, 0x00	; 0
 520:	8d 0d       	add	r24, r13
 522:	91 1d       	adc	r25, r1
 524:	28 17       	cp	r18, r24
 526:	39 07       	cpc	r19, r25
 528:	0c f0       	brlt	.+2      	; 0x52c <ks0108PutChar+0x8a>
 52a:	92 c0       	rjmp	.+292    	; 0x650 <ks0108PutChar+0x1ae>
 52c:	e0 2e       	mov	r14, r16
 52e:	e1 1a       	sub	r14, r17
 530:	00 e0       	ldi	r16, 0x00	; 0
 532:	10 e0       	ldi	r17, 0x00	; 0
 534:	ff 24       	eor	r15, r15
 536:	c6 e0       	ldi	r28, 0x06	; 6
 538:	d0 e0       	ldi	r29, 0x00	; 0
 53a:	08 c0       	rjmp	.+16     	; 0x54c <ks0108PutChar+0xaa>
 53c:	c9 01       	movw	r24, r18
 53e:	8c 0f       	add	r24, r28
 540:	9d 1f       	adc	r25, r29
 542:	09 95       	icall
 544:	08 0f       	add	r16, r24
 546:	11 1d       	adc	r17, r1
 548:	f3 94       	inc	r15
 54a:	21 96       	adiw	r28, 0x01	; 1
 54c:	20 91 68 01 	lds	r18, 0x0168
 550:	30 91 69 01 	lds	r19, 0x0169
 554:	e0 91 66 01 	lds	r30, 0x0166
 558:	f0 91 67 01 	lds	r31, 0x0167
 55c:	fe 14       	cp	r15, r14
 55e:	70 f3       	brcs	.-36     	; 0x53c <ks0108PutChar+0x9a>
 560:	cc 2d       	mov	r28, r12
 562:	d0 e0       	ldi	r29, 0x00	; 0
 564:	27 96       	adiw	r28, 0x07	; 7
 566:	ce 01       	movw	r24, r28
 568:	43 e0       	ldi	r20, 0x03	; 3
 56a:	95 95       	asr	r25
 56c:	87 95       	ror	r24
 56e:	4a 95       	dec	r20
 570:	e1 f7       	brne	.-8      	; 0x56a <ks0108PutChar+0xc8>
 572:	27 97       	sbiw	r28, 0x07	; 7
 574:	38 2e       	mov	r3, r24
 576:	ac 01       	movw	r20, r24
 578:	40 9f       	mul	r20, r16
 57a:	c0 01       	movw	r24, r0
 57c:	41 9f       	mul	r20, r17
 57e:	90 0d       	add	r25, r0
 580:	50 9f       	mul	r21, r16
 582:	90 0d       	add	r25, r0
 584:	11 24       	eor	r1, r1
 586:	cd 2c       	mov	r12, r13
 588:	dd 24       	eor	r13, r13
 58a:	46 e0       	ldi	r20, 0x06	; 6
 58c:	50 e0       	ldi	r21, 0x00	; 0
 58e:	c4 0e       	add	r12, r20
 590:	d5 1e       	adc	r13, r21
 592:	c8 0e       	add	r12, r24
 594:	d9 1e       	adc	r13, r25
 596:	8e 2d       	mov	r24, r14
 598:	90 e0       	ldi	r25, 0x00	; 0
 59a:	06 96       	adiw	r24, 0x06	; 6
 59c:	82 0f       	add	r24, r18
 59e:	93 1f       	adc	r25, r19
 5a0:	09 95       	icall
 5a2:	68 2e       	mov	r6, r24
 5a4:	98 e0       	ldi	r25, 0x08	; 8
 5a6:	e9 2e       	mov	r14, r25
 5a8:	f1 2c       	mov	r15, r1
 5aa:	ec 1a       	sub	r14, r28
 5ac:	fd 0a       	sbc	r15, r29
 5ae:	77 24       	eor	r7, r7
 5b0:	88 24       	eor	r8, r8
 5b2:	88 e0       	ldi	r24, 0x08	; 8
 5b4:	a8 2e       	mov	r10, r24
 5b6:	b1 2c       	mov	r11, r1
 5b8:	40 c0       	rjmp	.+128    	; 0x63a <ks0108PutChar+0x198>
 5ba:	4e 2c       	mov	r4, r14
 5bc:	86 01       	movw	r16, r12
 5be:	08 0d       	add	r16, r8
 5c0:	11 1d       	adc	r17, r1
 5c2:	99 24       	eor	r9, r9
 5c4:	23 c0       	rjmp	.+70     	; 0x60c <ks0108PutChar+0x16a>
 5c6:	80 91 68 01 	lds	r24, 0x0168
 5ca:	90 91 69 01 	lds	r25, 0x0169
 5ce:	e0 91 66 01 	lds	r30, 0x0166
 5d2:	f0 91 67 01 	lds	r31, 0x0167
 5d6:	80 0f       	add	r24, r16
 5d8:	91 1f       	adc	r25, r17
 5da:	09 95       	icall
 5dc:	98 2f       	mov	r25, r24
 5de:	ca 15       	cp	r28, r10
 5e0:	db 05       	cpc	r29, r11
 5e2:	44 f4       	brge	.+16     	; 0x5f4 <ks0108PutChar+0x152>
 5e4:	90 e0       	ldi	r25, 0x00	; 0
 5e6:	04 2c       	mov	r0, r4
 5e8:	02 c0       	rjmp	.+4      	; 0x5ee <ks0108PutChar+0x14c>
 5ea:	95 95       	asr	r25
 5ec:	87 95       	ror	r24
 5ee:	0a 94       	dec	r0
 5f0:	e2 f7       	brpl	.-8      	; 0x5ea <ks0108PutChar+0x148>
 5f2:	98 2f       	mov	r25, r24
 5f4:	80 91 62 01 	lds	r24, 0x0162
 5f8:	8f 3f       	cpi	r24, 0xFF	; 255
 5fa:	11 f4       	brne	.+4      	; 0x600 <ks0108PutChar+0x15e>
 5fc:	89 2f       	mov	r24, r25
 5fe:	02 c0       	rjmp	.+4      	; 0x604 <ks0108PutChar+0x162>
 600:	89 2f       	mov	r24, r25
 602:	80 95       	com	r24
 604:	b2 de       	rcall	.-668    	; 0x36a <ks0108WriteData>
 606:	93 94       	inc	r9
 608:	0f 5f       	subi	r16, 0xFF	; 255
 60a:	1f 4f       	sbci	r17, 0xFF	; 255
 60c:	96 14       	cp	r9, r6
 60e:	d8 f2       	brcs	.-74     	; 0x5c6 <ks0108PutChar+0x124>
 610:	80 91 62 01 	lds	r24, 0x0162
 614:	8f 3f       	cpi	r24, 0xFF	; 255
 616:	11 f4       	brne	.+4      	; 0x61c <ks0108PutChar+0x17a>
 618:	80 e0       	ldi	r24, 0x00	; 0
 61a:	01 c0       	rjmp	.+2      	; 0x61e <ks0108PutChar+0x17c>
 61c:	8f ef       	ldi	r24, 0xFF	; 255
 61e:	a5 de       	rcall	.-694    	; 0x36a <ks0108WriteData>
 620:	60 91 64 01 	lds	r22, 0x0164
 624:	68 5f       	subi	r22, 0xF8	; 248
 626:	85 2d       	mov	r24, r5
 628:	45 de       	rcall	.-886    	; 0x2b4 <ks0108GotoXY>
 62a:	73 94       	inc	r7
 62c:	86 0c       	add	r8, r6
 62e:	88 e0       	ldi	r24, 0x08	; 8
 630:	90 e0       	ldi	r25, 0x00	; 0
 632:	a8 0e       	add	r10, r24
 634:	b9 1e       	adc	r11, r25
 636:	e8 0e       	add	r14, r24
 638:	f9 1e       	adc	r15, r25
 63a:	73 14       	cp	r7, r3
 63c:	08 f4       	brcc	.+2      	; 0x640 <ks0108PutChar+0x19e>
 63e:	bd cf       	rjmp	.-134    	; 0x5ba <ks0108PutChar+0x118>
 640:	53 94       	inc	r5
 642:	85 2d       	mov	r24, r5
 644:	86 0d       	add	r24, r6
 646:	62 2d       	mov	r22, r2
 648:	35 de       	rcall	.-918    	; 0x2b4 <ks0108GotoXY>
 64a:	20 e0       	ldi	r18, 0x00	; 0
 64c:	30 e0       	ldi	r19, 0x00	; 0
 64e:	02 c0       	rjmp	.+4      	; 0x654 <ks0108PutChar+0x1b2>
 650:	21 e0       	ldi	r18, 0x01	; 1
 652:	30 e0       	ldi	r19, 0x00	; 0
 654:	c9 01       	movw	r24, r18
 656:	df 91       	pop	r29
 658:	cf 91       	pop	r28
 65a:	1f 91       	pop	r17
 65c:	0f 91       	pop	r16
 65e:	ff 90       	pop	r15
 660:	ef 90       	pop	r14
 662:	df 90       	pop	r13
 664:	cf 90       	pop	r12
 666:	bf 90       	pop	r11
 668:	af 90       	pop	r10
 66a:	9f 90       	pop	r9
 66c:	8f 90       	pop	r8
 66e:	7f 90       	pop	r7
 670:	6f 90       	pop	r6
 672:	5f 90       	pop	r5
 674:	4f 90       	pop	r4
 676:	3f 90       	pop	r3
 678:	2f 90       	pop	r2
 67a:	08 95       	ret

0000067c <ks0108Puts_P>:
 67c:	0f 93       	push	r16
 67e:	1f 93       	push	r17
 680:	cf 93       	push	r28
 682:	df 93       	push	r29
 684:	ec 01       	movw	r28, r24
 686:	00 91 63 01 	lds	r16, 0x0163
 68a:	15 c0       	rjmp	.+42     	; 0x6b6 <ks0108Puts_P+0x3a>
 68c:	8a 30       	cpi	r24, 0x0A	; 10
 68e:	89 f4       	brne	.+34     	; 0x6b2 <ks0108Puts_P+0x36>
 690:	10 91 64 01 	lds	r17, 0x0164
 694:	80 91 68 01 	lds	r24, 0x0168
 698:	90 91 69 01 	lds	r25, 0x0169
 69c:	e0 91 66 01 	lds	r30, 0x0166
 6a0:	f0 91 67 01 	lds	r31, 0x0167
 6a4:	03 96       	adiw	r24, 0x03	; 3
 6a6:	09 95       	icall
 6a8:	18 0f       	add	r17, r24
 6aa:	80 2f       	mov	r24, r16
 6ac:	61 2f       	mov	r22, r17
 6ae:	02 de       	rcall	.-1020   	; 0x2b4 <ks0108GotoXY>
 6b0:	01 c0       	rjmp	.+2      	; 0x6b4 <ks0108Puts_P+0x38>
 6b2:	f7 de       	rcall	.-530    	; 0x4a2 <ks0108PutChar>
 6b4:	21 96       	adiw	r28, 0x01	; 1
 6b6:	fe 01       	movw	r30, r28
 6b8:	84 91       	lpm	r24, Z+
 6ba:	88 23       	and	r24, r24
 6bc:	39 f7       	brne	.-50     	; 0x68c <ks0108Puts_P+0x10>
 6be:	df 91       	pop	r29
 6c0:	cf 91       	pop	r28
 6c2:	1f 91       	pop	r17
 6c4:	0f 91       	pop	r16
 6c6:	08 95       	ret

000006c8 <ks0108Puts>:
 6c8:	0f 93       	push	r16
 6ca:	1f 93       	push	r17
 6cc:	cf 93       	push	r28
 6ce:	df 93       	push	r29
 6d0:	ec 01       	movw	r28, r24
 6d2:	00 91 63 01 	lds	r16, 0x0163
 6d6:	15 c0       	rjmp	.+42     	; 0x702 <ks0108Puts+0x3a>
 6d8:	8a 30       	cpi	r24, 0x0A	; 10
 6da:	89 f4       	brne	.+34     	; 0x6fe <ks0108Puts+0x36>
 6dc:	10 91 64 01 	lds	r17, 0x0164
 6e0:	80 91 68 01 	lds	r24, 0x0168
 6e4:	90 91 69 01 	lds	r25, 0x0169
 6e8:	e0 91 66 01 	lds	r30, 0x0166
 6ec:	f0 91 67 01 	lds	r31, 0x0167
 6f0:	03 96       	adiw	r24, 0x03	; 3
 6f2:	09 95       	icall
 6f4:	18 0f       	add	r17, r24
 6f6:	80 2f       	mov	r24, r16
 6f8:	61 2f       	mov	r22, r17
 6fa:	dc dd       	rcall	.-1096   	; 0x2b4 <ks0108GotoXY>
 6fc:	01 c0       	rjmp	.+2      	; 0x700 <ks0108Puts+0x38>
 6fe:	d1 de       	rcall	.-606    	; 0x4a2 <ks0108PutChar>
 700:	21 96       	adiw	r28, 0x01	; 1
 702:	88 81       	ld	r24, Y
 704:	88 23       	and	r24, r24
 706:	41 f7       	brne	.-48     	; 0x6d8 <ks0108Puts+0x10>
 708:	df 91       	pop	r29
 70a:	cf 91       	pop	r28
 70c:	1f 91       	pop	r17
 70e:	0f 91       	pop	r16
 710:	08 95       	ret

00000712 <ks0108SetDot>:
 712:	0f 93       	push	r16
 714:	1f 93       	push	r17
 716:	16 2f       	mov	r17, r22
 718:	04 2f       	mov	r16, r20
 71a:	68 7f       	andi	r22, 0xF8	; 248
 71c:	cb dd       	rcall	.-1130   	; 0x2b4 <ks0108GotoXY>
 71e:	81 e0       	ldi	r24, 0x01	; 1
 720:	eb dd       	rcall	.-1066   	; 0x2f8 <ks0108DoReadData>
 722:	80 e0       	ldi	r24, 0x00	; 0
 724:	e9 dd       	rcall	.-1070   	; 0x2f8 <ks0108DoReadData>
 726:	48 2f       	mov	r20, r24
 728:	21 2f       	mov	r18, r17
 72a:	30 e0       	ldi	r19, 0x00	; 0
 72c:	0f 3f       	cpi	r16, 0xFF	; 255
 72e:	59 f4       	brne	.+22     	; 0x746 <ks0108SetDot+0x34>
 730:	27 70       	andi	r18, 0x07	; 7
 732:	30 70       	andi	r19, 0x00	; 0
 734:	81 e0       	ldi	r24, 0x01	; 1
 736:	90 e0       	ldi	r25, 0x00	; 0
 738:	02 c0       	rjmp	.+4      	; 0x73e <ks0108SetDot+0x2c>
 73a:	88 0f       	add	r24, r24
 73c:	99 1f       	adc	r25, r25
 73e:	2a 95       	dec	r18
 740:	e2 f7       	brpl	.-8      	; 0x73a <ks0108SetDot+0x28>
 742:	84 2b       	or	r24, r20
 744:	0b c0       	rjmp	.+22     	; 0x75c <ks0108SetDot+0x4a>
 746:	27 70       	andi	r18, 0x07	; 7
 748:	30 70       	andi	r19, 0x00	; 0
 74a:	81 e0       	ldi	r24, 0x01	; 1
 74c:	90 e0       	ldi	r25, 0x00	; 0
 74e:	02 c0       	rjmp	.+4      	; 0x754 <ks0108SetDot+0x42>
 750:	88 0f       	add	r24, r24
 752:	99 1f       	adc	r25, r25
 754:	2a 95       	dec	r18
 756:	e2 f7       	brpl	.-8      	; 0x750 <ks0108SetDot+0x3e>
 758:	80 95       	com	r24
 75a:	84 23       	and	r24, r20
 75c:	06 de       	rcall	.-1012   	; 0x36a <ks0108WriteData>
 75e:	1f 91       	pop	r17
 760:	0f 91       	pop	r16
 762:	08 95       	ret

00000764 <ks0108InvertRect>:
 764:	af 92       	push	r10
 766:	bf 92       	push	r11
 768:	cf 92       	push	r12
 76a:	df 92       	push	r13
 76c:	ef 92       	push	r14
 76e:	ff 92       	push	r15
 770:	0f 93       	push	r16
 772:	1f 93       	push	r17
 774:	cf 93       	push	r28
 776:	df 93       	push	r29
 778:	b8 2e       	mov	r11, r24
 77a:	a4 2e       	mov	r10, r20
 77c:	e2 2e       	mov	r14, r18
 77e:	e3 94       	inc	r14
 780:	46 2f       	mov	r20, r22
 782:	47 70       	andi	r20, 0x07	; 7
 784:	f6 2e       	mov	r15, r22
 786:	f4 1a       	sub	r15, r20
 788:	ce 2d       	mov	r28, r14
 78a:	d0 e0       	ldi	r29, 0x00	; 0
 78c:	64 2f       	mov	r22, r20
 78e:	70 e0       	ldi	r23, 0x00	; 0
 790:	28 e0       	ldi	r18, 0x08	; 8
 792:	30 e0       	ldi	r19, 0x00	; 0
 794:	c9 01       	movw	r24, r18
 796:	86 1b       	sub	r24, r22
 798:	97 0b       	sbc	r25, r23
 79a:	c8 17       	cp	r28, r24
 79c:	d9 07       	cpc	r29, r25
 79e:	5c f4       	brge	.+22     	; 0x7b6 <ks0108InvertRect+0x52>
 7a0:	2c 1b       	sub	r18, r28
 7a2:	3d 0b       	sbc	r19, r29
 7a4:	8f ef       	ldi	r24, 0xFF	; 255
 7a6:	90 e0       	ldi	r25, 0x00	; 0
 7a8:	02 c0       	rjmp	.+4      	; 0x7ae <ks0108InvertRect+0x4a>
 7aa:	95 95       	asr	r25
 7ac:	87 95       	ror	r24
 7ae:	2a 95       	dec	r18
 7b0:	e2 f7       	brpl	.-8      	; 0x7aa <ks0108InvertRect+0x46>
 7b2:	0e 2d       	mov	r16, r14
 7b4:	03 c0       	rjmp	.+6      	; 0x7bc <ks0108InvertRect+0x58>
 7b6:	08 e0       	ldi	r16, 0x08	; 8
 7b8:	04 1b       	sub	r16, r20
 7ba:	8f ef       	ldi	r24, 0xFF	; 255
 7bc:	90 e0       	ldi	r25, 0x00	; 0
 7be:	02 c0       	rjmp	.+4      	; 0x7c4 <ks0108InvertRect+0x60>
 7c0:	88 0f       	add	r24, r24
 7c2:	99 1f       	adc	r25, r25
 7c4:	6a 95       	dec	r22
 7c6:	e2 f7       	brpl	.-8      	; 0x7c0 <ks0108InvertRect+0x5c>
 7c8:	d8 2e       	mov	r13, r24
 7ca:	8b 2d       	mov	r24, r11
 7cc:	6f 2d       	mov	r22, r15
 7ce:	72 dd       	rcall	.-1308   	; 0x2b4 <ks0108GotoXY>
 7d0:	10 e0       	ldi	r17, 0x00	; 0
 7d2:	cd 2c       	mov	r12, r13
 7d4:	c0 94       	com	r12
 7d6:	81 e0       	ldi	r24, 0x01	; 1
 7d8:	8f dd       	rcall	.-1250   	; 0x2f8 <ks0108DoReadData>
 7da:	80 e0       	ldi	r24, 0x00	; 0
 7dc:	8d dd       	rcall	.-1254   	; 0x2f8 <ks0108DoReadData>
 7de:	98 2f       	mov	r25, r24
 7e0:	8c 2d       	mov	r24, r12
 7e2:	89 23       	and	r24, r25
 7e4:	90 95       	com	r25
 7e6:	9d 21       	and	r25, r13
 7e8:	89 2b       	or	r24, r25
 7ea:	bf dd       	rcall	.-1154   	; 0x36a <ks0108WriteData>
 7ec:	1f 5f       	subi	r17, 0xFF	; 255
 7ee:	a1 16       	cp	r10, r17
 7f0:	90 f7       	brcc	.-28     	; 0x7d6 <ks0108InvertRect+0x72>
 7f2:	10 c0       	rjmp	.+32     	; 0x814 <ks0108InvertRect+0xb0>
 7f4:	88 e0       	ldi	r24, 0x08	; 8
 7f6:	f8 0e       	add	r15, r24
 7f8:	8b 2d       	mov	r24, r11
 7fa:	6f 2d       	mov	r22, r15
 7fc:	5b dd       	rcall	.-1354   	; 0x2b4 <ks0108GotoXY>
 7fe:	10 e0       	ldi	r17, 0x00	; 0
 800:	81 e0       	ldi	r24, 0x01	; 1
 802:	7a dd       	rcall	.-1292   	; 0x2f8 <ks0108DoReadData>
 804:	80 e0       	ldi	r24, 0x00	; 0
 806:	78 dd       	rcall	.-1296   	; 0x2f8 <ks0108DoReadData>
 808:	80 95       	com	r24
 80a:	af dd       	rcall	.-1186   	; 0x36a <ks0108WriteData>
 80c:	1f 5f       	subi	r17, 0xFF	; 255
 80e:	a1 16       	cp	r10, r17
 810:	b8 f7       	brcc	.-18     	; 0x800 <ks0108InvertRect+0x9c>
 812:	08 5f       	subi	r16, 0xF8	; 248
 814:	20 2f       	mov	r18, r16
 816:	30 e0       	ldi	r19, 0x00	; 0
 818:	c9 01       	movw	r24, r18
 81a:	07 96       	adiw	r24, 0x07	; 7
 81c:	8c 17       	cp	r24, r28
 81e:	9d 07       	cpc	r25, r29
 820:	4c f3       	brlt	.-46     	; 0x7f4 <ks0108InvertRect+0x90>
 822:	0e 15       	cp	r16, r14
 824:	08 f5       	brcc	.+66     	; 0x868 <ks0108InvertRect+0x104>
 826:	c2 1b       	sub	r28, r18
 828:	d3 0b       	sbc	r29, r19
 82a:	8f ef       	ldi	r24, 0xFF	; 255
 82c:	90 e0       	ldi	r25, 0x00	; 0
 82e:	02 c0       	rjmp	.+4      	; 0x834 <ks0108InvertRect+0xd0>
 830:	88 0f       	add	r24, r24
 832:	99 1f       	adc	r25, r25
 834:	ca 95       	dec	r28
 836:	e2 f7       	brpl	.-8      	; 0x830 <ks0108InvertRect+0xcc>
 838:	08 2f       	mov	r16, r24
 83a:	00 95       	com	r16
 83c:	88 e0       	ldi	r24, 0x08	; 8
 83e:	f8 0e       	add	r15, r24
 840:	8b 2d       	mov	r24, r11
 842:	6f 2d       	mov	r22, r15
 844:	37 dd       	rcall	.-1426   	; 0x2b4 <ks0108GotoXY>
 846:	10 e0       	ldi	r17, 0x00	; 0
 848:	f0 2e       	mov	r15, r16
 84a:	f0 94       	com	r15
 84c:	81 e0       	ldi	r24, 0x01	; 1
 84e:	54 dd       	rcall	.-1368   	; 0x2f8 <ks0108DoReadData>
 850:	80 e0       	ldi	r24, 0x00	; 0
 852:	52 dd       	rcall	.-1372   	; 0x2f8 <ks0108DoReadData>
 854:	98 2f       	mov	r25, r24
 856:	8f 2d       	mov	r24, r15
 858:	89 23       	and	r24, r25
 85a:	90 95       	com	r25
 85c:	90 23       	and	r25, r16
 85e:	89 2b       	or	r24, r25
 860:	84 dd       	rcall	.-1272   	; 0x36a <ks0108WriteData>
 862:	1f 5f       	subi	r17, 0xFF	; 255
 864:	a1 16       	cp	r10, r17
 866:	90 f7       	brcc	.-28     	; 0x84c <ks0108InvertRect+0xe8>
 868:	df 91       	pop	r29
 86a:	cf 91       	pop	r28
 86c:	1f 91       	pop	r17
 86e:	0f 91       	pop	r16
 870:	ff 90       	pop	r15
 872:	ef 90       	pop	r14
 874:	df 90       	pop	r13
 876:	cf 90       	pop	r12
 878:	bf 90       	pop	r11
 87a:	af 90       	pop	r10
 87c:	08 95       	ret

0000087e <ks0108SetInverted>:
 87e:	1f 93       	push	r17
 880:	18 2f       	mov	r17, r24
 882:	80 91 60 00 	lds	r24, 0x0060
 886:	81 17       	cp	r24, r17
 888:	39 f0       	breq	.+14     	; 0x898 <ks0108SetInverted+0x1a>
 88a:	80 e0       	ldi	r24, 0x00	; 0
 88c:	60 e0       	ldi	r22, 0x00	; 0
 88e:	4f e7       	ldi	r20, 0x7F	; 127
 890:	2f e3       	ldi	r18, 0x3F	; 63
 892:	68 df       	rcall	.-304    	; 0x764 <ks0108InvertRect>
 894:	10 93 60 00 	sts	0x0060, r17
 898:	1f 91       	pop	r17
 89a:	08 95       	ret

0000089c <ks0108FillRect>:
 89c:	9f 92       	push	r9
 89e:	af 92       	push	r10
 8a0:	bf 92       	push	r11
 8a2:	cf 92       	push	r12
 8a4:	df 92       	push	r13
 8a6:	ef 92       	push	r14
 8a8:	ff 92       	push	r15
 8aa:	0f 93       	push	r16
 8ac:	1f 93       	push	r17
 8ae:	cf 93       	push	r28
 8b0:	df 93       	push	r29
 8b2:	b8 2e       	mov	r11, r24
 8b4:	94 2e       	mov	r9, r20
 8b6:	e2 2e       	mov	r14, r18
 8b8:	a0 2e       	mov	r10, r16
 8ba:	e3 94       	inc	r14
 8bc:	46 2f       	mov	r20, r22
 8be:	47 70       	andi	r20, 0x07	; 7
 8c0:	f6 2e       	mov	r15, r22
 8c2:	f4 1a       	sub	r15, r20
 8c4:	ce 2d       	mov	r28, r14
 8c6:	d0 e0       	ldi	r29, 0x00	; 0
 8c8:	64 2f       	mov	r22, r20
 8ca:	70 e0       	ldi	r23, 0x00	; 0
 8cc:	28 e0       	ldi	r18, 0x08	; 8
 8ce:	30 e0       	ldi	r19, 0x00	; 0
 8d0:	c9 01       	movw	r24, r18
 8d2:	86 1b       	sub	r24, r22
 8d4:	97 0b       	sbc	r25, r23
 8d6:	c8 17       	cp	r28, r24
 8d8:	d9 07       	cpc	r29, r25
 8da:	5c f4       	brge	.+22     	; 0x8f2 <ks0108FillRect+0x56>
 8dc:	2c 1b       	sub	r18, r28
 8de:	3d 0b       	sbc	r19, r29
 8e0:	8f ef       	ldi	r24, 0xFF	; 255
 8e2:	90 e0       	ldi	r25, 0x00	; 0
 8e4:	02 c0       	rjmp	.+4      	; 0x8ea <ks0108FillRect+0x4e>
 8e6:	95 95       	asr	r25
 8e8:	87 95       	ror	r24
 8ea:	2a 95       	dec	r18
 8ec:	e2 f7       	brpl	.-8      	; 0x8e6 <ks0108FillRect+0x4a>
 8ee:	0e 2d       	mov	r16, r14
 8f0:	03 c0       	rjmp	.+6      	; 0x8f8 <ks0108FillRect+0x5c>
 8f2:	08 e0       	ldi	r16, 0x08	; 8
 8f4:	04 1b       	sub	r16, r20
 8f6:	8f ef       	ldi	r24, 0xFF	; 255
 8f8:	90 e0       	ldi	r25, 0x00	; 0
 8fa:	02 c0       	rjmp	.+4      	; 0x900 <ks0108FillRect+0x64>
 8fc:	88 0f       	add	r24, r24
 8fe:	99 1f       	adc	r25, r25
 900:	6a 95       	dec	r22
 902:	e2 f7       	brpl	.-8      	; 0x8fc <ks0108FillRect+0x60>
 904:	d8 2e       	mov	r13, r24
 906:	8b 2d       	mov	r24, r11
 908:	6f 2d       	mov	r22, r15
 90a:	d4 dc       	rcall	.-1624   	; 0x2b4 <ks0108GotoXY>
 90c:	10 e0       	ldi	r17, 0x00	; 0
 90e:	cd 2c       	mov	r12, r13
 910:	c0 94       	com	r12
 912:	81 e0       	ldi	r24, 0x01	; 1
 914:	f1 dc       	rcall	.-1566   	; 0x2f8 <ks0108DoReadData>
 916:	80 e0       	ldi	r24, 0x00	; 0
 918:	ef dc       	rcall	.-1570   	; 0x2f8 <ks0108DoReadData>
 91a:	9f ef       	ldi	r25, 0xFF	; 255
 91c:	a9 16       	cp	r10, r25
 91e:	11 f4       	brne	.+4      	; 0x924 <ks0108FillRect+0x88>
 920:	8d 29       	or	r24, r13
 922:	01 c0       	rjmp	.+2      	; 0x926 <ks0108FillRect+0x8a>
 924:	8c 21       	and	r24, r12
 926:	21 dd       	rcall	.-1470   	; 0x36a <ks0108WriteData>
 928:	1f 5f       	subi	r17, 0xFF	; 255
 92a:	91 16       	cp	r9, r17
 92c:	90 f7       	brcc	.-28     	; 0x912 <ks0108FillRect+0x76>
 92e:	0c c0       	rjmp	.+24     	; 0x948 <ks0108FillRect+0xac>
 930:	88 e0       	ldi	r24, 0x08	; 8
 932:	f8 0e       	add	r15, r24
 934:	8b 2d       	mov	r24, r11
 936:	6f 2d       	mov	r22, r15
 938:	bd dc       	rcall	.-1670   	; 0x2b4 <ks0108GotoXY>
 93a:	10 e0       	ldi	r17, 0x00	; 0
 93c:	8a 2d       	mov	r24, r10
 93e:	15 dd       	rcall	.-1494   	; 0x36a <ks0108WriteData>
 940:	1f 5f       	subi	r17, 0xFF	; 255
 942:	91 16       	cp	r9, r17
 944:	d8 f7       	brcc	.-10     	; 0x93c <ks0108FillRect+0xa0>
 946:	08 5f       	subi	r16, 0xF8	; 248
 948:	20 2f       	mov	r18, r16
 94a:	30 e0       	ldi	r19, 0x00	; 0
 94c:	c9 01       	movw	r24, r18
 94e:	07 96       	adiw	r24, 0x07	; 7
 950:	8c 17       	cp	r24, r28
 952:	9d 07       	cpc	r25, r29
 954:	6c f3       	brlt	.-38     	; 0x930 <ks0108FillRect+0x94>
 956:	0e 15       	cp	r16, r14
 958:	08 f5       	brcc	.+66     	; 0x99c <ks0108FillRect+0x100>
 95a:	c2 1b       	sub	r28, r18
 95c:	d3 0b       	sbc	r29, r19
 95e:	8f ef       	ldi	r24, 0xFF	; 255
 960:	90 e0       	ldi	r25, 0x00	; 0
 962:	02 c0       	rjmp	.+4      	; 0x968 <ks0108FillRect+0xcc>
 964:	88 0f       	add	r24, r24
 966:	99 1f       	adc	r25, r25
 968:	ca 95       	dec	r28
 96a:	e2 f7       	brpl	.-8      	; 0x964 <ks0108FillRect+0xc8>
 96c:	e8 2e       	mov	r14, r24
 96e:	e0 94       	com	r14
 970:	98 e0       	ldi	r25, 0x08	; 8
 972:	f9 0e       	add	r15, r25
 974:	8b 2d       	mov	r24, r11
 976:	6f 2d       	mov	r22, r15
 978:	9d dc       	rcall	.-1734   	; 0x2b4 <ks0108GotoXY>
 97a:	10 e0       	ldi	r17, 0x00	; 0
 97c:	fe 2c       	mov	r15, r14
 97e:	f0 94       	com	r15
 980:	81 e0       	ldi	r24, 0x01	; 1
 982:	ba dc       	rcall	.-1676   	; 0x2f8 <ks0108DoReadData>
 984:	80 e0       	ldi	r24, 0x00	; 0
 986:	b8 dc       	rcall	.-1680   	; 0x2f8 <ks0108DoReadData>
 988:	9f ef       	ldi	r25, 0xFF	; 255
 98a:	a9 16       	cp	r10, r25
 98c:	11 f4       	brne	.+4      	; 0x992 <ks0108FillRect+0xf6>
 98e:	8e 29       	or	r24, r14
 990:	01 c0       	rjmp	.+2      	; 0x994 <ks0108FillRect+0xf8>
 992:	8f 21       	and	r24, r15
 994:	ea dc       	rcall	.-1580   	; 0x36a <ks0108WriteData>
 996:	1f 5f       	subi	r17, 0xFF	; 255
 998:	91 16       	cp	r9, r17
 99a:	90 f7       	brcc	.-28     	; 0x980 <ks0108FillRect+0xe4>
 99c:	df 91       	pop	r29
 99e:	cf 91       	pop	r28
 9a0:	1f 91       	pop	r17
 9a2:	0f 91       	pop	r16
 9a4:	ff 90       	pop	r15
 9a6:	ef 90       	pop	r14
 9a8:	df 90       	pop	r13
 9aa:	cf 90       	pop	r12
 9ac:	bf 90       	pop	r11
 9ae:	af 90       	pop	r10
 9b0:	9f 90       	pop	r9
 9b2:	08 95       	ret

000009b4 <ks0108Init>:
 9b4:	0f 93       	push	r16
 9b6:	10 92 63 01 	sts	0x0163, r1
 9ba:	10 92 64 01 	sts	0x0164, r1
 9be:	10 92 65 01 	sts	0x0165, r1
 9c2:	80 93 60 00 	sts	0x0060, r24
 9c6:	8f ef       	ldi	r24, 0xFF	; 255
 9c8:	81 bb       	out	0x11, r24	; 17
 9ca:	8f e3       	ldi	r24, 0x3F	; 63
 9cc:	60 e0       	ldi	r22, 0x00	; 0
 9ce:	4c dc       	rcall	.-1896   	; 0x268 <ks0108WriteCommand>
 9d0:	8f e3       	ldi	r24, 0x3F	; 63
 9d2:	61 e0       	ldi	r22, 0x01	; 1
 9d4:	49 dc       	rcall	.-1902   	; 0x268 <ks0108WriteCommand>
 9d6:	80 ec       	ldi	r24, 0xC0	; 192
 9d8:	60 e0       	ldi	r22, 0x00	; 0
 9da:	46 dc       	rcall	.-1908   	; 0x268 <ks0108WriteCommand>
 9dc:	80 ec       	ldi	r24, 0xC0	; 192
 9de:	61 e0       	ldi	r22, 0x01	; 1
 9e0:	43 dc       	rcall	.-1914   	; 0x268 <ks0108WriteCommand>
 9e2:	80 e0       	ldi	r24, 0x00	; 0
 9e4:	60 e0       	ldi	r22, 0x00	; 0
 9e6:	4f e7       	ldi	r20, 0x7F	; 127
 9e8:	2f e3       	ldi	r18, 0x3F	; 63
 9ea:	00 e0       	ldi	r16, 0x00	; 0
 9ec:	57 df       	rcall	.-338    	; 0x89c <ks0108FillRect>
 9ee:	80 e0       	ldi	r24, 0x00	; 0
 9f0:	60 e0       	ldi	r22, 0x00	; 0
 9f2:	60 dc       	rcall	.-1856   	; 0x2b4 <ks0108GotoXY>
 9f4:	0f 91       	pop	r16
 9f6:	08 95       	ret

000009f8 <ks0108DrawRoundRect>:
 9f8:	2f 92       	push	r2
 9fa:	3f 92       	push	r3
 9fc:	4f 92       	push	r4
 9fe:	5f 92       	push	r5
 a00:	6f 92       	push	r6
 a02:	7f 92       	push	r7
 a04:	8f 92       	push	r8
 a06:	9f 92       	push	r9
 a08:	af 92       	push	r10
 a0a:	bf 92       	push	r11
 a0c:	cf 92       	push	r12
 a0e:	df 92       	push	r13
 a10:	ef 92       	push	r14
 a12:	ff 92       	push	r15
 a14:	0f 93       	push	r16
 a16:	1f 93       	push	r17
 a18:	df 93       	push	r29
 a1a:	cf 93       	push	r28
 a1c:	cd b7       	in	r28, 0x3d	; 61
 a1e:	de b7       	in	r29, 0x3e	; 62
 a20:	2c 97       	sbiw	r28, 0x0c	; 12
 a22:	0f b6       	in	r0, 0x3f	; 63
 a24:	f8 94       	cli
 a26:	de bf       	out	0x3e, r29	; 62
 a28:	0f be       	out	0x3f, r0	; 63
 a2a:	cd bf       	out	0x3d, r28	; 61
 a2c:	8f 83       	std	Y+7, r24	; 0x07
 a2e:	68 87       	std	Y+8, r22	; 0x08
 a30:	49 87       	std	Y+9, r20	; 0x09
 a32:	2a 87       	std	Y+10, r18	; 0x0a
 a34:	c0 2e       	mov	r12, r16
 a36:	dd 24       	eor	r13, r13
 a38:	c6 01       	movw	r24, r12
 a3a:	88 0f       	add	r24, r24
 a3c:	99 1f       	adc	r25, r25
 a3e:	22 27       	eor	r18, r18
 a40:	33 27       	eor	r19, r19
 a42:	28 1b       	sub	r18, r24
 a44:	39 0b       	sbc	r19, r25
 a46:	3e 83       	std	Y+6, r19	; 0x06
 a48:	2d 83       	std	Y+5, r18	; 0x05
 a4a:	2d 5f       	subi	r18, 0xFD	; 253
 a4c:	3f 4f       	sbci	r19, 0xFF	; 255
 a4e:	3c 87       	std	Y+12, r19	; 0x0c
 a50:	2b 87       	std	Y+11, r18	; 0x0b
 a52:	3f 80       	ldd	r3, Y+7	; 0x07
 a54:	30 0e       	add	r3, r16
 a56:	26 2e       	mov	r2, r22
 a58:	20 0e       	add	r2, r16
 a5a:	34 2f       	mov	r19, r20
 a5c:	8f 81       	ldd	r24, Y+7	; 0x07
 a5e:	38 0f       	add	r19, r24
 a60:	3b 83       	std	Y+3, r19	; 0x03
 a62:	30 1b       	sub	r19, r16
 a64:	3c 83       	std	Y+4, r19	; 0x04
 a66:	9a 85       	ldd	r25, Y+10	; 0x0a
 a68:	96 0f       	add	r25, r22
 a6a:	99 83       	std	Y+1, r25	; 0x01
 a6c:	90 1b       	sub	r25, r16
 a6e:	9a 83       	std	Y+2, r25	; 0x02
 a70:	43 2c       	mov	r4, r3
 a72:	52 2c       	mov	r5, r2
 a74:	63 2e       	mov	r6, r19
 a76:	79 2e       	mov	r7, r25
 a78:	aa 24       	eor	r10, r10
 a7a:	bb 24       	eor	r11, r11
 a7c:	88 24       	eor	r8, r8
 a7e:	99 24       	eor	r9, r9
 a80:	1c 2d       	mov	r17, r12
 a82:	02 2d       	mov	r16, r2
 a84:	0c 19       	sub	r16, r12
 a86:	84 2d       	mov	r24, r4
 a88:	60 2f       	mov	r22, r16
 a8a:	4e 2d       	mov	r20, r14
 a8c:	42 de       	rcall	.-892    	; 0x712 <ks0108SetDot>
 a8e:	f3 2c       	mov	r15, r3
 a90:	fc 18       	sub	r15, r12
 a92:	8f 2d       	mov	r24, r15
 a94:	65 2d       	mov	r22, r5
 a96:	4e 2d       	mov	r20, r14
 a98:	3c de       	rcall	.-904    	; 0x712 <ks0108SetDot>
 a9a:	86 2d       	mov	r24, r6
 a9c:	60 2f       	mov	r22, r16
 a9e:	4e 2d       	mov	r20, r14
 aa0:	38 de       	rcall	.-912    	; 0x712 <ks0108SetDot>
 aa2:	0c 81       	ldd	r16, Y+4	; 0x04
 aa4:	0c 0d       	add	r16, r12
 aa6:	80 2f       	mov	r24, r16
 aa8:	65 2d       	mov	r22, r5
 aaa:	4e 2d       	mov	r20, r14
 aac:	32 de       	rcall	.-924    	; 0x712 <ks0108SetDot>
 aae:	fa 81       	ldd	r31, Y+2	; 0x02
 ab0:	1f 0f       	add	r17, r31
 ab2:	86 2d       	mov	r24, r6
 ab4:	61 2f       	mov	r22, r17
 ab6:	4e 2d       	mov	r20, r14
 ab8:	2c de       	rcall	.-936    	; 0x712 <ks0108SetDot>
 aba:	80 2f       	mov	r24, r16
 abc:	67 2d       	mov	r22, r7
 abe:	4e 2d       	mov	r20, r14
 ac0:	28 de       	rcall	.-944    	; 0x712 <ks0108SetDot>
 ac2:	84 2d       	mov	r24, r4
 ac4:	61 2f       	mov	r22, r17
 ac6:	4e 2d       	mov	r20, r14
 ac8:	24 de       	rcall	.-952    	; 0x712 <ks0108SetDot>
 aca:	8f 2d       	mov	r24, r15
 acc:	67 2d       	mov	r22, r7
 ace:	4e 2d       	mov	r20, r14
 ad0:	20 de       	rcall	.-960    	; 0x712 <ks0108SetDot>
 ad2:	2b 85       	ldd	r18, Y+11	; 0x0b
 ad4:	3c 85       	ldd	r19, Y+12	; 0x0c
 ad6:	37 ff       	sbrs	r19, 7
 ad8:	07 c0       	rjmp	.+14     	; 0xae8 <ks0108DrawRoundRect+0xf0>
 ada:	2a 5f       	subi	r18, 0xFA	; 250
 adc:	3f 4f       	sbci	r19, 0xFF	; 255
 ade:	28 0d       	add	r18, r8
 ae0:	39 1d       	adc	r19, r9
 ae2:	3c 87       	std	Y+12, r19	; 0x0c
 ae4:	2b 87       	std	Y+11, r18	; 0x0b
 ae6:	15 c0       	rjmp	.+42     	; 0xb12 <ks0108DrawRoundRect+0x11a>
 ae8:	8b 85       	ldd	r24, Y+11	; 0x0b
 aea:	9c 85       	ldd	r25, Y+12	; 0x0c
 aec:	0a 96       	adiw	r24, 0x0a	; 10
 aee:	9c 87       	std	Y+12, r25	; 0x0c
 af0:	8b 87       	std	Y+11, r24	; 0x0b
 af2:	c5 01       	movw	r24, r10
 af4:	8c 19       	sub	r24, r12
 af6:	9d 09       	sbc	r25, r13
 af8:	88 0f       	add	r24, r24
 afa:	99 1f       	adc	r25, r25
 afc:	88 0f       	add	r24, r24
 afe:	99 1f       	adc	r25, r25
 b00:	eb 85       	ldd	r30, Y+11	; 0x0b
 b02:	fc 85       	ldd	r31, Y+12	; 0x0c
 b04:	e8 0f       	add	r30, r24
 b06:	f9 1f       	adc	r31, r25
 b08:	fc 87       	std	Y+12, r31	; 0x0c
 b0a:	eb 87       	std	Y+11, r30	; 0x0b
 b0c:	08 94       	sec
 b0e:	c1 08       	sbc	r12, r1
 b10:	d1 08       	sbc	r13, r1
 b12:	08 94       	sec
 b14:	a1 1c       	adc	r10, r1
 b16:	b1 1c       	adc	r11, r1
 b18:	4a 94       	dec	r4
 b1a:	5a 94       	dec	r5
 b1c:	63 94       	inc	r6
 b1e:	73 94       	inc	r7
 b20:	24 e0       	ldi	r18, 0x04	; 4
 b22:	30 e0       	ldi	r19, 0x00	; 0
 b24:	82 0e       	add	r8, r18
 b26:	93 1e       	adc	r9, r19
 b28:	ca 14       	cp	r12, r10
 b2a:	db 04       	cpc	r13, r11
 b2c:	0c f0       	brlt	.+2      	; 0xb30 <ks0108DrawRoundRect+0x138>
 b2e:	a8 cf       	rjmp	.-176    	; 0xa80 <ks0108DrawRoundRect+0x88>
 b30:	1d 81       	ldd	r17, Y+5	; 0x05
 b32:	f9 84       	ldd	r15, Y+9	; 0x09
 b34:	f1 0e       	add	r15, r17
 b36:	83 2d       	mov	r24, r3
 b38:	68 85       	ldd	r22, Y+8	; 0x08
 b3a:	4f 2d       	mov	r20, r15
 b3c:	20 e0       	ldi	r18, 0x00	; 0
 b3e:	0e 2d       	mov	r16, r14
 b40:	ad de       	rcall	.-678    	; 0x89c <ks0108FillRect>
 b42:	83 2d       	mov	r24, r3
 b44:	69 81       	ldd	r22, Y+1	; 0x01
 b46:	4f 2d       	mov	r20, r15
 b48:	20 e0       	ldi	r18, 0x00	; 0
 b4a:	a8 de       	rcall	.-688    	; 0x89c <ks0108FillRect>
 b4c:	3a 85       	ldd	r19, Y+10	; 0x0a
 b4e:	13 0f       	add	r17, r19
 b50:	8f 81       	ldd	r24, Y+7	; 0x07
 b52:	62 2d       	mov	r22, r2
 b54:	40 e0       	ldi	r20, 0x00	; 0
 b56:	21 2f       	mov	r18, r17
 b58:	a1 de       	rcall	.-702    	; 0x89c <ks0108FillRect>
 b5a:	8b 81       	ldd	r24, Y+3	; 0x03
 b5c:	62 2d       	mov	r22, r2
 b5e:	40 e0       	ldi	r20, 0x00	; 0
 b60:	21 2f       	mov	r18, r17
 b62:	9c de       	rcall	.-712    	; 0x89c <ks0108FillRect>
 b64:	2c 96       	adiw	r28, 0x0c	; 12
 b66:	0f b6       	in	r0, 0x3f	; 63
 b68:	f8 94       	cli
 b6a:	de bf       	out	0x3e, r29	; 62
 b6c:	0f be       	out	0x3f, r0	; 63
 b6e:	cd bf       	out	0x3d, r28	; 61
 b70:	cf 91       	pop	r28
 b72:	df 91       	pop	r29
 b74:	1f 91       	pop	r17
 b76:	0f 91       	pop	r16
 b78:	ff 90       	pop	r15
 b7a:	ef 90       	pop	r14
 b7c:	df 90       	pop	r13
 b7e:	cf 90       	pop	r12
 b80:	bf 90       	pop	r11
 b82:	af 90       	pop	r10
 b84:	9f 90       	pop	r9
 b86:	8f 90       	pop	r8
 b88:	7f 90       	pop	r7
 b8a:	6f 90       	pop	r6
 b8c:	5f 90       	pop	r5
 b8e:	4f 90       	pop	r4
 b90:	3f 90       	pop	r3
 b92:	2f 90       	pop	r2
 b94:	08 95       	ret

00000b96 <ks0108DrawRect>:
 b96:	cf 92       	push	r12
 b98:	df 92       	push	r13
 b9a:	ef 92       	push	r14
 b9c:	ff 92       	push	r15
 b9e:	0f 93       	push	r16
 ba0:	1f 93       	push	r17
 ba2:	18 2f       	mov	r17, r24
 ba4:	f6 2e       	mov	r15, r22
 ba6:	d4 2e       	mov	r13, r20
 ba8:	c2 2e       	mov	r12, r18
 baa:	20 e0       	ldi	r18, 0x00	; 0
 bac:	77 de       	rcall	.-786    	; 0x89c <ks0108FillRect>
 bae:	6c 2d       	mov	r22, r12
 bb0:	6f 0d       	add	r22, r15
 bb2:	81 2f       	mov	r24, r17
 bb4:	4d 2d       	mov	r20, r13
 bb6:	20 e0       	ldi	r18, 0x00	; 0
 bb8:	71 de       	rcall	.-798    	; 0x89c <ks0108FillRect>
 bba:	81 2f       	mov	r24, r17
 bbc:	6f 2d       	mov	r22, r15
 bbe:	40 e0       	ldi	r20, 0x00	; 0
 bc0:	2c 2d       	mov	r18, r12
 bc2:	6c de       	rcall	.-808    	; 0x89c <ks0108FillRect>
 bc4:	8d 2d       	mov	r24, r13
 bc6:	81 0f       	add	r24, r17
 bc8:	6f 2d       	mov	r22, r15
 bca:	40 e0       	ldi	r20, 0x00	; 0
 bcc:	2c 2d       	mov	r18, r12
 bce:	66 de       	rcall	.-820    	; 0x89c <ks0108FillRect>
 bd0:	1f 91       	pop	r17
 bd2:	0f 91       	pop	r16
 bd4:	ff 90       	pop	r15
 bd6:	ef 90       	pop	r14
 bd8:	df 90       	pop	r13
 bda:	cf 90       	pop	r12
 bdc:	08 95       	ret

00000bde <ks0108DrawLine>:
 bde:	4f 92       	push	r4
 be0:	5f 92       	push	r5
 be2:	6f 92       	push	r6
 be4:	7f 92       	push	r7
 be6:	8f 92       	push	r8
 be8:	9f 92       	push	r9
 bea:	af 92       	push	r10
 bec:	bf 92       	push	r11
 bee:	cf 92       	push	r12
 bf0:	df 92       	push	r13
 bf2:	ef 92       	push	r14
 bf4:	ff 92       	push	r15
 bf6:	0f 93       	push	r16
 bf8:	1f 93       	push	r17
 bfa:	cf 93       	push	r28
 bfc:	df 93       	push	r29
 bfe:	d8 2e       	mov	r13, r24
 c00:	c6 2e       	mov	r12, r22
 c02:	f4 2e       	mov	r15, r20
 c04:	e2 2e       	mov	r14, r18
 c06:	50 2e       	mov	r5, r16
 c08:	84 17       	cp	r24, r20
 c0a:	51 f4       	brne	.+20     	; 0xc20 <ks0108DrawLine+0x42>
 c0c:	26 17       	cp	r18, r22
 c0e:	10 f4       	brcc	.+4      	; 0xc14 <ks0108DrawLine+0x36>
 c10:	e6 2e       	mov	r14, r22
 c12:	c2 2e       	mov	r12, r18
 c14:	ec 18       	sub	r14, r12
 c16:	8d 2d       	mov	r24, r13
 c18:	6c 2d       	mov	r22, r12
 c1a:	40 e0       	ldi	r20, 0x00	; 0
 c1c:	2e 2d       	mov	r18, r14
 c1e:	0b c0       	rjmp	.+22     	; 0xc36 <ks0108DrawLine+0x58>
 c20:	62 17       	cp	r22, r18
 c22:	61 f4       	brne	.+24     	; 0xc3c <ks0108DrawLine+0x5e>
 c24:	48 17       	cp	r20, r24
 c26:	10 f4       	brcc	.+4      	; 0xc2c <ks0108DrawLine+0x4e>
 c28:	fd 2c       	mov	r15, r13
 c2a:	d4 2e       	mov	r13, r20
 c2c:	fd 18       	sub	r15, r13
 c2e:	8d 2d       	mov	r24, r13
 c30:	6c 2d       	mov	r22, r12
 c32:	4f 2d       	mov	r20, r15
 c34:	20 e0       	ldi	r18, 0x00	; 0
 c36:	05 2d       	mov	r16, r5
 c38:	31 de       	rcall	.-926    	; 0x89c <ks0108FillRect>
 c3a:	ce c0       	rjmp	.+412    	; 0xdd8 <ks0108DrawLine+0x1fa>
 c3c:	62 2f       	mov	r22, r18
 c3e:	70 e0       	ldi	r23, 0x00	; 0
 c40:	4c 2d       	mov	r20, r12
 c42:	50 e0       	ldi	r21, 0x00	; 0
 c44:	2f 2d       	mov	r18, r15
 c46:	30 e0       	ldi	r19, 0x00	; 0
 c48:	28 1b       	sub	r18, r24
 c4a:	31 09       	sbc	r19, r1
 c4c:	cb 01       	movw	r24, r22
 c4e:	84 1b       	sub	r24, r20
 c50:	95 0b       	sbc	r25, r21
 c52:	82 17       	cp	r24, r18
 c54:	93 07       	cpc	r25, r19
 c56:	34 f4       	brge	.+12     	; 0xc64 <ks0108DrawLine+0x86>
 c58:	46 1b       	sub	r20, r22
 c5a:	57 0b       	sbc	r21, r23
 c5c:	42 17       	cp	r20, r18
 c5e:	53 07       	cpc	r21, r19
 c60:	0c f4       	brge	.+2      	; 0xc64 <ks0108DrawLine+0x86>
 c62:	5e c0       	rjmp	.+188    	; 0xd20 <ks0108DrawLine+0x142>
 c64:	fd 14       	cp	r15, r13
 c66:	30 f4       	brcc	.+12     	; 0xc74 <ks0108DrawLine+0x96>
 c68:	8f 2d       	mov	r24, r15
 c6a:	fd 2c       	mov	r15, r13
 c6c:	d8 2e       	mov	r13, r24
 c6e:	8e 2d       	mov	r24, r14
 c70:	ec 2c       	mov	r14, r12
 c72:	c8 2e       	mov	r12, r24
 c74:	4f 2c       	mov	r4, r15
 c76:	4d 18       	sub	r4, r13
 c78:	ee 2d       	mov	r30, r14
 c7a:	f0 e0       	ldi	r31, 0x00	; 0
 c7c:	2c 2d       	mov	r18, r12
 c7e:	30 e0       	ldi	r19, 0x00	; 0
 c80:	4f 01       	movw	r8, r30
 c82:	82 1a       	sub	r8, r18
 c84:	93 0a       	sbc	r9, r19
 c86:	a4 2c       	mov	r10, r4
 c88:	bb 24       	eor	r11, r11
 c8a:	88 ec       	ldi	r24, 0xC8	; 200
 c8c:	90 e0       	ldi	r25, 0x00	; 0
 c8e:	ac 01       	movw	r20, r24
 c90:	84 9e       	mul	r8, r20
 c92:	c0 01       	movw	r24, r0
 c94:	85 9e       	mul	r8, r21
 c96:	90 0d       	add	r25, r0
 c98:	94 9e       	mul	r9, r20
 c9a:	90 0d       	add	r25, r0
 c9c:	11 24       	eor	r1, r1
 c9e:	b5 01       	movw	r22, r10
 ca0:	ac d0       	rcall	.+344    	; 0xdfa <__divmodhi4>
 ca2:	eb 01       	movw	r28, r22
 ca4:	0c 2d       	mov	r16, r12
 ca6:	ff 24       	eor	r15, r15
 ca8:	39 01       	movw	r6, r18
 caa:	6e 1a       	sub	r6, r30
 cac:	7f 0a       	sbc	r7, r31
 cae:	8f 2d       	mov	r24, r15
 cb0:	90 e0       	ldi	r25, 0x00	; 0
 cb2:	8c 9f       	mul	r24, r28
 cb4:	90 01       	movw	r18, r0
 cb6:	8d 9f       	mul	r24, r29
 cb8:	30 0d       	add	r19, r0
 cba:	9c 9f       	mul	r25, r28
 cbc:	30 0d       	add	r19, r0
 cbe:	11 24       	eor	r1, r1
 cc0:	c9 01       	movw	r24, r18
 cc2:	68 ec       	ldi	r22, 0xC8	; 200
 cc4:	70 e0       	ldi	r23, 0x00	; 0
 cc6:	99 d0       	rcall	.+306    	; 0xdfa <__divmodhi4>
 cc8:	16 2f       	mov	r17, r22
 cca:	1c 0d       	add	r17, r12
 ccc:	c9 01       	movw	r24, r18
 cce:	68 ec       	ldi	r22, 0xC8	; 200
 cd0:	70 e0       	ldi	r23, 0x00	; 0
 cd2:	93 d0       	rcall	.+294    	; 0xdfa <__divmodhi4>
 cd4:	84 36       	cpi	r24, 0x64	; 100
 cd6:	91 05       	cpc	r25, r1
 cd8:	14 f0       	brlt	.+4      	; 0xcde <ks0108DrawLine+0x100>
 cda:	1f 5f       	subi	r17, 0xFF	; 255
 cdc:	05 c0       	rjmp	.+10     	; 0xce8 <ks0108DrawLine+0x10a>
 cde:	5f ef       	ldi	r21, 0xFF	; 255
 ce0:	8d 39       	cpi	r24, 0x9D	; 157
 ce2:	95 07       	cpc	r25, r21
 ce4:	0c f4       	brge	.+2      	; 0xce8 <ks0108DrawLine+0x10a>
 ce6:	11 50       	subi	r17, 0x01	; 1
 ce8:	4f 2d       	mov	r20, r15
 cea:	4d 0d       	add	r20, r13
 cec:	84 2f       	mov	r24, r20
 cee:	60 2f       	mov	r22, r16
 cf0:	21 2f       	mov	r18, r17
 cf2:	05 2d       	mov	r16, r5
 cf4:	74 df       	rcall	.-280    	; 0xbde <ks0108DrawLine>
 cf6:	8a 14       	cp	r8, r10
 cf8:	9b 04       	cpc	r9, r11
 cfa:	2c f0       	brlt	.+10     	; 0xd06 <ks0108DrawLine+0x128>
 cfc:	ce 14       	cp	r12, r14
 cfe:	18 f4       	brcc	.+6      	; 0xd06 <ks0108DrawLine+0x128>
 d00:	01 2f       	mov	r16, r17
 d02:	0f 5f       	subi	r16, 0xFF	; 255
 d04:	09 c0       	rjmp	.+18     	; 0xd18 <ks0108DrawLine+0x13a>
 d06:	6a 14       	cp	r6, r10
 d08:	7b 04       	cpc	r7, r11
 d0a:	2c f0       	brlt	.+10     	; 0xd16 <ks0108DrawLine+0x138>
 d0c:	ec 14       	cp	r14, r12
 d0e:	18 f4       	brcc	.+6      	; 0xd16 <ks0108DrawLine+0x138>
 d10:	01 2f       	mov	r16, r17
 d12:	01 50       	subi	r16, 0x01	; 1
 d14:	01 c0       	rjmp	.+2      	; 0xd18 <ks0108DrawLine+0x13a>
 d16:	01 2f       	mov	r16, r17
 d18:	f3 94       	inc	r15
 d1a:	4f 14       	cp	r4, r15
 d1c:	40 f6       	brcc	.-112    	; 0xcae <ks0108DrawLine+0xd0>
 d1e:	5c c0       	rjmp	.+184    	; 0xdd8 <ks0108DrawLine+0x1fa>
 d20:	ec 14       	cp	r14, r12
 d22:	28 f4       	brcc	.+10     	; 0xd2e <ks0108DrawLine+0x150>
 d24:	8f 2d       	mov	r24, r15
 d26:	fd 2c       	mov	r15, r13
 d28:	d8 2e       	mov	r13, r24
 d2a:	ec 2c       	mov	r14, r12
 d2c:	c6 2e       	mov	r12, r22
 d2e:	4e 2c       	mov	r4, r14
 d30:	4c 18       	sub	r4, r12
 d32:	ef 2d       	mov	r30, r15
 d34:	f0 e0       	ldi	r31, 0x00	; 0
 d36:	2d 2d       	mov	r18, r13
 d38:	30 e0       	ldi	r19, 0x00	; 0
 d3a:	4f 01       	movw	r8, r30
 d3c:	82 1a       	sub	r8, r18
 d3e:	93 0a       	sbc	r9, r19
 d40:	a4 2c       	mov	r10, r4
 d42:	bb 24       	eor	r11, r11
 d44:	88 ec       	ldi	r24, 0xC8	; 200
 d46:	90 e0       	ldi	r25, 0x00	; 0
 d48:	ac 01       	movw	r20, r24
 d4a:	84 9e       	mul	r8, r20
 d4c:	c0 01       	movw	r24, r0
 d4e:	85 9e       	mul	r8, r21
 d50:	90 0d       	add	r25, r0
 d52:	94 9e       	mul	r9, r20
 d54:	90 0d       	add	r25, r0
 d56:	11 24       	eor	r1, r1
 d58:	b5 01       	movw	r22, r10
 d5a:	4f d0       	rcall	.+158    	; 0xdfa <__divmodhi4>
 d5c:	eb 01       	movw	r28, r22
 d5e:	4d 2d       	mov	r20, r13
 d60:	ee 24       	eor	r14, r14
 d62:	39 01       	movw	r6, r18
 d64:	6e 1a       	sub	r6, r30
 d66:	7f 0a       	sbc	r7, r31
 d68:	8e 2d       	mov	r24, r14
 d6a:	90 e0       	ldi	r25, 0x00	; 0
 d6c:	8c 9f       	mul	r24, r28
 d6e:	90 01       	movw	r18, r0
 d70:	8d 9f       	mul	r24, r29
 d72:	30 0d       	add	r19, r0
 d74:	9c 9f       	mul	r25, r28
 d76:	30 0d       	add	r19, r0
 d78:	11 24       	eor	r1, r1
 d7a:	c9 01       	movw	r24, r18
 d7c:	68 ec       	ldi	r22, 0xC8	; 200
 d7e:	70 e0       	ldi	r23, 0x00	; 0
 d80:	3c d0       	rcall	.+120    	; 0xdfa <__divmodhi4>
 d82:	16 2f       	mov	r17, r22
 d84:	1d 0d       	add	r17, r13
 d86:	c9 01       	movw	r24, r18
 d88:	68 ec       	ldi	r22, 0xC8	; 200
 d8a:	70 e0       	ldi	r23, 0x00	; 0
 d8c:	36 d0       	rcall	.+108    	; 0xdfa <__divmodhi4>
 d8e:	84 36       	cpi	r24, 0x64	; 100
 d90:	91 05       	cpc	r25, r1
 d92:	14 f0       	brlt	.+4      	; 0xd98 <ks0108DrawLine+0x1ba>
 d94:	1f 5f       	subi	r17, 0xFF	; 255
 d96:	05 c0       	rjmp	.+10     	; 0xda2 <ks0108DrawLine+0x1c4>
 d98:	5f ef       	ldi	r21, 0xFF	; 255
 d9a:	8d 39       	cpi	r24, 0x9D	; 157
 d9c:	95 07       	cpc	r25, r21
 d9e:	0c f4       	brge	.+2      	; 0xda2 <ks0108DrawLine+0x1c4>
 da0:	11 50       	subi	r17, 0x01	; 1
 da2:	2e 2d       	mov	r18, r14
 da4:	2c 0d       	add	r18, r12
 da6:	84 2f       	mov	r24, r20
 da8:	62 2f       	mov	r22, r18
 daa:	41 2f       	mov	r20, r17
 dac:	05 2d       	mov	r16, r5
 dae:	17 df       	rcall	.-466    	; 0xbde <ks0108DrawLine>
 db0:	8a 14       	cp	r8, r10
 db2:	9b 04       	cpc	r9, r11
 db4:	2c f0       	brlt	.+10     	; 0xdc0 <ks0108DrawLine+0x1e2>
 db6:	df 14       	cp	r13, r15
 db8:	18 f4       	brcc	.+6      	; 0xdc0 <ks0108DrawLine+0x1e2>
 dba:	41 2f       	mov	r20, r17
 dbc:	4f 5f       	subi	r20, 0xFF	; 255
 dbe:	09 c0       	rjmp	.+18     	; 0xdd2 <ks0108DrawLine+0x1f4>
 dc0:	6a 14       	cp	r6, r10
 dc2:	7b 04       	cpc	r7, r11
 dc4:	2c f0       	brlt	.+10     	; 0xdd0 <ks0108DrawLine+0x1f2>
 dc6:	fd 14       	cp	r15, r13
 dc8:	18 f4       	brcc	.+6      	; 0xdd0 <ks0108DrawLine+0x1f2>
 dca:	41 2f       	mov	r20, r17
 dcc:	41 50       	subi	r20, 0x01	; 1
 dce:	01 c0       	rjmp	.+2      	; 0xdd2 <ks0108DrawLine+0x1f4>
 dd0:	41 2f       	mov	r20, r17
 dd2:	e3 94       	inc	r14
 dd4:	4e 14       	cp	r4, r14
 dd6:	40 f6       	brcc	.-112    	; 0xd68 <ks0108DrawLine+0x18a>
 dd8:	df 91       	pop	r29
 dda:	cf 91       	pop	r28
 ddc:	1f 91       	pop	r17
 dde:	0f 91       	pop	r16
 de0:	ff 90       	pop	r15
 de2:	ef 90       	pop	r14
 de4:	df 90       	pop	r13
 de6:	cf 90       	pop	r12
 de8:	bf 90       	pop	r11
 dea:	af 90       	pop	r10
 dec:	9f 90       	pop	r9
 dee:	8f 90       	pop	r8
 df0:	7f 90       	pop	r7
 df2:	6f 90       	pop	r6
 df4:	5f 90       	pop	r5
 df6:	4f 90       	pop	r4
 df8:	08 95       	ret

00000dfa <__divmodhi4>:
 dfa:	97 fb       	bst	r25, 7
 dfc:	09 2e       	mov	r0, r25
 dfe:	07 26       	eor	r0, r23
 e00:	0a d0       	rcall	.+20     	; 0xe16 <__divmodhi4_neg1>
 e02:	77 fd       	sbrc	r23, 7
 e04:	04 d0       	rcall	.+8      	; 0xe0e <__divmodhi4_neg2>
 e06:	0c d0       	rcall	.+24     	; 0xe20 <__udivmodhi4>
 e08:	06 d0       	rcall	.+12     	; 0xe16 <__divmodhi4_neg1>
 e0a:	00 20       	and	r0, r0
 e0c:	1a f4       	brpl	.+6      	; 0xe14 <__divmodhi4_exit>

00000e0e <__divmodhi4_neg2>:
 e0e:	70 95       	com	r23
 e10:	61 95       	neg	r22
 e12:	7f 4f       	sbci	r23, 0xFF	; 255

00000e14 <__divmodhi4_exit>:
 e14:	08 95       	ret

00000e16 <__divmodhi4_neg1>:
 e16:	f6 f7       	brtc	.-4      	; 0xe14 <__divmodhi4_exit>
 e18:	90 95       	com	r25
 e1a:	81 95       	neg	r24
 e1c:	9f 4f       	sbci	r25, 0xFF	; 255
 e1e:	08 95       	ret

00000e20 <__udivmodhi4>:
 e20:	aa 1b       	sub	r26, r26
 e22:	bb 1b       	sub	r27, r27
 e24:	51 e1       	ldi	r21, 0x11	; 17
 e26:	07 c0       	rjmp	.+14     	; 0xe36 <__udivmodhi4_ep>

00000e28 <__udivmodhi4_loop>:
 e28:	aa 1f       	adc	r26, r26
 e2a:	bb 1f       	adc	r27, r27
 e2c:	a6 17       	cp	r26, r22
 e2e:	b7 07       	cpc	r27, r23
 e30:	10 f0       	brcs	.+4      	; 0xe36 <__udivmodhi4_ep>
 e32:	a6 1b       	sub	r26, r22
 e34:	b7 0b       	sbc	r27, r23

00000e36 <__udivmodhi4_ep>:
 e36:	88 1f       	adc	r24, r24
 e38:	99 1f       	adc	r25, r25
 e3a:	5a 95       	dec	r21
 e3c:	a9 f7       	brne	.-22     	; 0xe28 <__udivmodhi4_loop>
 e3e:	80 95       	com	r24
 e40:	90 95       	com	r25
 e42:	bc 01       	movw	r22, r24
 e44:	cd 01       	movw	r24, r26
 e46:	08 95       	ret

00000e48 <_exit>:
 e48:	f8 94       	cli

00000e4a <__stop_program>:
 e4a:	ff cf       	rjmp	.-2      	; 0xe4a <__stop_program>
